{
  "_format": "hh-sol-artifact-1",
  "contractName": "PropertyGovernance",
  "sourceName": "contracts/PropertyGovernance.sol",
  "abi": [
    {
      "inputs": [
        {
          "internalType": "address",
          "name": "_propertyToken",
          "type": "address"
        }
      ],
      "stateMutability": "nonpayable",
      "type": "constructor"
    },
    {
      "anonymous": false,
      "inputs": [
        {
          "indexed": true,
          "internalType": "address",
          "name": "previousOwner",
          "type": "address"
        },
        {
          "indexed": true,
          "internalType": "address",
          "name": "newOwner",
          "type": "address"
        }
      ],
      "name": "OwnershipTransferred",
      "type": "event"
    },
    {
      "anonymous": false,
      "inputs": [
        {
          "indexed": true,
          "internalType": "uint256",
          "name": "proposalId",
          "type": "uint256"
        },
        {
          "indexed": false,
          "internalType": "string",
          "name": "description",
          "type": "string"
        },
        {
          "indexed": false,
          "internalType": "uint256",
          "name": "startTime",
          "type": "uint256"
        },
        {
          "indexed": false,
          "internalType": "uint256",
          "name": "endTime",
          "type": "uint256"
        }
      ],
      "name": "ProposalCreated",
      "type": "event"
    },
    {
      "anonymous": false,
      "inputs": [
        {
          "indexed": true,
          "internalType": "uint256",
          "name": "proposalId",
          "type": "uint256"
        }
      ],
      "name": "ProposalExecuted",
      "type": "event"
    },
    {
      "anonymous": false,
      "inputs": [
        {
          "indexed": true,
          "internalType": "uint256",
          "name": "proposalId",
          "type": "uint256"
        },
        {
          "indexed": true,
          "internalType": "address",
          "name": "voter",
          "type": "address"
        },
        {
          "indexed": false,
          "internalType": "bool",
          "name": "support",
          "type": "bool"
        },
        {
          "indexed": false,
          "internalType": "uint256",
          "name": "votes",
          "type": "uint256"
        }
      ],
      "name": "Voted",
      "type": "event"
    },
    {
      "inputs": [],
      "name": "MIN_QUORUM",
      "outputs": [
        {
          "internalType": "uint256",
          "name": "",
          "type": "uint256"
        }
      ],
      "stateMutability": "view",
      "type": "function"
    },
    {
      "inputs": [],
      "name": "VOTING_PERIOD",
      "outputs": [
        {
          "internalType": "uint256",
          "name": "",
          "type": "uint256"
        }
      ],
      "stateMutability": "view",
      "type": "function"
    },
    {
      "inputs": [
        {
          "internalType": "string",
          "name": "description",
          "type": "string"
        }
      ],
      "name": "createProposal",
      "outputs": [],
      "stateMutability": "nonpayable",
      "type": "function"
    },
    {
      "inputs": [
        {
          "internalType": "uint256",
          "name": "proposalId",
          "type": "uint256"
        }
      ],
      "name": "executeProposal",
      "outputs": [],
      "stateMutability": "nonpayable",
      "type": "function"
    },
    {
      "inputs": [
        {
          "internalType": "uint256",
          "name": "proposalId",
          "type": "uint256"
        }
      ],
      "name": "getProposal",
      "outputs": [
        {
          "internalType": "string",
          "name": "description",
          "type": "string"
        },
        {
          "internalType": "uint256",
          "name": "forVotes",
          "type": "uint256"
        },
        {
          "internalType": "uint256",
          "name": "againstVotes",
          "type": "uint256"
        },
        {
          "internalType": "uint256",
          "name": "startTime",
          "type": "uint256"
        },
        {
          "internalType": "uint256",
          "name": "endTime",
          "type": "uint256"
        },
        {
          "internalType": "bool",
          "name": "executed",
          "type": "bool"
        }
      ],
      "stateMutability": "view",
      "type": "function"
    },
    {
      "inputs": [
        {
          "internalType": "uint256",
          "name": "proposalId",
          "type": "uint256"
        },
        {
          "internalType": "address",
          "name": "voter",
          "type": "address"
        }
      ],
      "name": "hasVoted",
      "outputs": [
        {
          "internalType": "bool",
          "name": "",
          "type": "bool"
        }
      ],
      "stateMutability": "view",
      "type": "function"
    },
    {
      "inputs": [],
      "name": "owner",
      "outputs": [
        {
          "internalType": "address",
          "name": "",
          "type": "address"
        }
      ],
      "stateMutability": "view",
      "type": "function"
    },
    {
      "inputs": [],
      "name": "propertyToken",
      "outputs": [
        {
          "internalType": "contract PropertyToken",
          "name": "",
          "type": "address"
        }
      ],
      "stateMutability": "view",
      "type": "function"
    },
    {
      "inputs": [],
      "name": "proposalCount",
      "outputs": [
        {
          "internalType": "uint256",
          "name": "",
          "type": "uint256"
        }
      ],
      "stateMutability": "view",
      "type": "function"
    },
    {
      "inputs": [
        {
          "internalType": "uint256",
          "name": "",
          "type": "uint256"
        }
      ],
      "name": "proposals",
      "outputs": [
        {
          "internalType": "string",
          "name": "description",
          "type": "string"
        },
        {
          "internalType": "uint256",
          "name": "forVotes",
          "type": "uint256"
        },
        {
          "internalType": "uint256",
          "name": "againstVotes",
          "type": "uint256"
        },
        {
          "internalType": "uint256",
          "name": "startTime",
          "type": "uint256"
        },
        {
          "internalType": "uint256",
          "name": "endTime",
          "type": "uint256"
        },
        {
          "internalType": "bool",
          "name": "executed",
          "type": "bool"
        }
      ],
      "stateMutability": "view",
      "type": "function"
    },
    {
      "inputs": [],
      "name": "renounceOwnership",
      "outputs": [],
      "stateMutability": "nonpayable",
      "type": "function"
    },
    {
      "inputs": [
        {
          "internalType": "address",
          "name": "newOwner",
          "type": "address"
        }
      ],
      "name": "transferOwnership",
      "outputs": [],
      "stateMutability": "nonpayable",
      "type": "function"
    },
    {
      "inputs": [
        {
          "internalType": "uint256",
          "name": "proposalId",
          "type": "uint256"
        },
        {
          "internalType": "bool",
          "name": "support",
          "type": "bool"
        }
      ],
      "name": "vote",
      "outputs": [],
      "stateMutability": "nonpayable",
      "type": "function"
    }
  ],
  "bytecode": "0x60806040523480156200001157600080fd5b506040516200205f3803806200205f83398181016040528101906200003791906200025f565b620000576200004b6200012960201b60201c565b6200013160201b60201c565b60018081905550600073ffffffffffffffffffffffffffffffffffffffff168173ffffffffffffffffffffffffffffffffffffffff1603620000d0576040517f08c379a0000000000000000000000000000000000000000000000000000000008152600401620000c790620002f2565b60405180910390fd5b80600260006101000a81548173ffffffffffffffffffffffffffffffffffffffff021916908373ffffffffffffffffffffffffffffffffffffffff16021790555062000122336200013160201b60201c565b5062000314565b600033905090565b60008060009054906101000a900473ffffffffffffffffffffffffffffffffffffffff169050816000806101000a81548173ffffffffffffffffffffffffffffffffffffffff021916908373ffffffffffffffffffffffffffffffffffffffff1602179055508173ffffffffffffffffffffffffffffffffffffffff168173ffffffffffffffffffffffffffffffffffffffff167f8be0079c531659141344cd1fd0a4f28419497f9722a3daafe3b4186f6b6457e060405160405180910390a35050565b600080fd5b600073ffffffffffffffffffffffffffffffffffffffff82169050919050565b60006200022782620001fa565b9050919050565b62000239816200021a565b81146200024557600080fd5b50565b60008151905062000259816200022e565b92915050565b600060208284031215620002785762000277620001f5565b5b6000620002888482850162000248565b91505092915050565b600082825260208201905092915050565b7f496e76616c696420746f6b656e20616464726573730000000000000000000000600082015250565b6000620002da60158362000291565b9150620002e782620002a2565b602082019050919050565b600060208201905081810360008301526200030d81620002cb565b9050919050565b611d3b80620003246000396000f3fe608060405234801561001057600080fd5b50600436106100cf5760003560e01c8063715018a61161008c578063c7f758a811610066578063c7f758a8146101f3578063c9d27afe14610228578063da35c66414610244578063f2fde38b14610262576100cf565b8063715018a6146101ad5780638da5cb5b146101b7578063b1610d7e146101d5576100cf565b8063013cf08b146100d45780630d61b51914610109578063438596321461012557806343ae26951461015557806349c2a1a6146101735780635f3ad7091461018f575b600080fd5b6100ee60048036038101906100e99190610e93565b61027e565b60405161010096959493929190610f7a565b60405180910390f35b610123600480360381019061011e9190610e93565b61034f565b005b61013f600480360381019061013a9190611040565b6105f9565b60405161014c9190611080565b60405180910390f35b61015d6106b4565b60405161016a91906110fa565b60405180910390f35b61018d6004803603810190610188919061124a565b6106da565b005b610197610795565b6040516101a49190611293565b60405180910390f35b6101b561079a565b005b6101bf6107ae565b6040516101cc91906112bd565b60405180910390f35b6101dd6107d7565b6040516101ea9190611293565b60405180910390f35b61020d60048036038101906102089190610e93565b6107de565b60405161021f96959493929190610f7a565b60405180910390f35b610242600480360381019061023d9190611304565b61091b565b005b61024c610c76565b6040516102599190611293565b60405180910390f35b61027c60048036038101906102779190611344565b610c7c565b005b60036020528060005260406000206000915090508060000180546102a1906113a0565b80601f01602080910402602001604051908101604052809291908181526020018280546102cd906113a0565b801561031a5780601f106102ef5761010080835404028352916020019161031a565b820191906000526020600020905b8154815290600101906020018083116102fd57829003601f168201915b5050505050908060010154908060020154908060030154908060040154908060050160009054906101000a900460ff16905086565b610357610cff565b60008111801561036957506004548111155b6103a8576040517f08c379a000000000000000000000000000000000000000000000000000000000815260040161039f9061141d565b60405180910390fd5b600060036000838152602001908152602001600020905080600401544211610405576040517f08c379a00000000000000000000000000000000000000000000000000000000081526004016103fc90611489565b60405180910390fd5b8060050160009054906101000a900460ff1615610457576040517f08c379a000000000000000000000000000000000000000000000000000000000815260040161044e906114f5565b60405180910390fd5b60008160020154826001015461046d9190611544565b90506000600260009054906101000a900473ffffffffffffffffffffffffffffffffffffffff1673ffffffffffffffffffffffffffffffffffffffff166318160ddd6040518163ffffffff1660e01b8152600401602060405180830381865afa1580156104de573d6000803e3d6000fd5b505050506040513d601f19601f82011682018060405250810190610502919061158d565b905060338160648461051491906115ba565b61051e919061162b565b101561055f576040517f08c379a0000000000000000000000000000000000000000000000000000000008152600401610556906116a8565b60405180910390fd5b82600201548360010154116105a9576040517f08c379a00000000000000000000000000000000000000000000000000000000081526004016105a090611714565b60405180910390fd5b60018360050160006101000a81548160ff021916908315150217905550837f712ae1383f79ac853f8d882153778e0260ef8f03b504e2866e0593e04d2b291f60405160405180910390a250505050565b6000808311801561060c57506004548311155b61064b576040517f08c379a00000000000000000000000000000000000000000000000000000000081526004016106429061141d565b60405180910390fd5b6003600084815260200190815260200160002060060160008373ffffffffffffffffffffffffffffffffffffffff1673ffffffffffffffffffffffffffffffffffffffff16815260200190815260200160002060009054906101000a900460ff16905092915050565b600260009054906101000a900473ffffffffffffffffffffffffffffffffffffffff1681565b6106e2610cff565b600460008154809291906106f590611734565b91905055506000600360006004548152602001908152602001600020905081816000019081610724919061191e565b5042816003018190555062093a804261073d9190611544565b81600401819055506004547f5d072faeaf3fe9518eca824577834e1efc3ff209025796dd8819b72706cd0bd5834262093a804261077a9190611544565b604051610789939291906119f0565b60405180910390a25050565b603381565b6107a2610cff565b6107ac6000610d7d565b565b60008060009054906101000a900473ffffffffffffffffffffffffffffffffffffffff16905090565b62093a8081565b6060600080600080600080871180156107f957506004548711155b610838576040517f08c379a000000000000000000000000000000000000000000000000000000000815260040161082f9061141d565b60405180910390fd5b60006003600089815260200190815260200160002090508060000181600101548260020154836003015484600401548560050160009054906101000a900460ff16858054610885906113a0565b80601f01602080910402602001604051908101604052809291908181526020018280546108b1906113a0565b80156108fe5780601f106108d3576101008083540402835291602001916108fe565b820191906000526020600020905b8154815290600101906020018083116108e157829003601f168201915b505050505095509650965096509650965096505091939550919395565b60008211801561092d57506004548211155b61096c576040517f08c379a00000000000000000000000000000000000000000000000000000000081526004016109639061141d565b60405180910390fd5b600060036000848152602001908152602001600020905080600301544210156109ca576040517f08c379a00000000000000000000000000000000000000000000000000000000081526004016109c190611a7a565b60405180910390fd5b8060040154421115610a11576040517f08c379a0000000000000000000000000000000000000000000000000000000008152600401610a0890611ae6565b60405180910390fd5b8060060160003373ffffffffffffffffffffffffffffffffffffffff1673ffffffffffffffffffffffffffffffffffffffff16815260200190815260200160002060009054906101000a900460ff1615610aa0576040517f08c379a0000000000000000000000000000000000000000000000000000000008152600401610a9790611b52565b60405180910390fd5b6000600260009054906101000a900473ffffffffffffffffffffffffffffffffffffffff1673ffffffffffffffffffffffffffffffffffffffff166370a08231336040518263ffffffff1660e01b8152600401610afd91906112bd565b602060405180830381865afa158015610b1a573d6000803e3d6000fd5b505050506040513d601f19601f82011682018060405250810190610b3e919061158d565b905060008111610b83576040517f08c379a0000000000000000000000000000000000000000000000000000000008152600401610b7a90611bbe565b60405180910390fd5b8215610ba95780826001016000828254610b9d9190611544565b92505081905550610bc5565b80826002016000828254610bbd9190611544565b925050819055505b60018260060160003373ffffffffffffffffffffffffffffffffffffffff1673ffffffffffffffffffffffffffffffffffffffff16815260200190815260200160002060006101000a81548160ff0219169083151502179055503373ffffffffffffffffffffffffffffffffffffffff16847f7c2de587c00d75474a0c6c6fa96fd3b45dc974cd4e8a75f712bb84c950dce1b58584604051610c68929190611bde565b60405180910390a350505050565b60045481565b610c84610cff565b600073ffffffffffffffffffffffffffffffffffffffff168173ffffffffffffffffffffffffffffffffffffffff1603610cf3576040517f08c379a0000000000000000000000000000000000000000000000000000000008152600401610cea90611c79565b60405180910390fd5b610cfc81610d7d565b50565b610d07610e41565b73ffffffffffffffffffffffffffffffffffffffff16610d256107ae565b73ffffffffffffffffffffffffffffffffffffffff1614610d7b576040517f08c379a0000000000000000000000000000000000000000000000000000000008152600401610d7290611ce5565b60405180910390fd5b565b60008060009054906101000a900473ffffffffffffffffffffffffffffffffffffffff169050816000806101000a81548173ffffffffffffffffffffffffffffffffffffffff021916908373ffffffffffffffffffffffffffffffffffffffff1602179055508173ffffffffffffffffffffffffffffffffffffffff168173ffffffffffffffffffffffffffffffffffffffff167f8be0079c531659141344cd1fd0a4f28419497f9722a3daafe3b4186f6b6457e060405160405180910390a35050565b600033905090565b6000604051905090565b600080fd5b600080fd5b6000819050919050565b610e7081610e5d565b8114610e7b57600080fd5b50565b600081359050610e8d81610e67565b92915050565b600060208284031215610ea957610ea8610e53565b5b6000610eb784828501610e7e565b91505092915050565b600081519050919050565b600082825260208201905092915050565b60005b83811015610efa578082015181840152602081019050610edf565b60008484015250505050565b6000601f19601f8301169050919050565b6000610f2282610ec0565b610f2c8185610ecb565b9350610f3c818560208601610edc565b610f4581610f06565b840191505092915050565b610f5981610e5d565b82525050565b60008115159050919050565b610f7481610f5f565b82525050565b600060c0820190508181036000830152610f948189610f17565b9050610fa36020830188610f50565b610fb06040830187610f50565b610fbd6060830186610f50565b610fca6080830185610f50565b610fd760a0830184610f6b565b979650505050505050565b600073ffffffffffffffffffffffffffffffffffffffff82169050919050565b600061100d82610fe2565b9050919050565b61101d81611002565b811461102857600080fd5b50565b60008135905061103a81611014565b92915050565b6000806040838503121561105757611056610e53565b5b600061106585828601610e7e565b92505060206110768582860161102b565b9150509250929050565b60006020820190506110956000830184610f6b565b92915050565b6000819050919050565b60006110c06110bb6110b684610fe2565b61109b565b610fe2565b9050919050565b60006110d2826110a5565b9050919050565b60006110e4826110c7565b9050919050565b6110f4816110d9565b82525050565b600060208201905061110f60008301846110eb565b92915050565b600080fd5b600080fd5b7f4e487b7100000000000000000000000000000000000000000000000000000000600052604160045260246000fd5b61115782610f06565b810181811067ffffffffffffffff821117156111765761117561111f565b5b80604052505050565b6000611189610e49565b9050611195828261114e565b919050565b600067ffffffffffffffff8211156111b5576111b461111f565b5b6111be82610f06565b9050602081019050919050565b82818337600083830152505050565b60006111ed6111e88461119a565b61117f565b9050828152602081018484840111156112095761120861111a565b5b6112148482856111cb565b509392505050565b600082601f83011261123157611230611115565b5b81356112418482602086016111da565b91505092915050565b6000602082840312156112605761125f610e53565b5b600082013567ffffffffffffffff81111561127e5761127d610e58565b5b61128a8482850161121c565b91505092915050565b60006020820190506112a86000830184610f50565b92915050565b6112b781611002565b82525050565b60006020820190506112d260008301846112ae565b92915050565b6112e181610f5f565b81146112ec57600080fd5b50565b6000813590506112fe816112d8565b92915050565b6000806040838503121561131b5761131a610e53565b5b600061132985828601610e7e565b925050602061133a858286016112ef565b9150509250929050565b60006020828403121561135a57611359610e53565b5b60006113688482850161102b565b91505092915050565b7f4e487b7100000000000000000000000000000000000000000000000000000000600052602260045260246000fd5b600060028204905060018216806113b857607f821691505b6020821081036113cb576113ca611371565b5b50919050565b7f496e76616c69642070726f706f73616c00000000000000000000000000000000600082015250565b6000611407601083610ecb565b9150611412826113d1565b602082019050919050565b60006020820190508181036000830152611436816113fa565b9050919050565b7f566f74696e67206e6f7420656e64656400000000000000000000000000000000600082015250565b6000611473601083610ecb565b915061147e8261143d565b602082019050919050565b600060208201905081810360008301526114a281611466565b9050919050565b7f416c726561647920657865637574656400000000000000000000000000000000600082015250565b60006114df601083610ecb565b91506114ea826114a9565b602082019050919050565b6000602082019050818103600083015261150e816114d2565b9050919050565b7f4e487b7100000000000000000000000000000000000000000000000000000000600052601160045260246000fd5b600061154f82610e5d565b915061155a83610e5d565b925082820190508082111561157257611571611515565b5b92915050565b60008151905061158781610e67565b92915050565b6000602082840312156115a3576115a2610e53565b5b60006115b184828501611578565b91505092915050565b60006115c582610e5d565b91506115d083610e5d565b92508282026115de81610e5d565b915082820484148315176115f5576115f4611515565b5b5092915050565b7f4e487b7100000000000000000000000000000000000000000000000000000000600052601260045260246000fd5b600061163682610e5d565b915061164183610e5d565b925082611651576116506115fc565b5b828204905092915050565b7f51756f72756d206e6f7420726561636865640000000000000000000000000000600082015250565b6000611692601283610ecb565b915061169d8261165c565b602082019050919050565b600060208201905081810360008301526116c181611685565b9050919050565b7f50726f706f73616c2072656a6563746564000000000000000000000000000000600082015250565b60006116fe601183610ecb565b9150611709826116c8565b602082019050919050565b6000602082019050818103600083015261172d816116f1565b9050919050565b600061173f82610e5d565b91507fffffffffffffffffffffffffffffffffffffffffffffffffffffffffffffffff820361177157611770611515565b5b600182019050919050565b60008190508160005260206000209050919050565b60006020601f8301049050919050565b600082821b905092915050565b6000600883026117de7fffffffffffffffffffffffffffffffffffffffffffffffffffffffffffffffff826117a1565b6117e886836117a1565b95508019841693508086168417925050509392505050565b600061181b61181661181184610e5d565b61109b565b610e5d565b9050919050565b6000819050919050565b61183583611800565b61184961184182611822565b8484546117ae565b825550505050565b600090565b61185e611851565b61186981848461182c565b505050565b5b8181101561188d57611882600082611856565b60018101905061186f565b5050565b601f8211156118d2576118a38161177c565b6118ac84611791565b810160208510156118bb578190505b6118cf6118c785611791565b83018261186e565b50505b505050565b600082821c905092915050565b60006118f5600019846008026118d7565b1980831691505092915050565b600061190e83836118e4565b9150826002028217905092915050565b61192782610ec0565b67ffffffffffffffff8111156119405761193f61111f565b5b61194a82546113a0565b611955828285611891565b600060209050601f8311600181146119885760008415611976578287015190505b6119808582611902565b8655506119e8565b601f1984166119968661177c565b60005b828110156119be57848901518255600182019150602085019450602081019050611999565b868310156119db57848901516119d7601f8916826118e4565b8355505b6001600288020188555050505b505050505050565b60006060820190508181036000830152611a0a8186610f17565b9050611a196020830185610f50565b611a266040830184610f50565b949350505050565b7f566f74696e67206e6f7420737461727465640000000000000000000000000000600082015250565b6000611a64601283610ecb565b9150611a6f82611a2e565b602082019050919050565b60006020820190508181036000830152611a9381611a57565b9050919050565b7f566f74696e6720656e6465640000000000000000000000000000000000000000600082015250565b6000611ad0600c83610ecb565b9150611adb82611a9a565b602082019050919050565b60006020820190508181036000830152611aff81611ac3565b9050919050565b7f416c726561647920766f74656400000000000000000000000000000000000000600082015250565b6000611b3c600d83610ecb565b9150611b4782611b06565b602082019050919050565b60006020820190508181036000830152611b6b81611b2f565b9050919050565b7f4e6f20766f74696e6720706f7765720000000000000000000000000000000000600082015250565b6000611ba8600f83610ecb565b9150611bb382611b72565b602082019050919050565b60006020820190508181036000830152611bd781611b9b565b9050919050565b6000604082019050611bf36000830185610f6b565b611c006020830184610f50565b9392505050565b7f4f776e61626c653a206e6577206f776e657220697320746865207a65726f206160008201527f6464726573730000000000000000000000000000000000000000000000000000602082015250565b6000611c63602683610ecb565b9150611c6e82611c07565b604082019050919050565b60006020820190508181036000830152611c9281611c56565b9050919050565b7f4f776e61626c653a2063616c6c6572206973206e6f7420746865206f776e6572600082015250565b6000611ccf602083610ecb565b9150611cda82611c99565b602082019050919050565b60006020820190508181036000830152611cfe81611cc2565b905091905056fea2646970667358221220a8e52040de17d840b6d76e70c04fdda6c7c570bddfce9eb05c57a1eff001b17e64736f6c63430008180033",
  "linkReferences": {},
  "deployedLinkReferences": {}
}