{
  "_format": "hh-sol-artifact-1",
  "contractName": "EquiXtate",
  "sourceName": "contracts/Equixtate.sol",
  "abi": [
    {
      "inputs": [],
      "stateMutability": "nonpayable",
      "type": "constructor"
    },
    {
      "anonymous": false,
      "inputs": [
        {
          "indexed": true,
          "internalType": "address",
          "name": "owner",
          "type": "address"
        },
        {
          "indexed": true,
          "internalType": "address",
          "name": "spender",
          "type": "address"
        },
        {
          "indexed": false,
          "internalType": "uint256",
          "name": "value",
          "type": "uint256"
        }
      ],
      "name": "Approval",
      "type": "event"
    },
    {
      "anonymous": false,
      "inputs": [
        {
          "indexed": true,
          "internalType": "bytes32",
          "name": "role",
          "type": "bytes32"
        },
        {
          "indexed": true,
          "internalType": "bytes32",
          "name": "previousAdminRole",
          "type": "bytes32"
        },
        {
          "indexed": true,
          "internalType": "bytes32",
          "name": "newAdminRole",
          "type": "bytes32"
        }
      ],
      "name": "RoleAdminChanged",
      "type": "event"
    },
    {
      "anonymous": false,
      "inputs": [
        {
          "indexed": true,
          "internalType": "bytes32",
          "name": "role",
          "type": "bytes32"
        },
        {
          "indexed": true,
          "internalType": "address",
          "name": "account",
          "type": "address"
        },
        {
          "indexed": true,
          "internalType": "address",
          "name": "sender",
          "type": "address"
        }
      ],
      "name": "RoleGranted",
      "type": "event"
    },
    {
      "anonymous": false,
      "inputs": [
        {
          "indexed": true,
          "internalType": "bytes32",
          "name": "role",
          "type": "bytes32"
        },
        {
          "indexed": true,
          "internalType": "address",
          "name": "account",
          "type": "address"
        },
        {
          "indexed": true,
          "internalType": "address",
          "name": "sender",
          "type": "address"
        }
      ],
      "name": "RoleRevoked",
      "type": "event"
    },
    {
      "anonymous": false,
      "inputs": [
        {
          "indexed": true,
          "internalType": "address",
          "name": "from",
          "type": "address"
        },
        {
          "indexed": true,
          "internalType": "address",
          "name": "to",
          "type": "address"
        },
        {
          "indexed": false,
          "internalType": "uint256",
          "name": "value",
          "type": "uint256"
        }
      ],
      "name": "Transfer",
      "type": "event"
    },
    {
      "inputs": [],
      "name": "DEFAULT_ADMIN_ROLE",
      "outputs": [
        {
          "internalType": "bytes32",
          "name": "",
          "type": "bytes32"
        }
      ],
      "stateMutability": "view",
      "type": "function"
    },
    {
      "inputs": [],
      "name": "MANAGER_ROLE",
      "outputs": [
        {
          "internalType": "bytes32",
          "name": "",
          "type": "bytes32"
        }
      ],
      "stateMutability": "view",
      "type": "function"
    },
    {
      "inputs": [
        {
          "internalType": "address",
          "name": "owner",
          "type": "address"
        },
        {
          "internalType": "address",
          "name": "spender",
          "type": "address"
        }
      ],
      "name": "allowance",
      "outputs": [
        {
          "internalType": "uint256",
          "name": "",
          "type": "uint256"
        }
      ],
      "stateMutability": "view",
      "type": "function"
    },
    {
      "inputs": [
        {
          "internalType": "address",
          "name": "spender",
          "type": "address"
        },
        {
          "internalType": "uint256",
          "name": "amount",
          "type": "uint256"
        }
      ],
      "name": "approve",
      "outputs": [
        {
          "internalType": "bool",
          "name": "",
          "type": "bool"
        }
      ],
      "stateMutability": "nonpayable",
      "type": "function"
    },
    {
      "inputs": [
        {
          "internalType": "address",
          "name": "account",
          "type": "address"
        }
      ],
      "name": "balanceOf",
      "outputs": [
        {
          "internalType": "uint256",
          "name": "",
          "type": "uint256"
        }
      ],
      "stateMutability": "view",
      "type": "function"
    },
    {
      "inputs": [
        {
          "internalType": "address",
          "name": "from",
          "type": "address"
        },
        {
          "internalType": "uint256",
          "name": "amount",
          "type": "uint256"
        }
      ],
      "name": "burn",
      "outputs": [],
      "stateMutability": "nonpayable",
      "type": "function"
    },
    {
      "inputs": [],
      "name": "decimals",
      "outputs": [
        {
          "internalType": "uint8",
          "name": "",
          "type": "uint8"
        }
      ],
      "stateMutability": "view",
      "type": "function"
    },
    {
      "inputs": [
        {
          "internalType": "address",
          "name": "spender",
          "type": "address"
        },
        {
          "internalType": "uint256",
          "name": "subtractedValue",
          "type": "uint256"
        }
      ],
      "name": "decreaseAllowance",
      "outputs": [
        {
          "internalType": "bool",
          "name": "",
          "type": "bool"
        }
      ],
      "stateMutability": "nonpayable",
      "type": "function"
    },
    {
      "inputs": [
        {
          "internalType": "bytes32",
          "name": "role",
          "type": "bytes32"
        }
      ],
      "name": "getRoleAdmin",
      "outputs": [
        {
          "internalType": "bytes32",
          "name": "",
          "type": "bytes32"
        }
      ],
      "stateMutability": "view",
      "type": "function"
    },
    {
      "inputs": [
        {
          "internalType": "bytes32",
          "name": "role",
          "type": "bytes32"
        },
        {
          "internalType": "address",
          "name": "account",
          "type": "address"
        }
      ],
      "name": "grantRole",
      "outputs": [],
      "stateMutability": "nonpayable",
      "type": "function"
    },
    {
      "inputs": [
        {
          "internalType": "bytes32",
          "name": "role",
          "type": "bytes32"
        },
        {
          "internalType": "address",
          "name": "account",
          "type": "address"
        }
      ],
      "name": "hasRole",
      "outputs": [
        {
          "internalType": "bool",
          "name": "",
          "type": "bool"
        }
      ],
      "stateMutability": "view",
      "type": "function"
    },
    {
      "inputs": [
        {
          "internalType": "address",
          "name": "spender",
          "type": "address"
        },
        {
          "internalType": "uint256",
          "name": "addedValue",
          "type": "uint256"
        }
      ],
      "name": "increaseAllowance",
      "outputs": [
        {
          "internalType": "bool",
          "name": "",
          "type": "bool"
        }
      ],
      "stateMutability": "nonpayable",
      "type": "function"
    },
    {
      "inputs": [
        {
          "internalType": "address",
          "name": "account",
          "type": "address"
        }
      ],
      "name": "isManager",
      "outputs": [
        {
          "internalType": "bool",
          "name": "",
          "type": "bool"
        }
      ],
      "stateMutability": "view",
      "type": "function"
    },
    {
      "inputs": [
        {
          "internalType": "address",
          "name": "to",
          "type": "address"
        },
        {
          "internalType": "uint256",
          "name": "amount",
          "type": "uint256"
        }
      ],
      "name": "mint",
      "outputs": [],
      "stateMutability": "nonpayable",
      "type": "function"
    },
    {
      "inputs": [],
      "name": "name",
      "outputs": [
        {
          "internalType": "string",
          "name": "",
          "type": "string"
        }
      ],
      "stateMutability": "view",
      "type": "function"
    },
    {
      "inputs": [
        {
          "internalType": "bytes32",
          "name": "role",
          "type": "bytes32"
        },
        {
          "internalType": "address",
          "name": "account",
          "type": "address"
        }
      ],
      "name": "renounceRole",
      "outputs": [],
      "stateMutability": "nonpayable",
      "type": "function"
    },
    {
      "inputs": [
        {
          "internalType": "address",
          "name": "account",
          "type": "address"
        }
      ],
      "name": "revokeManager",
      "outputs": [],
      "stateMutability": "nonpayable",
      "type": "function"
    },
    {
      "inputs": [
        {
          "internalType": "bytes32",
          "name": "role",
          "type": "bytes32"
        },
        {
          "internalType": "address",
          "name": "account",
          "type": "address"
        }
      ],
      "name": "revokeRole",
      "outputs": [],
      "stateMutability": "nonpayable",
      "type": "function"
    },
    {
      "inputs": [
        {
          "internalType": "address",
          "name": "account",
          "type": "address"
        }
      ],
      "name": "setManager",
      "outputs": [],
      "stateMutability": "nonpayable",
      "type": "function"
    },
    {
      "inputs": [
        {
          "internalType": "bytes4",
          "name": "interfaceId",
          "type": "bytes4"
        }
      ],
      "name": "supportsInterface",
      "outputs": [
        {
          "internalType": "bool",
          "name": "",
          "type": "bool"
        }
      ],
      "stateMutability": "view",
      "type": "function"
    },
    {
      "inputs": [],
      "name": "symbol",
      "outputs": [
        {
          "internalType": "string",
          "name": "",
          "type": "string"
        }
      ],
      "stateMutability": "view",
      "type": "function"
    },
    {
      "inputs": [],
      "name": "totalSupply",
      "outputs": [
        {
          "internalType": "uint256",
          "name": "",
          "type": "uint256"
        }
      ],
      "stateMutability": "view",
      "type": "function"
    },
    {
      "inputs": [
        {
          "internalType": "address",
          "name": "to",
          "type": "address"
        },
        {
          "internalType": "uint256",
          "name": "amount",
          "type": "uint256"
        }
      ],
      "name": "transfer",
      "outputs": [
        {
          "internalType": "bool",
          "name": "",
          "type": "bool"
        }
      ],
      "stateMutability": "nonpayable",
      "type": "function"
    },
    {
      "inputs": [
        {
          "internalType": "address",
          "name": "from",
          "type": "address"
        },
        {
          "internalType": "address",
          "name": "to",
          "type": "address"
        },
        {
          "internalType": "uint256",
          "name": "amount",
          "type": "uint256"
        }
      ],
      "name": "transferFrom",
      "outputs": [
        {
          "internalType": "bool",
          "name": "",
          "type": "bool"
        }
      ],
      "stateMutability": "nonpayable",
      "type": "function"
    }
  ],
  "bytecode": "0x60806040523480156200001157600080fd5b506040518060400160405280600981526020017f45717569587461746500000000000000000000000000000000000000000000008152506040518060400160405280600581526020017f457175695800000000000000000000000000000000000000000000000000000081525081600390816200008f91906200049e565b508060049081620000a191906200049e565b505050620000b96000801b33620000bf60201b60201c565b62000585565b620000d18282620001b160201b60201c565b620001ad5760016005600084815260200190815260200160002060000160008373ffffffffffffffffffffffffffffffffffffffff1673ffffffffffffffffffffffffffffffffffffffff16815260200190815260200160002060006101000a81548160ff021916908315150217905550620001526200021c60201b60201c565b73ffffffffffffffffffffffffffffffffffffffff168173ffffffffffffffffffffffffffffffffffffffff16837f2f8788117e7eff1d82e926ec794901d17c78024a50270940304540a733656f0d60405160405180910390a45b5050565b60006005600084815260200190815260200160002060000160008373ffffffffffffffffffffffffffffffffffffffff1673ffffffffffffffffffffffffffffffffffffffff16815260200190815260200160002060009054906101000a900460ff16905092915050565b600033905090565b600081519050919050565b7f4e487b7100000000000000000000000000000000000000000000000000000000600052604160045260246000fd5b7f4e487b7100000000000000000000000000000000000000000000000000000000600052602260045260246000fd5b60006002820490506001821680620002a657607f821691505b602082108103620002bc57620002bb6200025e565b5b50919050565b60008190508160005260206000209050919050565b60006020601f8301049050919050565b600082821b905092915050565b600060088302620003267fffffffffffffffffffffffffffffffffffffffffffffffffffffffffffffffff82620002e7565b620003328683620002e7565b95508019841693508086168417925050509392505050565b6000819050919050565b6000819050919050565b60006200037f6200037962000373846200034a565b62000354565b6200034a565b9050919050565b6000819050919050565b6200039b836200035e565b620003b3620003aa8262000386565b848454620002f4565b825550505050565b600090565b620003ca620003bb565b620003d781848462000390565b505050565b5b81811015620003ff57620003f3600082620003c0565b600181019050620003dd565b5050565b601f8211156200044e576200041881620002c2565b6200042384620002d7565b8101602085101562000433578190505b6200044b6200044285620002d7565b830182620003dc565b50505b505050565b600082821c905092915050565b6000620004736000198460080262000453565b1980831691505092915050565b60006200048e838362000460565b9150826002028217905092915050565b620004a98262000224565b67ffffffffffffffff811115620004c557620004c46200022f565b5b620004d182546200028d565b620004de82828562000403565b600060209050601f83116001811462000516576000841562000501578287015190505b6200050d858262000480565b8655506200057d565b601f1984166200052686620002c2565b60005b82811015620005505784890151825560018201915060208501945060208101905062000529565b868310156200057057848901516200056c601f89168262000460565b8355505b6001600288020188555050505b505050505050565b61269280620005956000396000f3fe608060405234801561001057600080fd5b50600436106101585760003560e01c806370a08231116100c3578063a9059cbb1161007c578063a9059cbb146103ff578063d0ebdbe71461042f578063d547741f1461044b578063dd62ed3e14610467578063ec87621c14610497578063f3ae2415146104b557610158565b806370a082311461031757806391d148541461034757806395d89b41146103775780639dc29fac14610395578063a217fddf146103b1578063a457c2d7146103cf57610158565b80632f2ff15d116101155780632f2ff15d14610259578063313ce5671461027557806336568abe14610293578063377e32e6146102af57806339509351146102cb57806340c10f19146102fb57610158565b806301ffc9a71461015d57806306fdde031461018d578063095ea7b3146101ab57806318160ddd146101db57806323b872dd146101f9578063248a9ca314610229575b600080fd5b61017760048036038101906101729190611919565b6104e5565b6040516101849190611961565b60405180910390f35b61019561055f565b6040516101a29190611a0c565b60405180910390f35b6101c560048036038101906101c09190611ac2565b6105f1565b6040516101d29190611961565b60405180910390f35b6101e3610614565b6040516101f09190611b11565b60405180910390f35b610213600480360381019061020e9190611b2c565b61061e565b6040516102209190611961565b60405180910390f35b610243600480360381019061023e9190611bb5565b61064d565b6040516102509190611bf1565b60405180910390f35b610273600480360381019061026e9190611c0c565b61066d565b005b61027d61068e565b60405161028a9190611c68565b60405180910390f35b6102ad60048036038101906102a89190611c0c565b610697565b005b6102c960048036038101906102c49190611c83565b61071a565b005b6102e560048036038101906102e09190611ac2565b610755565b6040516102f29190611961565b60405180910390f35b61031560048036038101906103109190611ac2565b61078c565b005b610331600480360381019061032c9190611c83565b6107c5565b60405161033e9190611b11565b60405180910390f35b610361600480360381019061035c9190611c0c565b61080d565b60405161036e9190611961565b60405180910390f35b61037f610878565b60405161038c9190611a0c565b60405180910390f35b6103af60048036038101906103aa9190611ac2565b61090a565b005b6103b9610943565b6040516103c69190611bf1565b60405180910390f35b6103e960048036038101906103e49190611ac2565b61094a565b6040516103f69190611961565b60405180910390f35b61041960048036038101906104149190611ac2565b6109c1565b6040516104269190611961565b60405180910390f35b61044960048036038101906104449190611c83565b6109e4565b005b61046560048036038101906104609190611c0c565b610a8e565b005b610481600480360381019061047c9190611cb0565b610aaf565b60405161048e9190611b11565b60405180910390f35b61049f610b36565b6040516104ac9190611bf1565b60405180910390f35b6104cf60048036038101906104ca9190611c83565b610b5a565b6040516104dc9190611961565b60405180910390f35b60007f7965db0b000000000000000000000000000000000000000000000000000000007bffffffffffffffffffffffffffffffffffffffffffffffffffffffff1916827bffffffffffffffffffffffffffffffffffffffffffffffffffffffff19161480610558575061055782610b8d565b5b9050919050565b60606003805461056e90611d1f565b80601f016020809104026020016040519081016040528092919081815260200182805461059a90611d1f565b80156105e75780601f106105bc576101008083540402835291602001916105e7565b820191906000526020600020905b8154815290600101906020018083116105ca57829003601f168201915b5050505050905090565b6000806105fc610bf7565b9050610609818585610bff565b600191505092915050565b6000600254905090565b600080610629610bf7565b9050610636858285610dc8565b610641858585610e54565b60019150509392505050565b600060056000838152602001908152602001600020600101549050919050565b6106768261064d565b61067f816110ca565b61068983836110de565b505050565b60006012905090565b61069f610bf7565b73ffffffffffffffffffffffffffffffffffffffff168173ffffffffffffffffffffffffffffffffffffffff161461070c576040517f08c379a000000000000000000000000000000000000000000000000000000000815260040161070390611dc2565b60405180910390fd5b61071682826111bf565b5050565b6000801b610727816110ca565b6107517f241ecf16d79d0f8dbfb92cbc07fe17840425976cf0667f022fe9877caa831b08836111bf565b5050565b600080610760610bf7565b90506107818185856107728589610aaf565b61077c9190611e11565b610bff565b600191505092915050565b7f241ecf16d79d0f8dbfb92cbc07fe17840425976cf0667f022fe9877caa831b086107b6816110ca565b6107c083836112a1565b505050565b60008060008373ffffffffffffffffffffffffffffffffffffffff1673ffffffffffffffffffffffffffffffffffffffff168152602001908152602001600020549050919050565b60006005600084815260200190815260200160002060000160008373ffffffffffffffffffffffffffffffffffffffff1673ffffffffffffffffffffffffffffffffffffffff16815260200190815260200160002060009054906101000a900460ff16905092915050565b60606004805461088790611d1f565b80601f01602080910402602001604051908101604052809291908181526020018280546108b390611d1f565b80156109005780601f106108d557610100808354040283529160200191610900565b820191906000526020600020905b8154815290600101906020018083116108e357829003601f168201915b5050505050905090565b7f241ecf16d79d0f8dbfb92cbc07fe17840425976cf0667f022fe9877caa831b08610934816110ca565b61093e83836113f7565b505050565b6000801b81565b600080610955610bf7565b905060006109638286610aaf565b9050838110156109a8576040517f08c379a000000000000000000000000000000000000000000000000000000000815260040161099f90611eb7565b60405180910390fd5b6109b58286868403610bff565b60019250505092915050565b6000806109cc610bf7565b90506109d9818585610e54565b600191505092915050565b6000801b6109f1816110ca565b600073ffffffffffffffffffffffffffffffffffffffff168273ffffffffffffffffffffffffffffffffffffffff1603610a60576040517f08c379a0000000000000000000000000000000000000000000000000000000008152600401610a5790611f23565b60405180910390fd5b610a8a7f241ecf16d79d0f8dbfb92cbc07fe17840425976cf0667f022fe9877caa831b08836110de565b5050565b610a978261064d565b610aa0816110ca565b610aaa83836111bf565b505050565b6000600160008473ffffffffffffffffffffffffffffffffffffffff1673ffffffffffffffffffffffffffffffffffffffff16815260200190815260200160002060008373ffffffffffffffffffffffffffffffffffffffff1673ffffffffffffffffffffffffffffffffffffffff16815260200190815260200160002054905092915050565b7f241ecf16d79d0f8dbfb92cbc07fe17840425976cf0667f022fe9877caa831b0881565b6000610b867f241ecf16d79d0f8dbfb92cbc07fe17840425976cf0667f022fe9877caa831b088361080d565b9050919050565b60007f01ffc9a7000000000000000000000000000000000000000000000000000000007bffffffffffffffffffffffffffffffffffffffffffffffffffffffff1916827bffffffffffffffffffffffffffffffffffffffffffffffffffffffff1916149050919050565b600033905090565b600073ffffffffffffffffffffffffffffffffffffffff168373ffffffffffffffffffffffffffffffffffffffff1603610c6e576040517f08c379a0000000000000000000000000000000000000000000000000000000008152600401610c6590611fb5565b60405180910390fd5b600073ffffffffffffffffffffffffffffffffffffffff168273ffffffffffffffffffffffffffffffffffffffff1603610cdd576040517f08c379a0000000000000000000000000000000000000000000000000000000008152600401610cd490612047565b60405180910390fd5b80600160008573ffffffffffffffffffffffffffffffffffffffff1673ffffffffffffffffffffffffffffffffffffffff16815260200190815260200160002060008473ffffffffffffffffffffffffffffffffffffffff1673ffffffffffffffffffffffffffffffffffffffff168152602001908152602001600020819055508173ffffffffffffffffffffffffffffffffffffffff168373ffffffffffffffffffffffffffffffffffffffff167f8c5be1e5ebec7d5bd14f71427d1e84f3dd0314c0f7b2291e5b200ac8c7c3b92583604051610dbb9190611b11565b60405180910390a3505050565b6000610dd48484610aaf565b90507fffffffffffffffffffffffffffffffffffffffffffffffffffffffffffffffff8114610e4e5781811015610e40576040517f08c379a0000000000000000000000000000000000000000000000000000000008152600401610e37906120b3565b60405180910390fd5b610e4d8484848403610bff565b5b50505050565b600073ffffffffffffffffffffffffffffffffffffffff168373ffffffffffffffffffffffffffffffffffffffff1603610ec3576040517f08c379a0000000000000000000000000000000000000000000000000000000008152600401610eba90612145565b60405180910390fd5b600073ffffffffffffffffffffffffffffffffffffffff168273ffffffffffffffffffffffffffffffffffffffff1603610f32576040517f08c379a0000000000000000000000000000000000000000000000000000000008152600401610f29906121d7565b60405180910390fd5b610f3d8383836115c4565b60008060008573ffffffffffffffffffffffffffffffffffffffff1673ffffffffffffffffffffffffffffffffffffffff16815260200190815260200160002054905081811015610fc3576040517f08c379a0000000000000000000000000000000000000000000000000000000008152600401610fba90612269565b60405180910390fd5b8181036000808673ffffffffffffffffffffffffffffffffffffffff1673ffffffffffffffffffffffffffffffffffffffff16815260200190815260200160002081905550816000808573ffffffffffffffffffffffffffffffffffffffff1673ffffffffffffffffffffffffffffffffffffffff168152602001908152602001600020600082825401925050819055508273ffffffffffffffffffffffffffffffffffffffff168473ffffffffffffffffffffffffffffffffffffffff167fddf252ad1be2c89b69c2b068fc378daa952ba7f163c4a11628f55a4df523b3ef846040516110b19190611b11565b60405180910390a36110c48484846115c9565b50505050565b6110db816110d6610bf7565b6115ce565b50565b6110e8828261080d565b6111bb5760016005600084815260200190815260200160002060000160008373ffffffffffffffffffffffffffffffffffffffff1673ffffffffffffffffffffffffffffffffffffffff16815260200190815260200160002060006101000a81548160ff021916908315150217905550611160610bf7565b73ffffffffffffffffffffffffffffffffffffffff168173ffffffffffffffffffffffffffffffffffffffff16837f2f8788117e7eff1d82e926ec794901d17c78024a50270940304540a733656f0d60405160405180910390a45b5050565b6111c9828261080d565b1561129d5760006005600084815260200190815260200160002060000160008373ffffffffffffffffffffffffffffffffffffffff1673ffffffffffffffffffffffffffffffffffffffff16815260200190815260200160002060006101000a81548160ff021916908315150217905550611242610bf7565b73ffffffffffffffffffffffffffffffffffffffff168173ffffffffffffffffffffffffffffffffffffffff16837ff6391f5c32d9c69d2a47ea670b442974b53935d1edc7fd64eb21e047a839171b60405160405180910390a45b5050565b600073ffffffffffffffffffffffffffffffffffffffff168273ffffffffffffffffffffffffffffffffffffffff1603611310576040517f08c379a0000000000000000000000000000000000000000000000000000000008152600401611307906122d5565b60405180910390fd5b61131c600083836115c4565b806002600082825461132e9190611e11565b92505081905550806000808473ffffffffffffffffffffffffffffffffffffffff1673ffffffffffffffffffffffffffffffffffffffff168152602001908152602001600020600082825401925050819055508173ffffffffffffffffffffffffffffffffffffffff16600073ffffffffffffffffffffffffffffffffffffffff167fddf252ad1be2c89b69c2b068fc378daa952ba7f163c4a11628f55a4df523b3ef836040516113df9190611b11565b60405180910390a36113f3600083836115c9565b5050565b600073ffffffffffffffffffffffffffffffffffffffff168273ffffffffffffffffffffffffffffffffffffffff1603611466576040517f08c379a000000000000000000000000000000000000000000000000000000000815260040161145d90612367565b60405180910390fd5b611472826000836115c4565b60008060008473ffffffffffffffffffffffffffffffffffffffff1673ffffffffffffffffffffffffffffffffffffffff168152602001908152602001600020549050818110156114f8576040517f08c379a00000000000000000000000000000000000000000000000000000000081526004016114ef906123f9565b60405180910390fd5b8181036000808573ffffffffffffffffffffffffffffffffffffffff1673ffffffffffffffffffffffffffffffffffffffff1681526020019081526020016000208190555081600260008282540392505081905550600073ffffffffffffffffffffffffffffffffffffffff168373ffffffffffffffffffffffffffffffffffffffff167fddf252ad1be2c89b69c2b068fc378daa952ba7f163c4a11628f55a4df523b3ef846040516115ab9190611b11565b60405180910390a36115bf836000846115c9565b505050565b505050565b505050565b6115d8828261080d565b61164f576115e581611653565b6115f38360001c6020611680565b6040516020016116049291906124ed565b6040516020818303038152906040526040517f08c379a00000000000000000000000000000000000000000000000000000000081526004016116469190611a0c565b60405180910390fd5b5050565b60606116798273ffffffffffffffffffffffffffffffffffffffff16601460ff16611680565b9050919050565b6060600060028360026116939190612527565b61169d9190611e11565b67ffffffffffffffff8111156116b6576116b5612569565b5b6040519080825280601f01601f1916602001820160405280156116e85781602001600182028036833780820191505090505b5090507f3000000000000000000000000000000000000000000000000000000000000000816000815181106117205761171f612598565b5b60200101907effffffffffffffffffffffffffffffffffffffffffffffffffffffffffffff1916908160001a9053507f78000000000000000000000000000000000000000000000000000000000000008160018151811061178457611783612598565b5b60200101907effffffffffffffffffffffffffffffffffffffffffffffffffffffffffffff1916908160001a905350600060018460026117c49190612527565b6117ce9190611e11565b90505b600181111561186e577f3031323334353637383961626364656600000000000000000000000000000000600f8616601081106118105761180f612598565b5b1a60f81b82828151811061182757611826612598565b5b60200101907effffffffffffffffffffffffffffffffffffffffffffffffffffffffffffff1916908160001a905350600485901c945080611867906125c7565b90506117d1565b50600084146118b2576040517f08c379a00000000000000000000000000000000000000000000000000000000081526004016118a99061263c565b60405180910390fd5b8091505092915050565b600080fd5b60007fffffffff0000000000000000000000000000000000000000000000000000000082169050919050565b6118f6816118c1565b811461190157600080fd5b50565b600081359050611913816118ed565b92915050565b60006020828403121561192f5761192e6118bc565b5b600061193d84828501611904565b91505092915050565b60008115159050919050565b61195b81611946565b82525050565b60006020820190506119766000830184611952565b92915050565b600081519050919050565b600082825260208201905092915050565b60005b838110156119b657808201518184015260208101905061199b565b60008484015250505050565b6000601f19601f8301169050919050565b60006119de8261197c565b6119e88185611987565b93506119f8818560208601611998565b611a01816119c2565b840191505092915050565b60006020820190508181036000830152611a2681846119d3565b905092915050565b600073ffffffffffffffffffffffffffffffffffffffff82169050919050565b6000611a5982611a2e565b9050919050565b611a6981611a4e565b8114611a7457600080fd5b50565b600081359050611a8681611a60565b92915050565b6000819050919050565b611a9f81611a8c565b8114611aaa57600080fd5b50565b600081359050611abc81611a96565b92915050565b60008060408385031215611ad957611ad86118bc565b5b6000611ae785828601611a77565b9250506020611af885828601611aad565b9150509250929050565b611b0b81611a8c565b82525050565b6000602082019050611b266000830184611b02565b92915050565b600080600060608486031215611b4557611b446118bc565b5b6000611b5386828701611a77565b9350506020611b6486828701611a77565b9250506040611b7586828701611aad565b9150509250925092565b6000819050919050565b611b9281611b7f565b8114611b9d57600080fd5b50565b600081359050611baf81611b89565b92915050565b600060208284031215611bcb57611bca6118bc565b5b6000611bd984828501611ba0565b91505092915050565b611beb81611b7f565b82525050565b6000602082019050611c066000830184611be2565b92915050565b60008060408385031215611c2357611c226118bc565b5b6000611c3185828601611ba0565b9250506020611c4285828601611a77565b9150509250929050565b600060ff82169050919050565b611c6281611c4c565b82525050565b6000602082019050611c7d6000830184611c59565b92915050565b600060208284031215611c9957611c986118bc565b5b6000611ca784828501611a77565b91505092915050565b60008060408385031215611cc757611cc66118bc565b5b6000611cd585828601611a77565b9250506020611ce685828601611a77565b9150509250929050565b7f4e487b7100000000000000000000000000000000000000000000000000000000600052602260045260246000fd5b60006002820490506001821680611d3757607f821691505b602082108103611d4a57611d49611cf0565b5b50919050565b7f416363657373436f6e74726f6c3a2063616e206f6e6c792072656e6f756e636560008201527f20726f6c657320666f722073656c660000000000000000000000000000000000602082015250565b6000611dac602f83611987565b9150611db782611d50565b604082019050919050565b60006020820190508181036000830152611ddb81611d9f565b9050919050565b7f4e487b7100000000000000000000000000000000000000000000000000000000600052601160045260246000fd5b6000611e1c82611a8c565b9150611e2783611a8c565b9250828201905080821115611e3f57611e3e611de2565b5b92915050565b7f45524332303a2064656372656173656420616c6c6f77616e63652062656c6f7760008201527f207a65726f000000000000000000000000000000000000000000000000000000602082015250565b6000611ea1602583611987565b9150611eac82611e45565b604082019050919050565b60006020820190508181036000830152611ed081611e94565b9050919050565b7f496e76616c6964206d616e616765722061646472657373000000000000000000600082015250565b6000611f0d601783611987565b9150611f1882611ed7565b602082019050919050565b60006020820190508181036000830152611f3c81611f00565b9050919050565b7f45524332303a20617070726f76652066726f6d20746865207a65726f2061646460008201527f7265737300000000000000000000000000000000000000000000000000000000602082015250565b6000611f9f602483611987565b9150611faa82611f43565b604082019050919050565b60006020820190508181036000830152611fce81611f92565b9050919050565b7f45524332303a20617070726f766520746f20746865207a65726f20616464726560008201527f7373000000000000000000000000000000000000000000000000000000000000602082015250565b6000612031602283611987565b915061203c82611fd5565b604082019050919050565b6000602082019050818103600083015261206081612024565b9050919050565b7f45524332303a20696e73756666696369656e7420616c6c6f77616e6365000000600082015250565b600061209d601d83611987565b91506120a882612067565b602082019050919050565b600060208201905081810360008301526120cc81612090565b9050919050565b7f45524332303a207472616e736665722066726f6d20746865207a65726f20616460008201527f6472657373000000000000000000000000000000000000000000000000000000602082015250565b600061212f602583611987565b915061213a826120d3565b604082019050919050565b6000602082019050818103600083015261215e81612122565b9050919050565b7f45524332303a207472616e7366657220746f20746865207a65726f206164647260008201527f6573730000000000000000000000000000000000000000000000000000000000602082015250565b60006121c1602383611987565b91506121cc82612165565b604082019050919050565b600060208201905081810360008301526121f0816121b4565b9050919050565b7f45524332303a207472616e7366657220616d6f756e742065786365656473206260008201527f616c616e63650000000000000000000000000000000000000000000000000000602082015250565b6000612253602683611987565b915061225e826121f7565b604082019050919050565b6000602082019050818103600083015261228281612246565b9050919050565b7f45524332303a206d696e7420746f20746865207a65726f206164647265737300600082015250565b60006122bf601f83611987565b91506122ca82612289565b602082019050919050565b600060208201905081810360008301526122ee816122b2565b9050919050565b7f45524332303a206275726e2066726f6d20746865207a65726f2061646472657360008201527f7300000000000000000000000000000000000000000000000000000000000000602082015250565b6000612351602183611987565b915061235c826122f5565b604082019050919050565b6000602082019050818103600083015261238081612344565b9050919050565b7f45524332303a206275726e20616d6f756e7420657863656564732062616c616e60008201527f6365000000000000000000000000000000000000000000000000000000000000602082015250565b60006123e3602283611987565b91506123ee82612387565b604082019050919050565b60006020820190508181036000830152612412816123d6565b9050919050565b600081905092915050565b7f416363657373436f6e74726f6c3a206163636f756e7420000000000000000000600082015250565b600061245a601783612419565b915061246582612424565b601782019050919050565b600061247b8261197c565b6124858185612419565b9350612495818560208601611998565b80840191505092915050565b7f206973206d697373696e6720726f6c6520000000000000000000000000000000600082015250565b60006124d7601183612419565b91506124e2826124a1565b601182019050919050565b60006124f88261244d565b91506125048285612470565b915061250f826124ca565b915061251b8284612470565b91508190509392505050565b600061253282611a8c565b915061253d83611a8c565b925082820261254b81611a8c565b9150828204841483151761256257612561611de2565b5b5092915050565b7f4e487b7100000000000000000000000000000000000000000000000000000000600052604160045260246000fd5b7f4e487b7100000000000000000000000000000000000000000000000000000000600052603260045260246000fd5b60006125d282611a8c565b9150600082036125e5576125e4611de2565b5b600182039050919050565b7f537472696e67733a20686578206c656e67746820696e73756666696369656e74600082015250565b6000612626602083611987565b9150612631826125f0565b602082019050919050565b6000602082019050818103600083015261265581612619565b905091905056fea2646970667358221220ab95cfb5ea0f1d151c2153c8ab7011b0e225d1c41a400f978b78cc2b18930dba64736f6c63430008180033",
  "linkReferences": {},
  "deployedLinkReferences": {}
}