{
  "_format": "hh-sol-artifact-1",
  "contractName": "RentModule",
  "sourceName": "contracts/RentModule.sol",
  "abi": [
    {
      "inputs": [
        {
          "internalType": "address",
          "name": "initialAddress",
          "type": "address"
        }
      ],
      "stateMutability": "nonpayable",
      "type": "constructor"
    },
    {
      "anonymous": false,
      "inputs": [
        {
          "indexed": true,
          "internalType": "address",
          "name": "previousOwner",
          "type": "address"
        },
        {
          "indexed": true,
          "internalType": "address",
          "name": "newOwner",
          "type": "address"
        }
      ],
      "name": "OwnershipTransferred",
      "type": "event"
    },
    {
      "anonymous": false,
      "inputs": [
        {
          "indexed": false,
          "internalType": "string",
          "name": "propertyId",
          "type": "string"
        },
        {
          "indexed": false,
          "internalType": "address",
          "name": "tenant",
          "type": "address"
        },
        {
          "indexed": false,
          "internalType": "uint256",
          "name": "rentAmount",
          "type": "uint256"
        }
      ],
      "name": "RentPaid",
      "type": "event"
    },
    {
      "anonymous": false,
      "inputs": [
        {
          "indexed": false,
          "internalType": "string",
          "name": "propertyId",
          "type": "string"
        },
        {
          "indexed": false,
          "internalType": "address",
          "name": "tenant",
          "type": "address"
        },
        {
          "indexed": false,
          "internalType": "uint256",
          "name": "rentAmount",
          "type": "uint256"
        },
        {
          "indexed": false,
          "internalType": "uint256",
          "name": "rentDueDate",
          "type": "uint256"
        }
      ],
      "name": "RentSet",
      "type": "event"
    },
    {
      "inputs": [],
      "name": "equiXtate",
      "outputs": [
        {
          "internalType": "contract EquiXtate",
          "name": "",
          "type": "address"
        }
      ],
      "stateMutability": "view",
      "type": "function"
    },
    {
      "inputs": [],
      "name": "owner",
      "outputs": [
        {
          "internalType": "address",
          "name": "",
          "type": "address"
        }
      ],
      "stateMutability": "view",
      "type": "function"
    },
    {
      "inputs": [
        {
          "internalType": "string",
          "name": "_propertyId",
          "type": "string"
        },
        {
          "internalType": "uint256",
          "name": "index",
          "type": "uint256"
        }
      ],
      "name": "payRent",
      "outputs": [],
      "stateMutability": "nonpayable",
      "type": "function"
    },
    {
      "inputs": [],
      "name": "renounceOwnership",
      "outputs": [],
      "stateMutability": "nonpayable",
      "type": "function"
    },
    {
      "inputs": [
        {
          "internalType": "bytes32",
          "name": "",
          "type": "bytes32"
        },
        {
          "internalType": "uint256",
          "name": "",
          "type": "uint256"
        }
      ],
      "name": "rentLedger",
      "outputs": [
        {
          "internalType": "string",
          "name": "propertyId",
          "type": "string"
        },
        {
          "internalType": "address",
          "name": "tenant",
          "type": "address"
        },
        {
          "internalType": "uint256",
          "name": "rentAmount",
          "type": "uint256"
        },
        {
          "internalType": "uint256",
          "name": "rentDueDate",
          "type": "uint256"
        },
        {
          "internalType": "bool",
          "name": "isPaid",
          "type": "bool"
        }
      ],
      "stateMutability": "view",
      "type": "function"
    },
    {
      "inputs": [
        {
          "internalType": "string",
          "name": "_propertyId",
          "type": "string"
        },
        {
          "internalType": "address",
          "name": "_tenant",
          "type": "address"
        },
        {
          "internalType": "uint256",
          "name": "_rentAmount",
          "type": "uint256"
        },
        {
          "internalType": "uint256",
          "name": "_daysToDue",
          "type": "uint256"
        }
      ],
      "name": "setRent",
      "outputs": [],
      "stateMutability": "nonpayable",
      "type": "function"
    },
    {
      "inputs": [
        {
          "internalType": "address",
          "name": "newOwner",
          "type": "address"
        }
      ],
      "name": "transferOwnership",
      "outputs": [],
      "stateMutability": "nonpayable",
      "type": "function"
    }
  ],
  "bytecode": "0x60806040523480156200001157600080fd5b5060405162001c2c38038062001c2c833981810160405281019062000037919062000258565b620000576200004b6200012260201b60201c565b6200012a60201b60201c565b600073ffffffffffffffffffffffffffffffffffffffff168173ffffffffffffffffffffffffffffffffffffffff1603620000c9576040517f08c379a0000000000000000000000000000000000000000000000000000000008152600401620000c090620002eb565b60405180910390fd5b80600160006101000a81548173ffffffffffffffffffffffffffffffffffffffff021916908373ffffffffffffffffffffffffffffffffffffffff1602179055506200011b816200012a60201b60201c565b506200030d565b600033905090565b60008060009054906101000a900473ffffffffffffffffffffffffffffffffffffffff169050816000806101000a81548173ffffffffffffffffffffffffffffffffffffffff021916908373ffffffffffffffffffffffffffffffffffffffff1602179055508173ffffffffffffffffffffffffffffffffffffffff168173ffffffffffffffffffffffffffffffffffffffff167f8be0079c531659141344cd1fd0a4f28419497f9722a3daafe3b4186f6b6457e060405160405180910390a35050565b600080fd5b600073ffffffffffffffffffffffffffffffffffffffff82169050919050565b60006200022082620001f3565b9050919050565b620002328162000213565b81146200023e57600080fd5b50565b600081519050620002528162000227565b92915050565b600060208284031215620002715762000270620001ee565b5b6000620002818482850162000241565b91505092915050565b600082825260208201905092915050565b7f496e76616c696420746f6b656e20616464726573730000000000000000000000600082015250565b6000620002d36015836200028a565b9150620002e0826200029b565b602082019050919050565b600060208201905081810360008301526200030681620002c4565b9050919050565b61190f806200031d6000396000f3fe608060405234801561001057600080fd5b506004361061007d5760003560e01c8063732eca7d1161005b578063732eca7d146100c65780638da5cb5b146100fa578063c98f5d3214610118578063f2fde38b146101345761007d565b8063517e64f114610082578063715018a61461009e5780637154344c146100a8575b600080fd5b61009c60048036038101906100979190610bdf565b610150565b005b6100a661046b565b005b6100b061047f565b6040516100bd9190610cba565b60405180910390f35b6100e060048036038101906100db9190610d0b565b6104a5565b6040516100f1959493929190610e15565b60405180910390f35b6101026105ad565b60405161010f9190610e6f565b60405180910390f35b610132600480360381019061012d9190610eb6565b6105d6565b005b61014e60048036038101906101499190610f39565b610852565b005b600061015b836108d5565b9050600260008281526020019081526020016000208054905082106101b5576040517f08c379a00000000000000000000000000000000000000000000000000000000081526004016101ac90610fb2565b60405180910390fd5b60006002600083815260200190815260200160002083815481106101dc576101db610fd2565b5b906000526020600020906005020190508060010160009054906101000a900473ffffffffffffffffffffffffffffffffffffffff1673ffffffffffffffffffffffffffffffffffffffff163373ffffffffffffffffffffffffffffffffffffffff161461027e576040517f08c379a00000000000000000000000000000000000000000000000000000000081526004016102759061104d565b60405180910390fd5b8060040160009054906101000a900460ff16156102d0576040517f08c379a00000000000000000000000000000000000000000000000000000000081526004016102c7906110b9565b60405180910390fd5b8060030154421115610317576040517f08c379a000000000000000000000000000000000000000000000000000000000815260040161030e90611125565b60405180910390fd5b6000600160009054906101000a900473ffffffffffffffffffffffffffffffffffffffff1673ffffffffffffffffffffffffffffffffffffffff166323b872dd336103606105ad565b85600201546040518463ffffffff1660e01b815260040161038393929190611145565b6020604051808303816000875af11580156103a2573d6000803e3d6000fd5b505050506040513d601f19601f820116820180604052508101906103c691906111a8565b905080610408576040517f08c379a00000000000000000000000000000000000000000000000000000000081526004016103ff90611221565b60405180910390fd5b60018260040160006101000a81548160ff0219169083151502179055507f103ce915983a70634cc6dd6a0fc710bf21dc1d911b8692eb42a8954150851e098533846002015460405161045c93929190611241565b60405180910390a15050505050565b610473610905565b61047d6000610983565b565b600160009054906101000a900473ffffffffffffffffffffffffffffffffffffffff1681565b600260205281600052604060002081815481106104c157600080fd5b9060005260206000209060050201600091509150508060000180546104e5906112ae565b80601f0160208091040260200160405190810160405280929190818152602001828054610511906112ae565b801561055e5780601f106105335761010080835404028352916020019161055e565b820191906000526020600020905b81548152906001019060200180831161054157829003601f168201915b5050505050908060010160009054906101000a900473ffffffffffffffffffffffffffffffffffffffff16908060020154908060030154908060040160009054906101000a900460ff16905085565b60008060009054906101000a900473ffffffffffffffffffffffffffffffffffffffff16905090565b6105de610905565b600073ffffffffffffffffffffffffffffffffffffffff168373ffffffffffffffffffffffffffffffffffffffff160361064d576040517f08c379a00000000000000000000000000000000000000000000000000000000081526004016106449061132b565b60405180910390fd5b60008211610690576040517f08c379a000000000000000000000000000000000000000000000000000000000815260040161068790611397565b60405180910390fd5b600081116106d3576040517f08c379a00000000000000000000000000000000000000000000000000000000081526004016106ca90611403565b60405180910390fd5b600062015180826106e49190611452565b426106ef9190611494565b905060006106fc866108d5565b9050600260008281526020019081526020016000206040518060a001604052808881526020018773ffffffffffffffffffffffffffffffffffffffff168152602001868152602001848152602001600015158152509080600181540180825580915050600190039060005260206000209060050201600090919091909150600082015181600001908161078f919061166a565b5060208201518160010160006101000a81548173ffffffffffffffffffffffffffffffffffffffff021916908373ffffffffffffffffffffffffffffffffffffffff160217905550604082015181600201556060820151816003015560808201518160040160006101000a81548160ff02191690831515021790555050507f6b83e89a3ae8e92187e7d9f09b06e5fd9d2177fc9d825bb9b5b9c4ac8bb0cf5286868685604051610842949392919061173c565b60405180910390a1505050505050565b61085a610905565b600073ffffffffffffffffffffffffffffffffffffffff168173ffffffffffffffffffffffffffffffffffffffff16036108c9576040517f08c379a00000000000000000000000000000000000000000000000000000000081526004016108c0906117fa565b60405180910390fd5b6108d281610983565b50565b6000816040516020016108e89190611856565b604051602081830303815290604052805190602001209050919050565b61090d610a47565b73ffffffffffffffffffffffffffffffffffffffff1661092b6105ad565b73ffffffffffffffffffffffffffffffffffffffff1614610981576040517f08c379a0000000000000000000000000000000000000000000000000000000008152600401610978906118b9565b60405180910390fd5b565b60008060009054906101000a900473ffffffffffffffffffffffffffffffffffffffff169050816000806101000a81548173ffffffffffffffffffffffffffffffffffffffff021916908373ffffffffffffffffffffffffffffffffffffffff1602179055508173ffffffffffffffffffffffffffffffffffffffff168173ffffffffffffffffffffffffffffffffffffffff167f8be0079c531659141344cd1fd0a4f28419497f9722a3daafe3b4186f6b6457e060405160405180910390a35050565b600033905090565b6000604051905090565b600080fd5b600080fd5b600080fd5b600080fd5b6000601f19601f8301169050919050565b7f4e487b7100000000000000000000000000000000000000000000000000000000600052604160045260246000fd5b610ab682610a6d565b810181811067ffffffffffffffff82111715610ad557610ad4610a7e565b5b80604052505050565b6000610ae8610a4f565b9050610af48282610aad565b919050565b600067ffffffffffffffff821115610b1457610b13610a7e565b5b610b1d82610a6d565b9050602081019050919050565b82818337600083830152505050565b6000610b4c610b4784610af9565b610ade565b905082815260208101848484011115610b6857610b67610a68565b5b610b73848285610b2a565b509392505050565b600082601f830112610b9057610b8f610a63565b5b8135610ba0848260208601610b39565b91505092915050565b6000819050919050565b610bbc81610ba9565b8114610bc757600080fd5b50565b600081359050610bd981610bb3565b92915050565b60008060408385031215610bf657610bf5610a59565b5b600083013567ffffffffffffffff811115610c1457610c13610a5e565b5b610c2085828601610b7b565b9250506020610c3185828601610bca565b9150509250929050565b600073ffffffffffffffffffffffffffffffffffffffff82169050919050565b6000819050919050565b6000610c80610c7b610c7684610c3b565b610c5b565b610c3b565b9050919050565b6000610c9282610c65565b9050919050565b6000610ca482610c87565b9050919050565b610cb481610c99565b82525050565b6000602082019050610ccf6000830184610cab565b92915050565b6000819050919050565b610ce881610cd5565b8114610cf357600080fd5b50565b600081359050610d0581610cdf565b92915050565b60008060408385031215610d2257610d21610a59565b5b6000610d3085828601610cf6565b9250506020610d4185828601610bca565b9150509250929050565b600081519050919050565b600082825260208201905092915050565b60005b83811015610d85578082015181840152602081019050610d6a565b60008484015250505050565b6000610d9c82610d4b565b610da68185610d56565b9350610db6818560208601610d67565b610dbf81610a6d565b840191505092915050565b6000610dd582610c3b565b9050919050565b610de581610dca565b82525050565b610df481610ba9565b82525050565b60008115159050919050565b610e0f81610dfa565b82525050565b600060a0820190508181036000830152610e2f8188610d91565b9050610e3e6020830187610ddc565b610e4b6040830186610deb565b610e586060830185610deb565b610e656080830184610e06565b9695505050505050565b6000602082019050610e846000830184610ddc565b92915050565b610e9381610dca565b8114610e9e57600080fd5b50565b600081359050610eb081610e8a565b92915050565b60008060008060808587031215610ed057610ecf610a59565b5b600085013567ffffffffffffffff811115610eee57610eed610a5e565b5b610efa87828801610b7b565b9450506020610f0b87828801610ea1565b9350506040610f1c87828801610bca565b9250506060610f2d87828801610bca565b91505092959194509250565b600060208284031215610f4f57610f4e610a59565b5b6000610f5d84828501610ea1565b91505092915050565b7f496e76616c696420696e64657800000000000000000000000000000000000000600082015250565b6000610f9c600d83610d56565b9150610fa782610f66565b602082019050919050565b60006020820190508181036000830152610fcb81610f8f565b9050919050565b7f4e487b7100000000000000000000000000000000000000000000000000000000600052603260045260246000fd5b7f4e6f74207468652074656e616e74000000000000000000000000000000000000600082015250565b6000611037600e83610d56565b915061104282611001565b602082019050919050565b600060208201905081810360008301526110668161102a565b9050919050565b7f416c726561647920706169640000000000000000000000000000000000000000600082015250565b60006110a3600c83610d56565b91506110ae8261106d565b602082019050919050565b600060208201905081810360008301526110d281611096565b9050919050565b7f52656e74206973206f7665726475650000000000000000000000000000000000600082015250565b600061110f600f83610d56565b915061111a826110d9565b602082019050919050565b6000602082019050818103600083015261113e81611102565b9050919050565b600060608201905061115a6000830186610ddc565b6111676020830185610ddc565b6111746040830184610deb565b949350505050565b61118581610dfa565b811461119057600080fd5b50565b6000815190506111a28161117c565b92915050565b6000602082840312156111be576111bd610a59565b5b60006111cc84828501611193565b91505092915050565b7f5472616e73666572206661696c65640000000000000000000000000000000000600082015250565b600061120b600f83610d56565b9150611216826111d5565b602082019050919050565b6000602082019050818103600083015261123a816111fe565b9050919050565b6000606082019050818103600083015261125b8186610d91565b905061126a6020830185610ddc565b6112776040830184610deb565b949350505050565b7f4e487b7100000000000000000000000000000000000000000000000000000000600052602260045260246000fd5b600060028204905060018216806112c657607f821691505b6020821081036112d9576112d861127f565b5b50919050565b7f496e76616c69642074656e616e74000000000000000000000000000000000000600082015250565b6000611315600e83610d56565b9150611320826112df565b602082019050919050565b6000602082019050818103600083015261134481611308565b9050919050565b7f52656e74206d757374206265203e203000000000000000000000000000000000600082015250565b6000611381601083610d56565b915061138c8261134b565b602082019050919050565b600060208201905081810360008301526113b081611374565b9050919050565b7f4475726174696f6e206d757374206265203e2030000000000000000000000000600082015250565b60006113ed601483610d56565b91506113f8826113b7565b602082019050919050565b6000602082019050818103600083015261141c816113e0565b9050919050565b7f4e487b7100000000000000000000000000000000000000000000000000000000600052601160045260246000fd5b600061145d82610ba9565b915061146883610ba9565b925082820261147681610ba9565b9150828204841483151761148d5761148c611423565b5b5092915050565b600061149f82610ba9565b91506114aa83610ba9565b92508282019050808211156114c2576114c1611423565b5b92915050565b60008190508160005260206000209050919050565b60006020601f8301049050919050565b600082821b905092915050565b60006008830261152a7fffffffffffffffffffffffffffffffffffffffffffffffffffffffffffffffff826114ed565b61153486836114ed565b95508019841693508086168417925050509392505050565b600061156761156261155d84610ba9565b610c5b565b610ba9565b9050919050565b6000819050919050565b6115818361154c565b61159561158d8261156e565b8484546114fa565b825550505050565b600090565b6115aa61159d565b6115b5818484611578565b505050565b5b818110156115d9576115ce6000826115a2565b6001810190506115bb565b5050565b601f82111561161e576115ef816114c8565b6115f8846114dd565b81016020851015611607578190505b61161b611613856114dd565b8301826115ba565b50505b505050565b600082821c905092915050565b600061164160001984600802611623565b1980831691505092915050565b600061165a8383611630565b9150826002028217905092915050565b61167382610d4b565b67ffffffffffffffff81111561168c5761168b610a7e565b5b61169682546112ae565b6116a18282856115dd565b600060209050601f8311600181146116d457600084156116c2578287015190505b6116cc858261164e565b865550611734565b601f1984166116e2866114c8565b60005b8281101561170a578489015182556001820191506020850194506020810190506116e5565b868310156117275784890151611723601f891682611630565b8355505b6001600288020188555050505b505050505050565b600060808201905081810360008301526117568187610d91565b90506117656020830186610ddc565b6117726040830185610deb565b61177f6060830184610deb565b95945050505050565b7f4f776e61626c653a206e6577206f776e657220697320746865207a65726f206160008201527f6464726573730000000000000000000000000000000000000000000000000000602082015250565b60006117e4602683610d56565b91506117ef82611788565b604082019050919050565b60006020820190508181036000830152611813816117d7565b9050919050565b600081905092915050565b600061183082610d4b565b61183a818561181a565b935061184a818560208601610d67565b80840191505092915050565b60006118628284611825565b915081905092915050565b7f4f776e61626c653a2063616c6c6572206973206e6f7420746865206f776e6572600082015250565b60006118a3602083610d56565b91506118ae8261186d565b602082019050919050565b600060208201905081810360008301526118d281611896565b905091905056fea2646970667358221220db1989119c5500094dc7195a62f00f32476ee2230a776b273ce08c985fe226f364736f6c63430008180033",
  "linkReferences": {},
  "deployedLinkReferences": {}
}