{
  "_format": "hh-sol-artifact-1",
  "contractName": "BuyModule",
  "sourceName": "contracts/BuyModule.sol",
  "abi": [
    {
      "inputs": [
        {
          "internalType": "address",
          "name": "initialAddress",
          "type": "address"
        }
      ],
      "stateMutability": "nonpayable",
      "type": "constructor"
    },
    {
      "anonymous": false,
      "inputs": [
        {
          "indexed": true,
          "internalType": "address",
          "name": "previousOwner",
          "type": "address"
        },
        {
          "indexed": true,
          "internalType": "address",
          "name": "newOwner",
          "type": "address"
        }
      ],
      "name": "OwnershipTransferred",
      "type": "event"
    },
    {
      "anonymous": false,
      "inputs": [
        {
          "indexed": true,
          "internalType": "bytes32",
          "name": "propertyId",
          "type": "bytes32"
        },
        {
          "indexed": false,
          "internalType": "address",
          "name": "buyer",
          "type": "address"
        },
        {
          "indexed": false,
          "internalType": "uint256",
          "name": "price",
          "type": "uint256"
        }
      ],
      "name": "PropertyBought",
      "type": "event"
    },
    {
      "anonymous": false,
      "inputs": [
        {
          "indexed": true,
          "internalType": "bytes32",
          "name": "propertyId",
          "type": "bytes32"
        },
        {
          "indexed": false,
          "internalType": "string",
          "name": "originalId",
          "type": "string"
        },
        {
          "indexed": false,
          "internalType": "uint256",
          "name": "price",
          "type": "uint256"
        },
        {
          "indexed": false,
          "internalType": "address",
          "name": "seller",
          "type": "address"
        },
        {
          "indexed": false,
          "internalType": "uint256",
          "name": "expiresAt",
          "type": "uint256"
        }
      ],
      "name": "PropertyListedForSale",
      "type": "event"
    },
    {
      "anonymous": false,
      "inputs": [
        {
          "indexed": true,
          "internalType": "bytes32",
          "name": "propertyId",
          "type": "bytes32"
        }
      ],
      "name": "PropertyListingExpired",
      "type": "event"
    },
    {
      "inputs": [],
      "name": "MAX_EXPIRY_DURATION",
      "outputs": [
        {
          "internalType": "uint256",
          "name": "",
          "type": "uint256"
        }
      ],
      "stateMutability": "view",
      "type": "function"
    },
    {
      "inputs": [],
      "name": "MAX_ID_BYTES",
      "outputs": [
        {
          "internalType": "uint256",
          "name": "",
          "type": "uint256"
        }
      ],
      "stateMutability": "view",
      "type": "function"
    },
    {
      "inputs": [],
      "name": "MIN_EXPIRY_DURATION",
      "outputs": [
        {
          "internalType": "uint256",
          "name": "",
          "type": "uint256"
        }
      ],
      "stateMutability": "view",
      "type": "function"
    },
    {
      "inputs": [
        {
          "internalType": "string",
          "name": "_idString",
          "type": "string"
        }
      ],
      "name": "buyProperty",
      "outputs": [],
      "stateMutability": "nonpayable",
      "type": "function"
    },
    {
      "inputs": [],
      "name": "equiXtate",
      "outputs": [
        {
          "internalType": "contract EquiXtate",
          "name": "",
          "type": "address"
        }
      ],
      "stateMutability": "view",
      "type": "function"
    },
    {
      "inputs": [
        {
          "internalType": "string",
          "name": "_idString",
          "type": "string"
        },
        {
          "internalType": "uint256",
          "name": "_price",
          "type": "uint256"
        },
        {
          "internalType": "address",
          "name": "_seller",
          "type": "address"
        },
        {
          "internalType": "uint256",
          "name": "_duration",
          "type": "uint256"
        }
      ],
      "name": "listPropertyForSale",
      "outputs": [],
      "stateMutability": "nonpayable",
      "type": "function"
    },
    {
      "inputs": [
        {
          "internalType": "string",
          "name": "_idString",
          "type": "string"
        }
      ],
      "name": "markExpired",
      "outputs": [],
      "stateMutability": "nonpayable",
      "type": "function"
    },
    {
      "inputs": [],
      "name": "owner",
      "outputs": [
        {
          "internalType": "address",
          "name": "",
          "type": "address"
        }
      ],
      "stateMutability": "view",
      "type": "function"
    },
    {
      "inputs": [],
      "name": "renounceOwnership",
      "outputs": [],
      "stateMutability": "nonpayable",
      "type": "function"
    },
    {
      "inputs": [
        {
          "internalType": "bytes32",
          "name": "",
          "type": "bytes32"
        }
      ],
      "name": "sales",
      "outputs": [
        {
          "internalType": "bytes32",
          "name": "propertyId",
          "type": "bytes32"
        },
        {
          "internalType": "string",
          "name": "originalIdString",
          "type": "string"
        },
        {
          "internalType": "address",
          "name": "seller",
          "type": "address"
        },
        {
          "internalType": "address",
          "name": "buyer",
          "type": "address"
        },
        {
          "internalType": "uint256",
          "name": "price",
          "type": "uint256"
        },
        {
          "internalType": "bool",
          "name": "isSold",
          "type": "bool"
        },
        {
          "internalType": "uint256",
          "name": "expiresAt",
          "type": "uint256"
        }
      ],
      "stateMutability": "view",
      "type": "function"
    },
    {
      "inputs": [
        {
          "internalType": "address",
          "name": "newOwner",
          "type": "address"
        }
      ],
      "name": "transferOwnership",
      "outputs": [],
      "stateMutability": "nonpayable",
      "type": "function"
    }
  ],
  "bytecode": "0x60806040523480156200001157600080fd5b50604051620021413803806200214183398181016040528101906200003791906200025f565b620000576200004b6200012960201b60201c565b6200013160201b60201c565b60018081905550600073ffffffffffffffffffffffffffffffffffffffff168173ffffffffffffffffffffffffffffffffffffffff1603620000d0576040517f08c379a0000000000000000000000000000000000000000000000000000000008152600401620000c790620002f2565b60405180910390fd5b80600260006101000a81548173ffffffffffffffffffffffffffffffffffffffff021916908373ffffffffffffffffffffffffffffffffffffffff16021790555062000122816200013160201b60201c565b5062000314565b600033905090565b60008060009054906101000a900473ffffffffffffffffffffffffffffffffffffffff169050816000806101000a81548173ffffffffffffffffffffffffffffffffffffffff021916908373ffffffffffffffffffffffffffffffffffffffff1602179055508173ffffffffffffffffffffffffffffffffffffffff168173ffffffffffffffffffffffffffffffffffffffff167f8be0079c531659141344cd1fd0a4f28419497f9722a3daafe3b4186f6b6457e060405160405180910390a35050565b600080fd5b600073ffffffffffffffffffffffffffffffffffffffff82169050919050565b60006200022782620001fa565b9050919050565b62000239816200021a565b81146200024557600080fd5b50565b60008151905062000259816200022e565b92915050565b600060208284031215620002785762000277620001f5565b5b6000620002888482850162000248565b91505092915050565b600082825260208201905092915050565b7f496e76616c696420746f6b656e20616464726573730000000000000000000000600082015250565b6000620002da60158362000291565b9150620002e782620002a2565b602082019050919050565b600060208201905081810360008301526200030d81620002cb565b9050919050565b611e1d80620003246000396000f3fe608060405234801561001057600080fd5b50600436106100a95760003560e01c80638da5cb5b116100715780638da5cb5b14610146578063b250d36914610164578063ecbef16414610180578063efa8fbba1461019c578063f2fde38b146101ba578063fbefbb5e146101d6576100a9565b80630c2afd72146100ae5780634fe11c8b146100e4578063715018a6146101025780637154344c1461010c578063860ed1641461012a575b600080fd5b6100c860048036038101906100c39190610e5d565b6101f4565b6040516100db9796959493929190610f9e565b60405180910390f35b6100ec61030b565b6040516100f99190611014565b60405180910390f35b61010a610312565b005b610114610326565b604051610121919061108e565b60405180910390f35b610144600480360381019061013f9190611236565b61034c565b005b61014e6106da565b60405161015b91906112b9565b60405180910390f35b61017e600480360381019061017991906112d4565b610703565b005b61019a600480360381019061019591906112d4565b6108de565b005b6101a4610b5c565b6040516101b19190611014565b60405180910390f35b6101d460048036038101906101cf919061131d565b610b61565b005b6101de610be4565b6040516101eb9190611014565b60405180910390f35b600360205280600052604060002060009150905080600001549080600101805461021d90611379565b80601f016020809104026020016040519081016040528092919081815260200182805461024990611379565b80156102965780601f1061026b57610100808354040283529160200191610296565b820191906000526020600020905b81548152906001019060200180831161027957829003601f168201915b5050505050908060020160009054906101000a900473ffffffffffffffffffffffffffffffffffffffff16908060030160009054906101000a900473ffffffffffffffffffffffffffffffffffffffff16908060040154908060050160009054906101000a900460ff16908060060154905087565b62278d0081565b61031a610bea565b6103246000610c68565b565b600260009054906101000a900473ffffffffffffffffffffffffffffffffffffffff1681565b610354610bea565b6000845111610398576040517f08c379a000000000000000000000000000000000000000000000000000000000815260040161038f906113f6565b60405180910390fd5b600083116103db576040517f08c379a00000000000000000000000000000000000000000000000000000000081526004016103d290611462565b60405180910390fd5b600073ffffffffffffffffffffffffffffffffffffffff168273ffffffffffffffffffffffffffffffffffffffff160361044a576040517f08c379a0000000000000000000000000000000000000000000000000000000008152600401610441906114ce565b60405180910390fd5b610e10811015801561045f575062278d008111155b61049e576040517f08c379a00000000000000000000000000000000000000000000000000000000081526004016104959061153a565b60405180910390fd5b60006104a985610d2c565b905060006003600083815260200190815260200160002090508060050160009054906101000a900460ff161580156104e45750428160060154105b610523576040517f08c379a000000000000000000000000000000000000000000000000000000000815260040161051a906115a6565b60405180910390fd5b6040518060e001604052808381526020018781526020018573ffffffffffffffffffffffffffffffffffffffff168152602001600073ffffffffffffffffffffffffffffffffffffffff168152602001868152602001600015158152602001844261058e91906115f5565b815250600360008481526020019081526020016000206000820151816000015560208201518160010190816105c391906117cb565b5060408201518160020160006101000a81548173ffffffffffffffffffffffffffffffffffffffff021916908373ffffffffffffffffffffffffffffffffffffffff16021790555060608201518160030160006101000a81548173ffffffffffffffffffffffffffffffffffffffff021916908373ffffffffffffffffffffffffffffffffffffffff1602179055506080820151816004015560a08201518160050160006101000a81548160ff02191690831515021790555060c08201518160060155905050817f9f4861a41b00b1038e7179975a860e1f141e5842058fb9f6fd6a2aa8bf0ca9c887878787426106ba91906115f5565b6040516106ca949392919061189d565b60405180910390a2505050505050565b60008060009054906101000a900473ffffffffffffffffffffffffffffffffffffffff16905090565b600061070e82610d2c565b905060006003600083815260200190815260200160002090508060050160009054906101000a900460ff1615610779576040517f08c379a000000000000000000000000000000000000000000000000000000000815260040161077090611935565b60405180910390fd5b80600601544210156107c0576040517f08c379a00000000000000000000000000000000000000000000000000000000081526004016107b7906119a1565b60405180910390fd5b8060020160009054906101000a900473ffffffffffffffffffffffffffffffffffffffff1673ffffffffffffffffffffffffffffffffffffffff163373ffffffffffffffffffffffffffffffffffffffff16148061085057506108216106da565b73ffffffffffffffffffffffffffffffffffffffff163373ffffffffffffffffffffffffffffffffffffffff16145b61088f576040517f08c379a000000000000000000000000000000000000000000000000000000000815260040161088690611a0d565b60405180910390fd5b60018160050160006101000a81548160ff021916908315150217905550817f4c55f7618226d08fd9c10ec839f74e0634001f9258f582ac387479b8535e8f7860405160405180910390a2505050565b6108e6610db3565b60006108f182610d2c565b905060006003600083815260200190815260200160002090508060050160009054906101000a900460ff161561095c576040517f08c379a000000000000000000000000000000000000000000000000000000000815260040161095390611935565b60405180910390fd5b806006015442106109a2576040517f08c379a000000000000000000000000000000000000000000000000000000000815260040161099990611a79565b60405180910390fd5b6000600260009054906101000a900473ffffffffffffffffffffffffffffffffffffffff1673ffffffffffffffffffffffffffffffffffffffff166323b872dd338460020160009054906101000a900473ffffffffffffffffffffffffffffffffffffffff1685600401546040518463ffffffff1660e01b8152600401610a2b93929190611a99565b6020604051808303816000875af1158015610a4a573d6000803e3d6000fd5b505050506040513d601f19601f82011682018060405250810190610a6e9190611afc565b905080610ab0576040517f08c379a0000000000000000000000000000000000000000000000000000000008152600401610aa790611b75565b60405180910390fd5b338260030160006101000a81548173ffffffffffffffffffffffffffffffffffffffff021916908373ffffffffffffffffffffffffffffffffffffffff16021790555060018260050160006101000a81548160ff021916908315150217905550827f7e7700faecd598f8470b641a804a9fbc3a12531dde0be83a3f9442eaaa68618c338460040154604051610b46929190611b95565b60405180910390a2505050610b59610e02565b50565b604081565b610b69610bea565b600073ffffffffffffffffffffffffffffffffffffffff168173ffffffffffffffffffffffffffffffffffffffff1603610bd8576040517f08c379a0000000000000000000000000000000000000000000000000000000008152600401610bcf90611c30565b60405180910390fd5b610be181610c68565b50565b610e1081565b610bf2610e0b565b73ffffffffffffffffffffffffffffffffffffffff16610c106106da565b73ffffffffffffffffffffffffffffffffffffffff1614610c66576040517f08c379a0000000000000000000000000000000000000000000000000000000008152600401610c5d90611c9c565b60405180910390fd5b565b60008060009054906101000a900473ffffffffffffffffffffffffffffffffffffffff169050816000806101000a81548173ffffffffffffffffffffffffffffffffffffffff021916908373ffffffffffffffffffffffffffffffffffffffff1602179055508173ffffffffffffffffffffffffffffffffffffffff168173ffffffffffffffffffffffffffffffffffffffff167f8be0079c531659141344cd1fd0a4f28419497f9722a3daafe3b4186f6b6457e060405160405180910390a35050565b60008082905060008151118015610d4557506040815111155b610d84576040517f08c379a0000000000000000000000000000000000000000000000000000000008152600401610d7b90611d08565b60405180910390fd5b82604051602001610d959190611d64565b60405160208183030381529060405280519060200120915050919050565b600260015403610df8576040517f08c379a0000000000000000000000000000000000000000000000000000000008152600401610def90611dc7565b60405180910390fd5b6002600181905550565b60018081905550565b600033905090565b6000604051905090565b600080fd5b600080fd5b6000819050919050565b610e3a81610e27565b8114610e4557600080fd5b50565b600081359050610e5781610e31565b92915050565b600060208284031215610e7357610e72610e1d565b5b6000610e8184828501610e48565b91505092915050565b610e9381610e27565b82525050565b600081519050919050565b600082825260208201905092915050565b60005b83811015610ed3578082015181840152602081019050610eb8565b60008484015250505050565b6000601f19601f8301169050919050565b6000610efb82610e99565b610f058185610ea4565b9350610f15818560208601610eb5565b610f1e81610edf565b840191505092915050565b600073ffffffffffffffffffffffffffffffffffffffff82169050919050565b6000610f5482610f29565b9050919050565b610f6481610f49565b82525050565b6000819050919050565b610f7d81610f6a565b82525050565b60008115159050919050565b610f9881610f83565b82525050565b600060e082019050610fb3600083018a610e8a565b8181036020830152610fc58189610ef0565b9050610fd46040830188610f5b565b610fe16060830187610f5b565b610fee6080830186610f74565b610ffb60a0830185610f8f565b61100860c0830184610f74565b98975050505050505050565b60006020820190506110296000830184610f74565b92915050565b6000819050919050565b600061105461104f61104a84610f29565b61102f565b610f29565b9050919050565b600061106682611039565b9050919050565b60006110788261105b565b9050919050565b6110888161106d565b82525050565b60006020820190506110a3600083018461107f565b92915050565b600080fd5b600080fd5b7f4e487b7100000000000000000000000000000000000000000000000000000000600052604160045260246000fd5b6110eb82610edf565b810181811067ffffffffffffffff8211171561110a576111096110b3565b5b80604052505050565b600061111d610e13565b905061112982826110e2565b919050565b600067ffffffffffffffff821115611149576111486110b3565b5b61115282610edf565b9050602081019050919050565b82818337600083830152505050565b600061118161117c8461112e565b611113565b90508281526020810184848401111561119d5761119c6110ae565b5b6111a884828561115f565b509392505050565b600082601f8301126111c5576111c46110a9565b5b81356111d584826020860161116e565b91505092915050565b6111e781610f6a565b81146111f257600080fd5b50565b600081359050611204816111de565b92915050565b61121381610f49565b811461121e57600080fd5b50565b6000813590506112308161120a565b92915050565b600080600080608085870312156112505761124f610e1d565b5b600085013567ffffffffffffffff81111561126e5761126d610e22565b5b61127a878288016111b0565b945050602061128b878288016111f5565b935050604061129c87828801611221565b92505060606112ad878288016111f5565b91505092959194509250565b60006020820190506112ce6000830184610f5b565b92915050565b6000602082840312156112ea576112e9610e1d565b5b600082013567ffffffffffffffff81111561130857611307610e22565b5b611314848285016111b0565b91505092915050565b60006020828403121561133357611332610e1d565b5b600061134184828501611221565b91505092915050565b7f4e487b7100000000000000000000000000000000000000000000000000000000600052602260045260246000fd5b6000600282049050600182168061139157607f821691505b6020821081036113a4576113a361134a565b5b50919050565b7f456d707479204944000000000000000000000000000000000000000000000000600082015250565b60006113e0600883610ea4565b91506113eb826113aa565b602082019050919050565b6000602082019050818103600083015261140f816113d3565b9050919050565b7f5072696365206d757374206265203e2030000000000000000000000000000000600082015250565b600061144c601183610ea4565b915061145782611416565b602082019050919050565b6000602082019050818103600083015261147b8161143f565b9050919050565b7f496e76616c69642073656c6c6572000000000000000000000000000000000000600082015250565b60006114b8600e83610ea4565b91506114c382611482565b602082019050919050565b600060208201905081810360008301526114e7816114ab565b9050919050565b7f496e76616c696420657870697279206475726174696f6e000000000000000000600082015250565b6000611524601783610ea4565b915061152f826114ee565b602082019050919050565b6000602082019050818103600083015261155381611517565b9050919050565b7f50726f706572747920616374697665206f7220736f6c64000000000000000000600082015250565b6000611590601783610ea4565b915061159b8261155a565b602082019050919050565b600060208201905081810360008301526115bf81611583565b9050919050565b7f4e487b7100000000000000000000000000000000000000000000000000000000600052601160045260246000fd5b600061160082610f6a565b915061160b83610f6a565b9250828201905080821115611623576116226115c6565b5b92915050565b60008190508160005260206000209050919050565b60006020601f8301049050919050565b600082821b905092915050565b60006008830261168b7fffffffffffffffffffffffffffffffffffffffffffffffffffffffffffffffff8261164e565b611695868361164e565b95508019841693508086168417925050509392505050565b60006116c86116c36116be84610f6a565b61102f565b610f6a565b9050919050565b6000819050919050565b6116e2836116ad565b6116f66116ee826116cf565b84845461165b565b825550505050565b600090565b61170b6116fe565b6117168184846116d9565b505050565b5b8181101561173a5761172f600082611703565b60018101905061171c565b5050565b601f82111561177f5761175081611629565b6117598461163e565b81016020851015611768578190505b61177c6117748561163e565b83018261171b565b50505b505050565b600082821c905092915050565b60006117a260001984600802611784565b1980831691505092915050565b60006117bb8383611791565b9150826002028217905092915050565b6117d482610e99565b67ffffffffffffffff8111156117ed576117ec6110b3565b5b6117f78254611379565b61180282828561173e565b600060209050601f8311600181146118355760008415611823578287015190505b61182d85826117af565b865550611895565b601f19841661184386611629565b60005b8281101561186b57848901518255600182019150602085019450602081019050611846565b868310156118885784890151611884601f891682611791565b8355505b6001600288020188555050505b505050505050565b600060808201905081810360008301526118b78187610ef0565b90506118c66020830186610f74565b6118d36040830185610f5b565b6118e06060830184610f74565b95945050505050565b7f416c726561647920736f6c640000000000000000000000000000000000000000600082015250565b600061191f600c83610ea4565b915061192a826118e9565b602082019050919050565b6000602082019050818103600083015261194e81611912565b9050919050565b7f4e6f742065787069726564000000000000000000000000000000000000000000600082015250565b600061198b600b83610ea4565b915061199682611955565b602082019050919050565b600060208201905081810360008301526119ba8161197e565b9050919050565b7f4f6e6c792073656c6c6572206f72206f776e65722063616e2065787069726500600082015250565b60006119f7601f83610ea4565b9150611a02826119c1565b602082019050919050565b60006020820190508181036000830152611a26816119ea565b9050919050565b7f4c697374696e6720657870697265640000000000000000000000000000000000600082015250565b6000611a63600f83610ea4565b9150611a6e82611a2d565b602082019050919050565b60006020820190508181036000830152611a9281611a56565b9050919050565b6000606082019050611aae6000830186610f5b565b611abb6020830185610f5b565b611ac86040830184610f74565b949350505050565b611ad981610f83565b8114611ae457600080fd5b50565b600081519050611af681611ad0565b92915050565b600060208284031215611b1257611b11610e1d565b5b6000611b2084828501611ae7565b91505092915050565b7f546f6b656e207472616e73666572206661696c65640000000000000000000000600082015250565b6000611b5f601583610ea4565b9150611b6a82611b29565b602082019050919050565b60006020820190508181036000830152611b8e81611b52565b9050919050565b6000604082019050611baa6000830185610f5b565b611bb76020830184610f74565b9392505050565b7f4f776e61626c653a206e6577206f776e657220697320746865207a65726f206160008201527f6464726573730000000000000000000000000000000000000000000000000000602082015250565b6000611c1a602683610ea4565b9150611c2582611bbe565b604082019050919050565b60006020820190508181036000830152611c4981611c0d565b9050919050565b7f4f776e61626c653a2063616c6c6572206973206e6f7420746865206f776e6572600082015250565b6000611c86602083610ea4565b9150611c9182611c50565b602082019050919050565b60006020820190508181036000830152611cb581611c79565b9050919050565b7f496e76616c6964204944206c656e677468000000000000000000000000000000600082015250565b6000611cf2601183610ea4565b9150611cfd82611cbc565b602082019050919050565b60006020820190508181036000830152611d2181611ce5565b9050919050565b600081905092915050565b6000611d3e82610e99565b611d488185611d28565b9350611d58818560208601610eb5565b80840191505092915050565b6000611d708284611d33565b915081905092915050565b7f5265656e7472616e637947756172643a207265656e7472616e742063616c6c00600082015250565b6000611db1601f83610ea4565b9150611dbc82611d7b565b602082019050919050565b60006020820190508181036000830152611de081611da4565b905091905056fea264697066735822122005f708a22af9ba114610578eb77a3ab95960b7cc2e25c3e673306510d8dff87a64736f6c63430008180033",
  "linkReferences": {},
  "deployedLinkReferences": {}
}