{
  "_format": "hh-sol-artifact-1",
  "contractName": "PropertyMarketplace",
  "sourceName": "contracts/PropertyMarketplace.sol",
  "abi": [
    {
      "inputs": [
        {
          "internalType": "address",
          "name": "_usdcToken",
          "type": "address"
        }
      ],
      "stateMutability": "nonpayable",
      "type": "constructor"
    },
    {
      "anonymous": false,
      "inputs": [
        {
          "indexed": false,
          "internalType": "address",
          "name": "newCollector",
          "type": "address"
        }
      ],
      "name": "FeeCollectorUpdated",
      "type": "event"
    },
    {
      "anonymous": false,
      "inputs": [
        {
          "indexed": true,
          "internalType": "uint256",
          "name": "tokenId",
          "type": "uint256"
        },
        {
          "indexed": true,
          "internalType": "address",
          "name": "seller",
          "type": "address"
        }
      ],
      "name": "ListingCanceled",
      "type": "event"
    },
    {
      "anonymous": false,
      "inputs": [
        {
          "indexed": true,
          "internalType": "address",
          "name": "previousOwner",
          "type": "address"
        },
        {
          "indexed": true,
          "internalType": "address",
          "name": "newOwner",
          "type": "address"
        }
      ],
      "name": "OwnershipTransferred",
      "type": "event"
    },
    {
      "anonymous": false,
      "inputs": [
        {
          "indexed": false,
          "internalType": "uint256",
          "name": "newFee",
          "type": "uint256"
        }
      ],
      "name": "PlatformFeeUpdated",
      "type": "event"
    },
    {
      "anonymous": false,
      "inputs": [
        {
          "indexed": true,
          "internalType": "uint256",
          "name": "tokenId",
          "type": "uint256"
        },
        {
          "indexed": true,
          "internalType": "address",
          "name": "seller",
          "type": "address"
        },
        {
          "indexed": false,
          "internalType": "uint256",
          "name": "price",
          "type": "uint256"
        }
      ],
      "name": "PropertyListed",
      "type": "event"
    },
    {
      "anonymous": false,
      "inputs": [
        {
          "indexed": true,
          "internalType": "uint256",
          "name": "tokenId",
          "type": "uint256"
        },
        {
          "indexed": true,
          "internalType": "address",
          "name": "seller",
          "type": "address"
        },
        {
          "indexed": true,
          "internalType": "address",
          "name": "buyer",
          "type": "address"
        },
        {
          "indexed": false,
          "internalType": "uint256",
          "name": "price",
          "type": "uint256"
        }
      ],
      "name": "PropertySold",
      "type": "event"
    },
    {
      "inputs": [
        {
          "internalType": "uint256",
          "name": "tokenId",
          "type": "uint256"
        }
      ],
      "name": "buyProperty",
      "outputs": [],
      "stateMutability": "nonpayable",
      "type": "function"
    },
    {
      "inputs": [
        {
          "internalType": "uint256",
          "name": "tokenId",
          "type": "uint256"
        }
      ],
      "name": "cancelListing",
      "outputs": [],
      "stateMutability": "nonpayable",
      "type": "function"
    },
    {
      "inputs": [],
      "name": "feeCollector",
      "outputs": [
        {
          "internalType": "address",
          "name": "",
          "type": "address"
        }
      ],
      "stateMutability": "view",
      "type": "function"
    },
    {
      "inputs": [
        {
          "internalType": "address",
          "name": "user",
          "type": "address"
        }
      ],
      "name": "getUserListings",
      "outputs": [
        {
          "internalType": "uint256[]",
          "name": "",
          "type": "uint256[]"
        }
      ],
      "stateMutability": "view",
      "type": "function"
    },
    {
      "inputs": [
        {
          "internalType": "uint256",
          "name": "tokenId",
          "type": "uint256"
        },
        {
          "internalType": "uint256",
          "name": "price",
          "type": "uint256"
        }
      ],
      "name": "listProperty",
      "outputs": [],
      "stateMutability": "nonpayable",
      "type": "function"
    },
    {
      "inputs": [
        {
          "internalType": "uint256",
          "name": "",
          "type": "uint256"
        }
      ],
      "name": "listings",
      "outputs": [
        {
          "internalType": "uint256",
          "name": "tokenId",
          "type": "uint256"
        },
        {
          "internalType": "address",
          "name": "seller",
          "type": "address"
        },
        {
          "internalType": "uint256",
          "name": "price",
          "type": "uint256"
        },
        {
          "internalType": "bool",
          "name": "isActive",
          "type": "bool"
        }
      ],
      "stateMutability": "view",
      "type": "function"
    },
    {
      "inputs": [],
      "name": "owner",
      "outputs": [
        {
          "internalType": "address",
          "name": "",
          "type": "address"
        }
      ],
      "stateMutability": "view",
      "type": "function"
    },
    {
      "inputs": [],
      "name": "platformFee",
      "outputs": [
        {
          "internalType": "uint256",
          "name": "",
          "type": "uint256"
        }
      ],
      "stateMutability": "view",
      "type": "function"
    },
    {
      "inputs": [],
      "name": "renounceOwnership",
      "outputs": [],
      "stateMutability": "nonpayable",
      "type": "function"
    },
    {
      "inputs": [
        {
          "internalType": "address",
          "name": "newOwner",
          "type": "address"
        }
      ],
      "name": "transferOwnership",
      "outputs": [],
      "stateMutability": "nonpayable",
      "type": "function"
    },
    {
      "inputs": [
        {
          "internalType": "address",
          "name": "newCollector",
          "type": "address"
        }
      ],
      "name": "updateFeeCollector",
      "outputs": [],
      "stateMutability": "nonpayable",
      "type": "function"
    },
    {
      "inputs": [
        {
          "internalType": "uint256",
          "name": "newFee",
          "type": "uint256"
        }
      ],
      "name": "updatePlatformFee",
      "outputs": [],
      "stateMutability": "nonpayable",
      "type": "function"
    },
    {
      "inputs": [],
      "name": "usdcToken",
      "outputs": [
        {
          "internalType": "contract IERC20",
          "name": "",
          "type": "address"
        }
      ],
      "stateMutability": "view",
      "type": "function"
    },
    {
      "inputs": [
        {
          "internalType": "address",
          "name": "",
          "type": "address"
        },
        {
          "internalType": "uint256",
          "name": "",
          "type": "uint256"
        }
      ],
      "name": "userListings",
      "outputs": [
        {
          "internalType": "uint256",
          "name": "",
          "type": "uint256"
        }
      ],
      "stateMutability": "view",
      "type": "function"
    }
  ],
  "bytecode": "0x608060405260196003553480156200001657600080fd5b50604051620020163803806200201683398181016040528101906200003c9190620002a5565b6200005c620000506200016f60201b60201c565b6200017760201b60201c565b60018081905550600073ffffffffffffffffffffffffffffffffffffffff168173ffffffffffffffffffffffffffffffffffffffff1603620000d5576040517f08c379a0000000000000000000000000000000000000000000000000000000008152600401620000cc9062000338565b60405180910390fd5b80600260006101000a81548173ffffffffffffffffffffffffffffffffffffffff021916908373ffffffffffffffffffffffffffffffffffffffff16021790555033600460006101000a81548173ffffffffffffffffffffffffffffffffffffffff021916908373ffffffffffffffffffffffffffffffffffffffff16021790555062000168336200017760201b60201c565b506200035a565b600033905090565b60008060009054906101000a900473ffffffffffffffffffffffffffffffffffffffff169050816000806101000a81548173ffffffffffffffffffffffffffffffffffffffff021916908373ffffffffffffffffffffffffffffffffffffffff1602179055508173ffffffffffffffffffffffffffffffffffffffff168173ffffffffffffffffffffffffffffffffffffffff167f8be0079c531659141344cd1fd0a4f28419497f9722a3daafe3b4186f6b6457e060405160405180910390a35050565b600080fd5b600073ffffffffffffffffffffffffffffffffffffffff82169050919050565b60006200026d8262000240565b9050919050565b6200027f8162000260565b81146200028b57600080fd5b50565b6000815190506200029f8162000274565b92915050565b600060208284031215620002be57620002bd6200023b565b5b6000620002ce848285016200028e565b91505092915050565b600082825260208201905092915050565b7f496e76616c6964205553444320746f6b656e2061646472657373000000000000600082015250565b600062000320601a83620002d7565b91506200032d82620002e8565b602082019050919050565b60006020820190508181036000830152620003538162000311565b9050919050565b611cac806200036a6000396000f3fe608060405234801561001057600080fd5b50600436106100ea5760003560e01c80638da5cb5b1161008c578063d2c35ce811610066578063d2c35ce814610211578063de74e57b1461022d578063eb18a9d814610260578063f2fde38b14610290576100ea565b80638da5cb5b146101b9578063aa0b5988146101d7578063c415b95c146101f3576100ea565b80634eda529b116100c85780634eda529b146101475780636fa830a614610163578063715018a61461017f57806386cfa7d314610189576100ea565b806311eac855146100ef57806326232a2e1461010d578063305a67a81461012b575b600080fd5b6100f76102ac565b6040516101049190611203565b60405180910390f35b6101156102d2565b6040516101229190611237565b60405180910390f35b61014560048036038101906101409190611283565b6102d8565b005b610161600480360381019061015c91906112b0565b6104da565b005b61017d60048036038101906101789190611283565b610722565b005b610187610c58565b005b6101a3600480360381019061019e919061132e565b610c6c565b6040516101b09190611237565b60405180910390f35b6101c1610c9d565b6040516101ce919061137d565b60405180910390f35b6101f160048036038101906101ec9190611283565b610cc6565b005b6101fb610d53565b604051610208919061137d565b60405180910390f35b61022b60048036038101906102269190611398565b610d79565b005b61024760048036038101906102429190611283565b610e6b565b60405161025794939291906113e0565b60405180910390f35b61027a60048036038101906102759190611398565b610ec8565b60405161028791906114e3565b60405180910390f35b6102aa60048036038101906102a59190611398565b610f5f565b005b600260009054906101000a900473ffffffffffffffffffffffffffffffffffffffff1681565b60035481565b60006005600083815260200190815260200160002090508060010160009054906101000a900473ffffffffffffffffffffffffffffffffffffffff1673ffffffffffffffffffffffffffffffffffffffff163373ffffffffffffffffffffffffffffffffffffffff1614610381576040517f08c379a000000000000000000000000000000000000000000000000000000000815260040161037890611562565b60405180910390fd5b8060030160009054906101000a900460ff166103d2576040517f08c379a00000000000000000000000000000000000000000000000000000000081526004016103c9906115ce565b60405180910390fd5b3073ffffffffffffffffffffffffffffffffffffffff1663a9059cbb8260010160009054906101000a900473ffffffffffffffffffffffffffffffffffffffff16846040518363ffffffff1660e01b81526004016104319291906115ee565b6020604051808303816000875af1158015610450573d6000803e3d6000fd5b505050506040513d601f19601f820116820180604052508101906104749190611643565b5060008160030160006101000a81548160ff0219169083151502179055503373ffffffffffffffffffffffffffffffffffffffff16827fbb7be15645f4eda9d65591c3a81b5e39256151f91bc25180315de259167c2e2360405160405180910390a35050565b6000811161051d576040517f08c379a0000000000000000000000000000000000000000000000000000000008152600401610514906116bc565b60405180910390fd5b3373ffffffffffffffffffffffffffffffffffffffff166323b872dd3330856040518463ffffffff1660e01b815260040161055a939291906116dc565b6020604051808303816000875af1158015610579573d6000803e3d6000fd5b505050506040513d601f19601f8201168201806040525081019061059d9190611643565b5060405180608001604052808381526020013373ffffffffffffffffffffffffffffffffffffffff16815260200182815260200160011515815250600560008481526020019081526020016000206000820151816000015560208201518160010160006101000a81548173ffffffffffffffffffffffffffffffffffffffff021916908373ffffffffffffffffffffffffffffffffffffffff1602179055506040820151816002015560608201518160030160006101000a81548160ff021916908315150217905550905050600660003373ffffffffffffffffffffffffffffffffffffffff1673ffffffffffffffffffffffffffffffffffffffff1681526020019081526020016000208290806001815401808255809150506001900390600052602060002001600090919091909150553373ffffffffffffffffffffffffffffffffffffffff16827f23fb658c1698b92f5fe511a079c17ecf7965cbc3f1b873328c67e2c3c0820f1f836040516107169190611237565b60405180910390a35050565b61072a610fe2565b60006005600083815260200190815260200160002090508060030160009054906101000a900460ff16610792576040517f08c379a00000000000000000000000000000000000000000000000000000000081526004016107899061175f565b60405180910390fd5b8060010160009054906101000a900473ffffffffffffffffffffffffffffffffffffffff1673ffffffffffffffffffffffffffffffffffffffff163373ffffffffffffffffffffffffffffffffffffffff1603610824576040517f08c379a000000000000000000000000000000000000000000000000000000000815260040161081b906117cb565b60405180910390fd5b60008160020154905060008260010160009054906101000a900473ffffffffffffffffffffffffffffffffffffffff16905060006103e860035484610869919061181a565b610873919061188b565b90506000818461088391906118bc565b9050600260009054906101000a900473ffffffffffffffffffffffffffffffffffffffff1673ffffffffffffffffffffffffffffffffffffffff166323b872dd3330876040518463ffffffff1660e01b81526004016108e4939291906116dc565b6020604051808303816000875af1158015610903573d6000803e3d6000fd5b505050506040513d601f19601f820116820180604052508101906109279190611643565b610966576040517f08c379a000000000000000000000000000000000000000000000000000000000815260040161095d9061193c565b60405180910390fd5b600260009054906101000a900473ffffffffffffffffffffffffffffffffffffffff1673ffffffffffffffffffffffffffffffffffffffff1663a9059cbb600460009054906101000a900473ffffffffffffffffffffffffffffffffffffffff16846040518363ffffffff1660e01b81526004016109e59291906115ee565b6020604051808303816000875af1158015610a04573d6000803e3d6000fd5b505050506040513d601f19601f82011682018060405250810190610a289190611643565b610a67576040517f08c379a0000000000000000000000000000000000000000000000000000000008152600401610a5e906119a8565b60405180910390fd5b600260009054906101000a900473ffffffffffffffffffffffffffffffffffffffff1673ffffffffffffffffffffffffffffffffffffffff1663a9059cbb84836040518363ffffffff1660e01b8152600401610ac49291906115ee565b6020604051808303816000875af1158015610ae3573d6000803e3d6000fd5b505050506040513d601f19601f82011682018060405250810190610b079190611643565b610b46576040517f08c379a0000000000000000000000000000000000000000000000000000000008152600401610b3d90611a14565b60405180910390fd5b3073ffffffffffffffffffffffffffffffffffffffff1663a9059cbb33886040518363ffffffff1660e01b8152600401610b819291906115ee565b6020604051808303816000875af1158015610ba0573d6000803e3d6000fd5b505050506040513d601f19601f82011682018060405250810190610bc49190611643565b5060008560030160006101000a81548160ff0219169083151502179055503373ffffffffffffffffffffffffffffffffffffffff168373ffffffffffffffffffffffffffffffffffffffff16877fddd64180d9701c7ede08673ac8106484ff983a472929330d4fbde4e35d65cb0687604051610c409190611237565b60405180910390a45050505050610c55611031565b50565b610c6061103a565b610c6a60006110b8565b565b60066020528160005260406000208181548110610c8857600080fd5b90600052602060002001600091509150505481565b60008060009054906101000a900473ffffffffffffffffffffffffffffffffffffffff16905090565b610cce61103a565b6032811115610d12576040517f08c379a0000000000000000000000000000000000000000000000000000000008152600401610d0990611a80565b60405180910390fd5b806003819055507f45610d581145924dd7090a5017e5f2b1d6f42213bb2e95707ff86846bbfcb1ca81604051610d489190611237565b60405180910390a150565b600460009054906101000a900473ffffffffffffffffffffffffffffffffffffffff1681565b610d8161103a565b600073ffffffffffffffffffffffffffffffffffffffff168173ffffffffffffffffffffffffffffffffffffffff1603610df0576040517f08c379a0000000000000000000000000000000000000000000000000000000008152600401610de790611aec565b60405180910390fd5b80600460006101000a81548173ffffffffffffffffffffffffffffffffffffffff021916908373ffffffffffffffffffffffffffffffffffffffff1602179055507fe5693914d19c789bdee50a362998c0bc8d035a835f9871da5d51152f0582c34f81604051610e60919061137d565b60405180910390a150565b60056020528060005260406000206000915090508060000154908060010160009054906101000a900473ffffffffffffffffffffffffffffffffffffffff16908060020154908060030160009054906101000a900460ff16905084565b6060600660008373ffffffffffffffffffffffffffffffffffffffff1673ffffffffffffffffffffffffffffffffffffffff168152602001908152602001600020805480602002602001604051908101604052809291908181526020018280548015610f5357602002820191906000526020600020905b815481526020019060010190808311610f3f575b50505050509050919050565b610f6761103a565b600073ffffffffffffffffffffffffffffffffffffffff168173ffffffffffffffffffffffffffffffffffffffff1603610fd6576040517f08c379a0000000000000000000000000000000000000000000000000000000008152600401610fcd90611b7e565b60405180910390fd5b610fdf816110b8565b50565b600260015403611027576040517f08c379a000000000000000000000000000000000000000000000000000000000815260040161101e90611bea565b60405180910390fd5b6002600181905550565b60018081905550565b61104261117c565b73ffffffffffffffffffffffffffffffffffffffff16611060610c9d565b73ffffffffffffffffffffffffffffffffffffffff16146110b6576040517f08c379a00000000000000000000000000000000000000000000000000000000081526004016110ad90611c56565b60405180910390fd5b565b60008060009054906101000a900473ffffffffffffffffffffffffffffffffffffffff169050816000806101000a81548173ffffffffffffffffffffffffffffffffffffffff021916908373ffffffffffffffffffffffffffffffffffffffff1602179055508173ffffffffffffffffffffffffffffffffffffffff168173ffffffffffffffffffffffffffffffffffffffff167f8be0079c531659141344cd1fd0a4f28419497f9722a3daafe3b4186f6b6457e060405160405180910390a35050565b600033905090565b600073ffffffffffffffffffffffffffffffffffffffff82169050919050565b6000819050919050565b60006111c96111c46111bf84611184565b6111a4565b611184565b9050919050565b60006111db826111ae565b9050919050565b60006111ed826111d0565b9050919050565b6111fd816111e2565b82525050565b600060208201905061121860008301846111f4565b92915050565b6000819050919050565b6112318161121e565b82525050565b600060208201905061124c6000830184611228565b92915050565b600080fd5b6112608161121e565b811461126b57600080fd5b50565b60008135905061127d81611257565b92915050565b60006020828403121561129957611298611252565b5b60006112a78482850161126e565b91505092915050565b600080604083850312156112c7576112c6611252565b5b60006112d58582860161126e565b92505060206112e68582860161126e565b9150509250929050565b60006112fb82611184565b9050919050565b61130b816112f0565b811461131657600080fd5b50565b60008135905061132881611302565b92915050565b6000806040838503121561134557611344611252565b5b600061135385828601611319565b92505060206113648582860161126e565b9150509250929050565b611377816112f0565b82525050565b6000602082019050611392600083018461136e565b92915050565b6000602082840312156113ae576113ad611252565b5b60006113bc84828501611319565b91505092915050565b60008115159050919050565b6113da816113c5565b82525050565b60006080820190506113f56000830187611228565b611402602083018661136e565b61140f6040830185611228565b61141c60608301846113d1565b95945050505050565b600081519050919050565b600082825260208201905092915050565b6000819050602082019050919050565b61145a8161121e565b82525050565b600061146c8383611451565b60208301905092915050565b6000602082019050919050565b600061149082611425565b61149a8185611430565b93506114a583611441565b8060005b838110156114d65781516114bd8882611460565b97506114c883611478565b9250506001810190506114a9565b5085935050505092915050565b600060208201905081810360008301526114fd8184611485565b905092915050565b600082825260208201905092915050565b7f4e6f74207468652073656c6c6572000000000000000000000000000000000000600082015250565b600061154c600e83611505565b915061155782611516565b602082019050919050565b6000602082019050818103600083015261157b8161153f565b9050919050565b7f4c697374696e67206e6f74206163746976650000000000000000000000000000600082015250565b60006115b8601283611505565b91506115c382611582565b602082019050919050565b600060208201905081810360008301526115e7816115ab565b9050919050565b6000604082019050611603600083018561136e565b6116106020830184611228565b9392505050565b611620816113c5565b811461162b57600080fd5b50565b60008151905061163d81611617565b92915050565b60006020828403121561165957611658611252565b5b60006116678482850161162e565b91505092915050565b7f5072696365206d7573742062652067726561746572207468616e203000000000600082015250565b60006116a6601c83611505565b91506116b182611670565b602082019050919050565b600060208201905081810360008301526116d581611699565b9050919050565b60006060820190506116f1600083018661136e565b6116fe602083018561136e565b61170b6040830184611228565b949350505050565b7f4c697374696e67206973206e6f74206163746976650000000000000000000000600082015250565b6000611749601583611505565b915061175482611713565b602082019050919050565b600060208201905081810360008301526117788161173c565b9050919050565b7f43616e6e6f742062757920796f7572206f776e206c697374696e670000000000600082015250565b60006117b5601b83611505565b91506117c08261177f565b602082019050919050565b600060208201905081810360008301526117e4816117a8565b9050919050565b7f4e487b7100000000000000000000000000000000000000000000000000000000600052601160045260246000fd5b60006118258261121e565b91506118308361121e565b925082820261183e8161121e565b91508282048414831517611855576118546117eb565b5b5092915050565b7f4e487b7100000000000000000000000000000000000000000000000000000000600052601260045260246000fd5b60006118968261121e565b91506118a18361121e565b9250826118b1576118b061185c565b5b828204905092915050565b60006118c78261121e565b91506118d28361121e565b92508282039050818111156118ea576118e96117eb565b5b92915050565b7f55534443207472616e73666572206661696c6564000000000000000000000000600082015250565b6000611926601483611505565b9150611931826118f0565b602082019050919050565b6000602082019050818103600083015261195581611919565b9050919050565b7f466565207472616e73666572206661696c656400000000000000000000000000600082015250565b6000611992601383611505565b915061199d8261195c565b602082019050919050565b600060208201905081810360008301526119c181611985565b9050919050565b7f53656c6c6572207472616e73666572206661696c656400000000000000000000600082015250565b60006119fe601683611505565b9150611a09826119c8565b602082019050919050565b60006020820190508181036000830152611a2d816119f1565b9050919050565b7f46656520746f6f20686967680000000000000000000000000000000000000000600082015250565b6000611a6a600c83611505565b9150611a7582611a34565b602082019050919050565b60006020820190508181036000830152611a9981611a5d565b9050919050565b7f496e76616c696420616464726573730000000000000000000000000000000000600082015250565b6000611ad6600f83611505565b9150611ae182611aa0565b602082019050919050565b60006020820190508181036000830152611b0581611ac9565b9050919050565b7f4f776e61626c653a206e6577206f776e657220697320746865207a65726f206160008201527f6464726573730000000000000000000000000000000000000000000000000000602082015250565b6000611b68602683611505565b9150611b7382611b0c565b604082019050919050565b60006020820190508181036000830152611b9781611b5b565b9050919050565b7f5265656e7472616e637947756172643a207265656e7472616e742063616c6c00600082015250565b6000611bd4601f83611505565b9150611bdf82611b9e565b602082019050919050565b60006020820190508181036000830152611c0381611bc7565b9050919050565b7f4f776e61626c653a2063616c6c6572206973206e6f7420746865206f776e6572600082015250565b6000611c40602083611505565b9150611c4b82611c0a565b602082019050919050565b60006020820190508181036000830152611c6f81611c33565b905091905056fea26469706673582212206363b1a52ac494ea6827ee9a61803e35bdfd4e57d829f96506b747fd3bf03b8764736f6c63430008180033",
  "linkReferences": {},
  "deployedLinkReferences": {}
}