{
  "_format": "hh-sol-artifact-1",
  "contractName": "FractionalOwnershipModule",
  "sourceName": "contracts/FractionalOwnershipModule.sol",
  "abi": [
    {
      "inputs": [
        {
          "internalType": "address",
          "name": "initialAddress",
          "type": "address"
        }
      ],
      "stateMutability": "nonpayable",
      "type": "constructor"
    },
    {
      "anonymous": false,
      "inputs": [
        {
          "indexed": true,
          "internalType": "string",
          "name": "propertyId",
          "type": "string"
        },
        {
          "indexed": false,
          "internalType": "uint256",
          "name": "amount",
          "type": "uint256"
        },
        {
          "indexed": true,
          "internalType": "address",
          "name": "buyer",
          "type": "address"
        }
      ],
      "name": "FractionalTokensPurchased",
      "type": "event"
    },
    {
      "anonymous": false,
      "inputs": [
        {
          "indexed": true,
          "internalType": "address",
          "name": "previousOwner",
          "type": "address"
        },
        {
          "indexed": true,
          "internalType": "address",
          "name": "newOwner",
          "type": "address"
        }
      ],
      "name": "OwnershipTransferred",
      "type": "event"
    },
    {
      "anonymous": false,
      "inputs": [
        {
          "indexed": true,
          "internalType": "string",
          "name": "propertyId",
          "type": "string"
        },
        {
          "indexed": false,
          "internalType": "uint256",
          "name": "valuation",
          "type": "uint256"
        },
        {
          "indexed": true,
          "internalType": "address",
          "name": "owner",
          "type": "address"
        }
      ],
      "name": "PropertyListed",
      "type": "event"
    },
    {
      "inputs": [],
      "name": "equiXtate",
      "outputs": [
        {
          "internalType": "contract EquiXtate",
          "name": "",
          "type": "address"
        }
      ],
      "stateMutability": "view",
      "type": "function"
    },
    {
      "inputs": [
        {
          "internalType": "string",
          "name": "_propertyId",
          "type": "string"
        }
      ],
      "name": "getProperty",
      "outputs": [
        {
          "internalType": "string",
          "name": "id",
          "type": "string"
        },
        {
          "internalType": "uint256",
          "name": "valuation",
          "type": "uint256"
        },
        {
          "internalType": "address",
          "name": "owner",
          "type": "address"
        },
        {
          "internalType": "uint256",
          "name": "totalSupply",
          "type": "uint256"
        }
      ],
      "stateMutability": "view",
      "type": "function"
    },
    {
      "inputs": [
        {
          "internalType": "string",
          "name": "_propertyId",
          "type": "string"
        },
        {
          "internalType": "uint256",
          "name": "_valuation",
          "type": "uint256"
        },
        {
          "internalType": "address",
          "name": "_propertyOwner",
          "type": "address"
        }
      ],
      "name": "listProperty",
      "outputs": [],
      "stateMutability": "nonpayable",
      "type": "function"
    },
    {
      "inputs": [],
      "name": "owner",
      "outputs": [
        {
          "internalType": "address",
          "name": "",
          "type": "address"
        }
      ],
      "stateMutability": "view",
      "type": "function"
    },
    {
      "inputs": [
        {
          "internalType": "string",
          "name": "_propertyId",
          "type": "string"
        },
        {
          "internalType": "uint256",
          "name": "_amount",
          "type": "uint256"
        }
      ],
      "name": "purchaseFraction",
      "outputs": [],
      "stateMutability": "nonpayable",
      "type": "function"
    },
    {
      "inputs": [],
      "name": "renounceOwnership",
      "outputs": [],
      "stateMutability": "nonpayable",
      "type": "function"
    },
    {
      "inputs": [
        {
          "internalType": "address",
          "name": "newOwner",
          "type": "address"
        }
      ],
      "name": "transferOwnership",
      "outputs": [],
      "stateMutability": "nonpayable",
      "type": "function"
    }
  ],
  "bytecode": "0x60806040523480156200001157600080fd5b5060405162001cb438038062001cb4833981810160405281019062000037919062000258565b620000576200004b6200012260201b60201c565b6200012a60201b60201c565b600073ffffffffffffffffffffffffffffffffffffffff168173ffffffffffffffffffffffffffffffffffffffff1603620000c9576040517f08c379a0000000000000000000000000000000000000000000000000000000008152600401620000c090620002eb565b60405180910390fd5b80600160006101000a81548173ffffffffffffffffffffffffffffffffffffffff021916908373ffffffffffffffffffffffffffffffffffffffff1602179055506200011b816200012a60201b60201c565b506200030d565b600033905090565b60008060009054906101000a900473ffffffffffffffffffffffffffffffffffffffff169050816000806101000a81548173ffffffffffffffffffffffffffffffffffffffff021916908373ffffffffffffffffffffffffffffffffffffffff1602179055508173ffffffffffffffffffffffffffffffffffffffff168173ffffffffffffffffffffffffffffffffffffffff167f8be0079c531659141344cd1fd0a4f28419497f9722a3daafe3b4186f6b6457e060405160405180910390a35050565b600080fd5b600073ffffffffffffffffffffffffffffffffffffffff82169050919050565b60006200022082620001f3565b9050919050565b620002328162000213565b81146200023e57600080fd5b50565b600081519050620002528162000227565b92915050565b600060208284031215620002715762000270620001ee565b5b6000620002818482850162000241565b91505092915050565b600082825260208201905092915050565b7f496e76616c696420746f6b656e20616464726573730000000000000000000000600082015250565b6000620002d36015836200028a565b9150620002e0826200029b565b602082019050919050565b600060208201905081810360008301526200030681620002c4565b9050919050565b611997806200031d6000396000f3fe608060405234801561001057600080fd5b506004361061007d5760003560e01c8063ab331a341161005b578063ab331a34146100c8578063b19f223d146100fb578063d89e1e1e14610117578063f2fde38b146101335761007d565b8063715018a6146100825780637154344c1461008c5780638da5cb5b146100aa575b600080fd5b61008a61014f565b005b610094610163565b6040516100a19190610c63565b60405180910390f35b6100b2610189565b6040516100bf9190610c9f565b60405180910390f35b6100e260048036038101906100dd9190610e14565b6101b2565b6040516100f29493929190610ef5565b60405180910390f35b61011560048036038101906101109190610f6d565b610386565b005b610131600480360381019061012c9190610ff5565b610685565b005b61014d60048036038101906101489190611064565b610990565b005b610157610a13565b6101616000610a91565b565b600160009054906101000a900473ffffffffffffffffffffffffffffffffffffffff1681565b60008060009054906101000a900473ffffffffffffffffffffffffffffffffffffffff16905090565b60606000806000806101c386610b55565b90506002600082815260200190815260200160002060040160009054906101000a900460ff16610228576040517f08c379a000000000000000000000000000000000000000000000000000000000815260040161021f906110dd565b60405180910390fd5b6000600260008381526020019081526020016000206040518060a00160405290816000820180546102589061112c565b80601f01602080910402602001604051908101604052809291908181526020018280546102849061112c565b80156102d15780601f106102a6576101008083540402835291602001916102d1565b820191906000526020600020905b8154815290600101906020018083116102b457829003601f168201915b50505050508152602001600182015481526020016002820160009054906101000a900473ffffffffffffffffffffffffffffffffffffffff1673ffffffffffffffffffffffffffffffffffffffff1673ffffffffffffffffffffffffffffffffffffffff168152602001600382015481526020016004820160009054906101000a900460ff16151515158152505090508060000151816020015182604001518360600151955095509550955050509193509193565b600061039183610b55565b90506002600082815260200190815260200160002060040160009054906101000a900460ff166103f6576040517f08c379a00000000000000000000000000000000000000000000000000000000081526004016103ed906111a9565b60405180910390fd5b60008211610439576040517f08c379a000000000000000000000000000000000000000000000000000000000815260040161043090611215565b60405180910390fd5b600060026000838152602001908152602001600020905082600160009054906101000a900473ffffffffffffffffffffffffffffffffffffffff1673ffffffffffffffffffffffffffffffffffffffff1663dd62ed3e8360020160009054906101000a900473ffffffffffffffffffffffffffffffffffffffff16306040518363ffffffff1660e01b81526004016104d2929190611235565b602060405180830381865afa1580156104ef573d6000803e3d6000fd5b505050506040513d601f19601f820116820180604052508101906105139190611273565b1015610554576040517f08c379a000000000000000000000000000000000000000000000000000000000815260040161054b906112ec565b60405180910390fd5b600160009054906101000a900473ffffffffffffffffffffffffffffffffffffffff1673ffffffffffffffffffffffffffffffffffffffff166323b872dd8260020160009054906101000a900473ffffffffffffffffffffffffffffffffffffffff1633866040518463ffffffff1660e01b81526004016105d79392919061130c565b6020604051808303816000875af11580156105f6573d6000803e3d6000fd5b505050506040513d601f19601f8201168201806040525081019061061a919061137b565b503373ffffffffffffffffffffffffffffffffffffffff168460405161064091906113e4565b60405180910390207f76a546a64e021eedf49dca93b77027ca41874a6e0edd0f2868acef21743e41128560405161067791906113fb565b60405180910390a350505050565b61068d610a13565b600061069884610b55565b90506002600082815260200190815260200160002060040160009054906101000a900460ff16156106fe576040517f08c379a00000000000000000000000000000000000000000000000000000000081526004016106f590611462565b60405180910390fd5b60008311610741576040517f08c379a0000000000000000000000000000000000000000000000000000000008152600401610738906114ce565b60405180910390fd5b600073ffffffffffffffffffffffffffffffffffffffff168273ffffffffffffffffffffffffffffffffffffffff16036107b0576040517f08c379a00000000000000000000000000000000000000000000000000000000081526004016107a79061153a565b60405180910390fd5b6040518060a001604052808581526020018481526020018373ffffffffffffffffffffffffffffffffffffffff1681526020018481526020016001151581525060026000838152602001908152602001600020600082015181600001908161081891906116fc565b506020820151816001015560408201518160020160006101000a81548173ffffffffffffffffffffffffffffffffffffffff021916908373ffffffffffffffffffffffffffffffffffffffff1602179055506060820151816003015560808201518160040160006101000a81548160ff021916908315150217905550905050600160009054906101000a900473ffffffffffffffffffffffffffffffffffffffff1673ffffffffffffffffffffffffffffffffffffffff166340c10f1983856040518363ffffffff1660e01b81526004016108f49291906117ce565b600060405180830381600087803b15801561090e57600080fd5b505af1158015610922573d6000803e3d6000fd5b505050508173ffffffffffffffffffffffffffffffffffffffff168460405161094b91906113e4565b60405180910390207fdd06bd159374c8694ed164a31be734428faed7ddced1effe048420f63f955c978560405161098291906113fb565b60405180910390a350505050565b610998610a13565b600073ffffffffffffffffffffffffffffffffffffffff168173ffffffffffffffffffffffffffffffffffffffff1603610a07576040517f08c379a00000000000000000000000000000000000000000000000000000000081526004016109fe90611869565b60405180910390fd5b610a1081610a91565b50565b610a1b610bdc565b73ffffffffffffffffffffffffffffffffffffffff16610a39610189565b73ffffffffffffffffffffffffffffffffffffffff1614610a8f576040517f08c379a0000000000000000000000000000000000000000000000000000000008152600401610a86906118d5565b60405180910390fd5b565b60008060009054906101000a900473ffffffffffffffffffffffffffffffffffffffff169050816000806101000a81548173ffffffffffffffffffffffffffffffffffffffff021916908373ffffffffffffffffffffffffffffffffffffffff1602179055508173ffffffffffffffffffffffffffffffffffffffff168173ffffffffffffffffffffffffffffffffffffffff167f8be0079c531659141344cd1fd0a4f28419497f9722a3daafe3b4186f6b6457e060405160405180910390a35050565b60008082905060008151118015610b6e57506040815111155b610bad576040517f08c379a0000000000000000000000000000000000000000000000000000000008152600401610ba490611941565b60405180910390fd5b82604051602001610bbe91906113e4565b60405160208183030381529060405280519060200120915050919050565b600033905090565b600073ffffffffffffffffffffffffffffffffffffffff82169050919050565b6000819050919050565b6000610c29610c24610c1f84610be4565b610c04565b610be4565b9050919050565b6000610c3b82610c0e565b9050919050565b6000610c4d82610c30565b9050919050565b610c5d81610c42565b82525050565b6000602082019050610c786000830184610c54565b92915050565b6000610c8982610be4565b9050919050565b610c9981610c7e565b82525050565b6000602082019050610cb46000830184610c90565b92915050565b6000604051905090565b600080fd5b600080fd5b600080fd5b600080fd5b6000601f19601f8301169050919050565b7f4e487b7100000000000000000000000000000000000000000000000000000000600052604160045260246000fd5b610d2182610cd8565b810181811067ffffffffffffffff82111715610d4057610d3f610ce9565b5b80604052505050565b6000610d53610cba565b9050610d5f8282610d18565b919050565b600067ffffffffffffffff821115610d7f57610d7e610ce9565b5b610d8882610cd8565b9050602081019050919050565b82818337600083830152505050565b6000610db7610db284610d64565b610d49565b905082815260208101848484011115610dd357610dd2610cd3565b5b610dde848285610d95565b509392505050565b600082601f830112610dfb57610dfa610cce565b5b8135610e0b848260208601610da4565b91505092915050565b600060208284031215610e2a57610e29610cc4565b5b600082013567ffffffffffffffff811115610e4857610e47610cc9565b5b610e5484828501610de6565b91505092915050565b600081519050919050565b600082825260208201905092915050565b60005b83811015610e97578082015181840152602081019050610e7c565b60008484015250505050565b6000610eae82610e5d565b610eb88185610e68565b9350610ec8818560208601610e79565b610ed181610cd8565b840191505092915050565b6000819050919050565b610eef81610edc565b82525050565b60006080820190508181036000830152610f0f8187610ea3565b9050610f1e6020830186610ee6565b610f2b6040830185610c90565b610f386060830184610ee6565b95945050505050565b610f4a81610edc565b8114610f5557600080fd5b50565b600081359050610f6781610f41565b92915050565b60008060408385031215610f8457610f83610cc4565b5b600083013567ffffffffffffffff811115610fa257610fa1610cc9565b5b610fae85828601610de6565b9250506020610fbf85828601610f58565b9150509250929050565b610fd281610c7e565b8114610fdd57600080fd5b50565b600081359050610fef81610fc9565b92915050565b60008060006060848603121561100e5761100d610cc4565b5b600084013567ffffffffffffffff81111561102c5761102b610cc9565b5b61103886828701610de6565b935050602061104986828701610f58565b925050604061105a86828701610fe0565b9150509250925092565b60006020828403121561107a57611079610cc4565b5b600061108884828501610fe0565b91505092915050565b7f50726f706572747920646f6573206e6f74206578697374000000000000000000600082015250565b60006110c7601783610e68565b91506110d282611091565b602082019050919050565b600060208201905081810360008301526110f6816110ba565b9050919050565b7f4e487b7100000000000000000000000000000000000000000000000000000000600052602260045260246000fd5b6000600282049050600182168061114457607f821691505b602082108103611157576111566110fd565b5b50919050565b7f4e6f74206c697374656400000000000000000000000000000000000000000000600082015250565b6000611193600a83610e68565b915061119e8261115d565b602082019050919050565b600060208201905081810360008301526111c281611186565b9050919050565b7f496e76616c696420616d6f756e74000000000000000000000000000000000000600082015250565b60006111ff600e83610e68565b915061120a826111c9565b602082019050919050565b6000602082019050818103600083015261122e816111f2565b9050919050565b600060408201905061124a6000830185610c90565b6112576020830184610c90565b9392505050565b60008151905061126d81610f41565b92915050565b60006020828403121561128957611288610cc4565b5b60006112978482850161125e565b91505092915050565b7f4f776e657220686173206e6f7420617070726f766564207472616e7366657200600082015250565b60006112d6601f83610e68565b91506112e1826112a0565b602082019050919050565b60006020820190508181036000830152611305816112c9565b9050919050565b60006060820190506113216000830186610c90565b61132e6020830185610c90565b61133b6040830184610ee6565b949350505050565b60008115159050919050565b61135881611343565b811461136357600080fd5b50565b6000815190506113758161134f565b92915050565b60006020828403121561139157611390610cc4565b5b600061139f84828501611366565b91505092915050565b600081905092915050565b60006113be82610e5d565b6113c881856113a8565b93506113d8818560208601610e79565b80840191505092915050565b60006113f082846113b3565b915081905092915050565b60006020820190506114106000830184610ee6565b92915050565b7f416c7265616479206c6973746564000000000000000000000000000000000000600082015250565b600061144c600e83610e68565b915061145782611416565b602082019050919050565b6000602082019050818103600083015261147b8161143f565b9050919050565b7f56616c756174696f6e206d757374206265203e20300000000000000000000000600082015250565b60006114b8601583610e68565b91506114c382611482565b602082019050919050565b600060208201905081810360008301526114e7816114ab565b9050919050565b7f496e76616c6964206f776e657220616464726573730000000000000000000000600082015250565b6000611524601583610e68565b915061152f826114ee565b602082019050919050565b6000602082019050818103600083015261155381611517565b9050919050565b60008190508160005260206000209050919050565b60006020601f8301049050919050565b600082821b905092915050565b6000600883026115bc7fffffffffffffffffffffffffffffffffffffffffffffffffffffffffffffffff8261157f565b6115c6868361157f565b95508019841693508086168417925050509392505050565b60006115f96115f46115ef84610edc565b610c04565b610edc565b9050919050565b6000819050919050565b611613836115de565b61162761161f82611600565b84845461158c565b825550505050565b600090565b61163c61162f565b61164781848461160a565b505050565b5b8181101561166b57611660600082611634565b60018101905061164d565b5050565b601f8211156116b0576116818161155a565b61168a8461156f565b81016020851015611699578190505b6116ad6116a58561156f565b83018261164c565b50505b505050565b600082821c905092915050565b60006116d3600019846008026116b5565b1980831691505092915050565b60006116ec83836116c2565b9150826002028217905092915050565b61170582610e5d565b67ffffffffffffffff81111561171e5761171d610ce9565b5b611728825461112c565b61173382828561166f565b600060209050601f8311600181146117665760008415611754578287015190505b61175e85826116e0565b8655506117c6565b601f1984166117748661155a565b60005b8281101561179c57848901518255600182019150602085019450602081019050611777565b868310156117b957848901516117b5601f8916826116c2565b8355505b6001600288020188555050505b505050505050565b60006040820190506117e36000830185610c90565b6117f06020830184610ee6565b9392505050565b7f4f776e61626c653a206e6577206f776e657220697320746865207a65726f206160008201527f6464726573730000000000000000000000000000000000000000000000000000602082015250565b6000611853602683610e68565b915061185e826117f7565b604082019050919050565b6000602082019050818103600083015261188281611846565b9050919050565b7f4f776e61626c653a2063616c6c6572206973206e6f7420746865206f776e6572600082015250565b60006118bf602083610e68565b91506118ca82611889565b602082019050919050565b600060208201905081810360008301526118ee816118b2565b9050919050565b7f496e76616c69642070726f7065727479204944206c656e677468000000000000600082015250565b600061192b601a83610e68565b9150611936826118f5565b602082019050919050565b6000602082019050818103600083015261195a8161191e565b905091905056fea26469706673582212205c52f40ee6f31647902c5bb512c5ba6f419483e9c1e4fe891ce8d08b63a2e39264736f6c63430008180033",
  "linkReferences": {},
  "deployedLinkReferences": {}
}