{
  "_format": "hh-sol-artifact-1",
  "contractName": "AuctionModule",
  "sourceName": "contracts/AuctionModule.sol",
  "abi": [
    {
      "inputs": [
        {
          "internalType": "address",
          "name": "initialAddress",
          "type": "address"
        }
      ],
      "stateMutability": "nonpayable",
      "type": "constructor"
    },
    {
      "anonymous": false,
      "inputs": [
        {
          "indexed": true,
          "internalType": "bytes32",
          "name": "propertyId",
          "type": "bytes32"
        }
      ],
      "name": "AuctionCancelled",
      "type": "event"
    },
    {
      "anonymous": false,
      "inputs": [
        {
          "indexed": true,
          "internalType": "bytes32",
          "name": "propertyId",
          "type": "bytes32"
        },
        {
          "indexed": false,
          "internalType": "uint256",
          "name": "startingPrice",
          "type": "uint256"
        },
        {
          "indexed": false,
          "internalType": "uint256",
          "name": "endTime",
          "type": "uint256"
        }
      ],
      "name": "AuctionCreated",
      "type": "event"
    },
    {
      "anonymous": false,
      "inputs": [
        {
          "indexed": true,
          "internalType": "bytes32",
          "name": "propertyId",
          "type": "bytes32"
        },
        {
          "indexed": false,
          "internalType": "address",
          "name": "winner",
          "type": "address"
        },
        {
          "indexed": false,
          "internalType": "uint256",
          "name": "amount",
          "type": "uint256"
        }
      ],
      "name": "AuctionFinalized",
      "type": "event"
    },
    {
      "anonymous": false,
      "inputs": [
        {
          "indexed": true,
          "internalType": "bytes32",
          "name": "propertyId",
          "type": "bytes32"
        },
        {
          "indexed": true,
          "internalType": "address",
          "name": "bidder",
          "type": "address"
        },
        {
          "indexed": false,
          "internalType": "uint256",
          "name": "amount",
          "type": "uint256"
        }
      ],
      "name": "BidPlaced",
      "type": "event"
    },
    {
      "anonymous": false,
      "inputs": [
        {
          "indexed": true,
          "internalType": "address",
          "name": "previousOwner",
          "type": "address"
        },
        {
          "indexed": true,
          "internalType": "address",
          "name": "newOwner",
          "type": "address"
        }
      ],
      "name": "OwnershipTransferred",
      "type": "event"
    },
    {
      "inputs": [],
      "name": "MAX_AUCTION_DURATION",
      "outputs": [
        {
          "internalType": "uint256",
          "name": "",
          "type": "uint256"
        }
      ],
      "stateMutability": "view",
      "type": "function"
    },
    {
      "inputs": [],
      "name": "MIN_AUCTION_DURATION",
      "outputs": [
        {
          "internalType": "uint256",
          "name": "",
          "type": "uint256"
        }
      ],
      "stateMutability": "view",
      "type": "function"
    },
    {
      "inputs": [],
      "name": "MIN_BID_INCREMENT",
      "outputs": [
        {
          "internalType": "uint256",
          "name": "",
          "type": "uint256"
        }
      ],
      "stateMutability": "view",
      "type": "function"
    },
    {
      "inputs": [
        {
          "internalType": "bytes32",
          "name": "",
          "type": "bytes32"
        }
      ],
      "name": "auctions",
      "outputs": [
        {
          "internalType": "bytes32",
          "name": "propertyId",
          "type": "bytes32"
        },
        {
          "internalType": "address",
          "name": "seller",
          "type": "address"
        },
        {
          "internalType": "uint256",
          "name": "startingPrice",
          "type": "uint256"
        },
        {
          "internalType": "uint256",
          "name": "currentBid",
          "type": "uint256"
        },
        {
          "internalType": "address",
          "name": "currentBidder",
          "type": "address"
        },
        {
          "internalType": "uint256",
          "name": "endTime",
          "type": "uint256"
        },
        {
          "internalType": "bool",
          "name": "isActive",
          "type": "bool"
        },
        {
          "internalType": "bool",
          "name": "isFinalized",
          "type": "bool"
        }
      ],
      "stateMutability": "view",
      "type": "function"
    },
    {
      "inputs": [
        {
          "internalType": "bytes32",
          "name": "propertyId",
          "type": "bytes32"
        }
      ],
      "name": "cancelAuction",
      "outputs": [],
      "stateMutability": "nonpayable",
      "type": "function"
    },
    {
      "inputs": [
        {
          "internalType": "bytes32",
          "name": "propertyId",
          "type": "bytes32"
        },
        {
          "internalType": "uint256",
          "name": "startingPrice",
          "type": "uint256"
        },
        {
          "internalType": "uint256",
          "name": "duration",
          "type": "uint256"
        }
      ],
      "name": "createAuction",
      "outputs": [],
      "stateMutability": "nonpayable",
      "type": "function"
    },
    {
      "inputs": [],
      "name": "equiXtate",
      "outputs": [
        {
          "internalType": "contract EquiXtate",
          "name": "",
          "type": "address"
        }
      ],
      "stateMutability": "view",
      "type": "function"
    },
    {
      "inputs": [
        {
          "internalType": "bytes32",
          "name": "propertyId",
          "type": "bytes32"
        }
      ],
      "name": "finalizeAuction",
      "outputs": [],
      "stateMutability": "nonpayable",
      "type": "function"
    },
    {
      "inputs": [
        {
          "internalType": "bytes32",
          "name": "propertyId",
          "type": "bytes32"
        }
      ],
      "name": "getAuction",
      "outputs": [
        {
          "internalType": "address",
          "name": "seller",
          "type": "address"
        },
        {
          "internalType": "uint256",
          "name": "startingPrice",
          "type": "uint256"
        },
        {
          "internalType": "uint256",
          "name": "currentBid",
          "type": "uint256"
        },
        {
          "internalType": "address",
          "name": "currentBidder",
          "type": "address"
        },
        {
          "internalType": "uint256",
          "name": "endTime",
          "type": "uint256"
        },
        {
          "internalType": "bool",
          "name": "isActive",
          "type": "bool"
        },
        {
          "internalType": "bool",
          "name": "isFinalized",
          "type": "bool"
        }
      ],
      "stateMutability": "view",
      "type": "function"
    },
    {
      "inputs": [],
      "name": "owner",
      "outputs": [
        {
          "internalType": "address",
          "name": "",
          "type": "address"
        }
      ],
      "stateMutability": "view",
      "type": "function"
    },
    {
      "inputs": [
        {
          "internalType": "bytes32",
          "name": "propertyId",
          "type": "bytes32"
        }
      ],
      "name": "placeBid",
      "outputs": [],
      "stateMutability": "payable",
      "type": "function"
    },
    {
      "inputs": [],
      "name": "renounceOwnership",
      "outputs": [],
      "stateMutability": "nonpayable",
      "type": "function"
    },
    {
      "inputs": [
        {
          "internalType": "address",
          "name": "newOwner",
          "type": "address"
        }
      ],
      "name": "transferOwnership",
      "outputs": [],
      "stateMutability": "nonpayable",
      "type": "function"
    }
  ],
  "bytecode": "0x60806040523480156200001157600080fd5b5060405162001fff38038062001fff83398181016040528101906200003791906200025f565b620000576200004b6200012960201b60201c565b6200013160201b60201c565b60018081905550600073ffffffffffffffffffffffffffffffffffffffff168173ffffffffffffffffffffffffffffffffffffffff1603620000d0576040517f08c379a0000000000000000000000000000000000000000000000000000000008152600401620000c790620002f2565b60405180910390fd5b80600260006101000a81548173ffffffffffffffffffffffffffffffffffffffff021916908373ffffffffffffffffffffffffffffffffffffffff16021790555062000122816200013160201b60201c565b5062000314565b600033905090565b60008060009054906101000a900473ffffffffffffffffffffffffffffffffffffffff169050816000806101000a81548173ffffffffffffffffffffffffffffffffffffffff021916908373ffffffffffffffffffffffffffffffffffffffff1602179055508173ffffffffffffffffffffffffffffffffffffffff168173ffffffffffffffffffffffffffffffffffffffff167f8be0079c531659141344cd1fd0a4f28419497f9722a3daafe3b4186f6b6457e060405160405180910390a35050565b600080fd5b600073ffffffffffffffffffffffffffffffffffffffff82169050919050565b60006200022782620001fa565b9050919050565b62000239816200021a565b81146200024557600080fd5b50565b60008151905062000259816200022e565b92915050565b600060208284031215620002785762000277620001f5565b5b6000620002888482850162000248565b91505092915050565b600082825260208201905092915050565b7f496e76616c696420746f6b656e20616464726573730000000000000000000000600082015250565b6000620002da60158362000291565b9150620002e782620002a2565b602082019050919050565b600060208201905081810360008301526200030d81620002cb565b9050919050565b611cdb80620003246000396000f3fe6080604052600436106100c25760003560e01c8063715018a61161007f5780638da5cb5b116100595780638da5cb5b14610254578063983b94fb1461027f578063c2f50a7a146102a8578063f2fde38b146102d3576100c2565b8063715018a6146101e75780637154344c146101fe57806371943bce14610229576100c2565b806315924b5b146100c75780631edbc5be1461010a5780633ef4d1301461014e5780633fb3517814610177578063497ecfc5146101a25780635d3ab3cc146101be575b600080fd5b3480156100d357600080fd5b506100ee60048036038101906100e99190611209565b6102fc565b60405161010197969594939291906112ab565b60405180910390f35b34801561011657600080fd5b50610131600480360381019061012c9190611209565b6103b4565b604051610145989796959493929190611329565b60405180910390f35b34801561015a57600080fd5b5061017560048036038101906101709190611209565b610456565b005b34801561018357600080fd5b5061018c61068b565b60405161019991906113a7565b60405180910390f35b6101bc60048036038101906101b79190611209565b610692565b005b3480156101ca57600080fd5b506101e560048036038101906101e091906113ee565b6109bd565b005b3480156101f357600080fd5b506101fc610c8f565b005b34801561020a57600080fd5b50610213610ca3565b60405161022091906114a0565b60405180910390f35b34801561023557600080fd5b5061023e610cc9565b60405161024b91906113a7565b60405180910390f35b34801561026057600080fd5b50610269610cce565b60405161027691906114bb565b60405180910390f35b34801561028b57600080fd5b506102a660048036038101906102a19190611209565b610cf7565b005b3480156102b457600080fd5b506102bd610fa2565b6040516102ca91906113a7565b60405180910390f35b3480156102df57600080fd5b506102fa60048036038101906102f59190611502565b610fa9565b005b600080600080600080600080600360008a815260200190815260200160002090508060010160009054906101000a900473ffffffffffffffffffffffffffffffffffffffff16816002015482600301548360040160009054906101000a900473ffffffffffffffffffffffffffffffffffffffff1684600501548560060160009054906101000a900460ff168660060160019054906101000a900460ff16975097509750975097509750975050919395979092949650565b60036020528060005260406000206000915090508060000154908060010160009054906101000a900473ffffffffffffffffffffffffffffffffffffffff16908060020154908060030154908060040160009054906101000a900473ffffffffffffffffffffffffffffffffffffffff16908060050154908060060160009054906101000a900460ff16908060060160019054906101000a900460ff16905088565b60006003600083815260200190815260200160002090508060060160009054906101000a900460ff166104be576040517f08c379a00000000000000000000000000000000000000000000000000000000081526004016104b59061158c565b60405180910390fd5b8060010160009054906101000a900473ffffffffffffffffffffffffffffffffffffffff1673ffffffffffffffffffffffffffffffffffffffff163373ffffffffffffffffffffffffffffffffffffffff16148061054e575061051f610cce565b73ffffffffffffffffffffffffffffffffffffffff163373ffffffffffffffffffffffffffffffffffffffff16145b61058d576040517f08c379a0000000000000000000000000000000000000000000000000000000008152600401610584906115f8565b60405180910390fd5b600073ffffffffffffffffffffffffffffffffffffffff168160040160009054906101000a900473ffffffffffffffffffffffffffffffffffffffff1673ffffffffffffffffffffffffffffffffffffffff1614610620576040517f08c379a000000000000000000000000000000000000000000000000000000000815260040161061790611664565b60405180910390fd5b60008160060160006101000a81548160ff02191690831515021790555060018160060160016101000a81548160ff021916908315150217905550817fd88fab4b08bf76f15cf2d6e03e382acf1edd6790ab82967e406abac37db2028860405160405180910390a25050565b62278d0081565b61069a61102c565b60006003600083815260200190815260200160002090508060060160009054906101000a900460ff16610702576040517f08c379a00000000000000000000000000000000000000000000000000000000081526004016106f99061158c565b60405180910390fd5b80600501544210610748576040517f08c379a000000000000000000000000000000000000000000000000000000000815260040161073f906116d0565b60405180910390fd5b8060010160009054906101000a900473ffffffffffffffffffffffffffffffffffffffff1673ffffffffffffffffffffffffffffffffffffffff163373ffffffffffffffffffffffffffffffffffffffff16036107da576040517f08c379a00000000000000000000000000000000000000000000000000000000081526004016107d19061173c565b60405180910390fd5b60006064600583600301546107ef919061178b565b6107f991906117fc565b8260030154610808919061182d565b90508034101561084d576040517f08c379a0000000000000000000000000000000000000000000000000000000008152600401610844906118ad565b60405180910390fd5b600073ffffffffffffffffffffffffffffffffffffffff168260040160009054906101000a900473ffffffffffffffffffffffffffffffffffffffff1673ffffffffffffffffffffffffffffffffffffffff1614610915578160040160009054906101000a900473ffffffffffffffffffffffffffffffffffffffff1673ffffffffffffffffffffffffffffffffffffffff166108fc83600301549081150290604051600060405180830381858888f19350505050158015610913573d6000803e3d6000fd5b505b348260030181905550338260040160006101000a81548173ffffffffffffffffffffffffffffffffffffffff021916908373ffffffffffffffffffffffffffffffffffffffff1602179055503373ffffffffffffffffffffffffffffffffffffffff16837f96d59693caec7bfbd896ccf6bb677a3b2230fec3c76d4b1b482a8670996c7c66346040516109a891906113a7565b60405180910390a350506109ba61107b565b50565b6109c5611084565b60008211610a08576040517f08c379a00000000000000000000000000000000000000000000000000000000081526004016109ff90611919565b60405180910390fd5b620151808110158015610a1e575062278d008111155b610a5d576040517f08c379a0000000000000000000000000000000000000000000000000000000008152600401610a5490611985565b60405180910390fd5b6003600084815260200190815260200160002060060160009054906101000a900460ff1615610ac1576040517f08c379a0000000000000000000000000000000000000000000000000000000008152600401610ab8906119f1565b60405180910390fd5b6040518061010001604052808481526020013373ffffffffffffffffffffffffffffffffffffffff168152602001838152602001838152602001600073ffffffffffffffffffffffffffffffffffffffff1681526020018242610b24919061182d565b815260200160011515815260200160001515815250600360008581526020019081526020016000206000820151816000015560208201518160010160006101000a81548173ffffffffffffffffffffffffffffffffffffffff021916908373ffffffffffffffffffffffffffffffffffffffff160217905550604082015181600201556060820151816003015560808201518160040160006101000a81548173ffffffffffffffffffffffffffffffffffffffff021916908373ffffffffffffffffffffffffffffffffffffffff16021790555060a0820151816005015560c08201518160060160006101000a81548160ff02191690831515021790555060e08201518160060160016101000a81548160ff021916908315150217905550905050827f74c87b9f0f97c53b931ec15fc0f38b0d7669a958d35ed1fe97386d98a9e168ac838342610c74919061182d565b604051610c82929190611a11565b60405180910390a2505050565b610c97611084565b610ca16000611102565b565b600260009054906101000a900473ffffffffffffffffffffffffffffffffffffffff1681565b600581565b60008060009054906101000a900473ffffffffffffffffffffffffffffffffffffffff16905090565b610cff61102c565b60006003600083815260200190815260200160002090508060060160009054906101000a900460ff16610d67576040517f08c379a0000000000000000000000000000000000000000000000000000000008152600401610d5e9061158c565b60405180910390fd5b8060050154421015610dae576040517f08c379a0000000000000000000000000000000000000000000000000000000008152600401610da590611a86565b60405180910390fd5b8060060160019054906101000a900460ff1615610e00576040517f08c379a0000000000000000000000000000000000000000000000000000000008152600401610df790611af2565b60405180910390fd5b60008160060160006101000a81548160ff02191690831515021790555060018160060160016101000a81548160ff021916908315150217905550600073ffffffffffffffffffffffffffffffffffffffff168160040160009054906101000a900473ffffffffffffffffffffffffffffffffffffffff1673ffffffffffffffffffffffffffffffffffffffff1614610f68578060010160009054906101000a900473ffffffffffffffffffffffffffffffffffffffff1673ffffffffffffffffffffffffffffffffffffffff166108fc82600301549081150290604051600060405180830381858888f19350505050158015610f00573d6000803e3d6000fd5b50817fd5e3e604def17bd0c5b7b35a53a73dd0f20a6855f5672e207c4dade80e8b7b958260040160009054906101000a900473ffffffffffffffffffffffffffffffffffffffff168360030154604051610f5b929190611b12565b60405180910390a2610f96565b817fd88fab4b08bf76f15cf2d6e03e382acf1edd6790ab82967e406abac37db2028860405160405180910390a25b50610f9f61107b565b50565b6201518081565b610fb1611084565b600073ffffffffffffffffffffffffffffffffffffffff168173ffffffffffffffffffffffffffffffffffffffff1603611020576040517f08c379a000000000000000000000000000000000000000000000000000000000815260040161101790611bad565b60405180910390fd5b61102981611102565b50565b600260015403611071576040517f08c379a000000000000000000000000000000000000000000000000000000000815260040161106890611c19565b60405180910390fd5b6002600181905550565b60018081905550565b61108c6111c6565b73ffffffffffffffffffffffffffffffffffffffff166110aa610cce565b73ffffffffffffffffffffffffffffffffffffffff1614611100576040517f08c379a00000000000000000000000000000000000000000000000000000000081526004016110f790611c85565b60405180910390fd5b565b60008060009054906101000a900473ffffffffffffffffffffffffffffffffffffffff169050816000806101000a81548173ffffffffffffffffffffffffffffffffffffffff021916908373ffffffffffffffffffffffffffffffffffffffff1602179055508173ffffffffffffffffffffffffffffffffffffffff168173ffffffffffffffffffffffffffffffffffffffff167f8be0079c531659141344cd1fd0a4f28419497f9722a3daafe3b4186f6b6457e060405160405180910390a35050565b600033905090565b600080fd5b6000819050919050565b6111e6816111d3565b81146111f157600080fd5b50565b600081359050611203816111dd565b92915050565b60006020828403121561121f5761121e6111ce565b5b600061122d848285016111f4565b91505092915050565b600073ffffffffffffffffffffffffffffffffffffffff82169050919050565b600061126182611236565b9050919050565b61127181611256565b82525050565b6000819050919050565b61128a81611277565b82525050565b60008115159050919050565b6112a581611290565b82525050565b600060e0820190506112c0600083018a611268565b6112cd6020830189611281565b6112da6040830188611281565b6112e76060830187611268565b6112f46080830186611281565b61130160a083018561129c565b61130e60c083018461129c565b98975050505050505050565b611323816111d3565b82525050565b60006101008201905061133f600083018b61131a565b61134c602083018a611268565b6113596040830189611281565b6113666060830188611281565b6113736080830187611268565b61138060a0830186611281565b61138d60c083018561129c565b61139a60e083018461129c565b9998505050505050505050565b60006020820190506113bc6000830184611281565b92915050565b6113cb81611277565b81146113d657600080fd5b50565b6000813590506113e8816113c2565b92915050565b600080600060608486031215611407576114066111ce565b5b6000611415868287016111f4565b9350506020611426868287016113d9565b9250506040611437868287016113d9565b9150509250925092565b6000819050919050565b600061146661146161145c84611236565b611441565b611236565b9050919050565b60006114788261144b565b9050919050565b600061148a8261146d565b9050919050565b61149a8161147f565b82525050565b60006020820190506114b56000830184611491565b92915050565b60006020820190506114d06000830184611268565b92915050565b6114df81611256565b81146114ea57600080fd5b50565b6000813590506114fc816114d6565b92915050565b600060208284031215611518576115176111ce565b5b6000611526848285016114ed565b91505092915050565b600082825260208201905092915050565b7f41756374696f6e206e6f74206163746976650000000000000000000000000000600082015250565b600061157660128361152f565b915061158182611540565b602082019050919050565b600060208201905081810360008301526115a581611569565b9050919050565b7f4e6f7420617574686f72697a6564000000000000000000000000000000000000600082015250565b60006115e2600e8361152f565b91506115ed826115ac565b602082019050919050565b60006020820190508181036000830152611611816115d5565b9050919050565b7f4269647320616c726561647920706c6163656400000000000000000000000000600082015250565b600061164e60138361152f565b915061165982611618565b602082019050919050565b6000602082019050818103600083015261167d81611641565b9050919050565b7f41756374696f6e20656e64656400000000000000000000000000000000000000600082015250565b60006116ba600d8361152f565b91506116c582611684565b602082019050919050565b600060208201905081810360008301526116e9816116ad565b9050919050565b7f53656c6c65722063616e6e6f7420626964000000000000000000000000000000600082015250565b600061172660118361152f565b9150611731826116f0565b602082019050919050565b6000602082019050818103600083015261175581611719565b9050919050565b7f4e487b7100000000000000000000000000000000000000000000000000000000600052601160045260246000fd5b600061179682611277565b91506117a183611277565b92508282026117af81611277565b915082820484148315176117c6576117c561175c565b5b5092915050565b7f4e487b7100000000000000000000000000000000000000000000000000000000600052601260045260246000fd5b600061180782611277565b915061181283611277565b925082611822576118216117cd565b5b828204905092915050565b600061183882611277565b915061184383611277565b925082820190508082111561185b5761185a61175c565b5b92915050565b7f42696420746f6f206c6f77000000000000000000000000000000000000000000600082015250565b6000611897600b8361152f565b91506118a282611861565b602082019050919050565b600060208201905081810360008301526118c68161188a565b9050919050565b7f5374617274696e67207072696365206d757374206265203e2030000000000000600082015250565b6000611903601a8361152f565b915061190e826118cd565b602082019050919050565b60006020820190508181036000830152611932816118f6565b9050919050565b7f496e76616c6964206475726174696f6e00000000000000000000000000000000600082015250565b600061196f60108361152f565b915061197a82611939565b602082019050919050565b6000602082019050818103600083015261199e81611962565b9050919050565b7f41756374696f6e20616c72656164792065786973747300000000000000000000600082015250565b60006119db60168361152f565b91506119e6826119a5565b602082019050919050565b60006020820190508181036000830152611a0a816119ce565b9050919050565b6000604082019050611a266000830185611281565b611a336020830184611281565b9392505050565b7f41756374696f6e206e6f7420656e646564000000000000000000000000000000600082015250565b6000611a7060118361152f565b9150611a7b82611a3a565b602082019050919050565b60006020820190508181036000830152611a9f81611a63565b9050919050565b7f41756374696f6e20616c72656164792066696e616c697a656400000000000000600082015250565b6000611adc60198361152f565b9150611ae782611aa6565b602082019050919050565b60006020820190508181036000830152611b0b81611acf565b9050919050565b6000604082019050611b276000830185611268565b611b346020830184611281565b9392505050565b7f4f776e61626c653a206e6577206f776e657220697320746865207a65726f206160008201527f6464726573730000000000000000000000000000000000000000000000000000602082015250565b6000611b9760268361152f565b9150611ba282611b3b565b604082019050919050565b60006020820190508181036000830152611bc681611b8a565b9050919050565b7f5265656e7472616e637947756172643a207265656e7472616e742063616c6c00600082015250565b6000611c03601f8361152f565b9150611c0e82611bcd565b602082019050919050565b60006020820190508181036000830152611c3281611bf6565b9050919050565b7f4f776e61626c653a2063616c6c6572206973206e6f7420746865206f776e6572600082015250565b6000611c6f60208361152f565b9150611c7a82611c39565b602082019050919050565b60006020820190508181036000830152611c9e81611c62565b905091905056fea2646970667358221220932829c86ac16b98114ea4f80b315358979cb13242937e0fe1696981a632195264736f6c63430008180033",
  "linkReferences": {},
  "deployedLinkReferences": {}
}