{
  "_format": "hh-sol-artifact-1",
  "contractName": "SwapModule",
  "sourceName": "contracts/swapModule.sol",
  "abi": [
    {
      "inputs": [
        {
          "internalType": "address",
          "name": "_sonicToken",
          "type": "address"
        },
        {
          "internalType": "address",
          "name": "_equiXtate",
          "type": "address"
        }
      ],
      "stateMutability": "nonpayable",
      "type": "constructor"
    },
    {
      "anonymous": false,
      "inputs": [
        {
          "indexed": true,
          "internalType": "address",
          "name": "previousOwner",
          "type": "address"
        },
        {
          "indexed": true,
          "internalType": "address",
          "name": "newOwner",
          "type": "address"
        }
      ],
      "name": "OwnershipTransferred",
      "type": "event"
    },
    {
      "anonymous": false,
      "inputs": [],
      "name": "Paused",
      "type": "event"
    },
    {
      "anonymous": false,
      "inputs": [
        {
          "indexed": false,
          "internalType": "uint256",
          "name": "newRate",
          "type": "uint256"
        }
      ],
      "name": "SwapRateUpdated",
      "type": "event"
    },
    {
      "anonymous": false,
      "inputs": [
        {
          "indexed": true,
          "internalType": "address",
          "name": "user",
          "type": "address"
        },
        {
          "indexed": false,
          "internalType": "string",
          "name": "direction",
          "type": "string"
        },
        {
          "indexed": false,
          "internalType": "uint256",
          "name": "amount",
          "type": "uint256"
        }
      ],
      "name": "Swapped",
      "type": "event"
    },
    {
      "anonymous": false,
      "inputs": [
        {
          "indexed": false,
          "internalType": "address",
          "name": "token",
          "type": "address"
        },
        {
          "indexed": false,
          "internalType": "uint256",
          "name": "amount",
          "type": "uint256"
        }
      ],
      "name": "TokensWithdrawn",
      "type": "event"
    },
    {
      "anonymous": false,
      "inputs": [],
      "name": "Unpaused",
      "type": "event"
    },
    {
      "inputs": [],
      "name": "MAX_SWAP_RATE",
      "outputs": [
        {
          "internalType": "uint256",
          "name": "",
          "type": "uint256"
        }
      ],
      "stateMutability": "view",
      "type": "function"
    },
    {
      "inputs": [],
      "name": "MAX_WITHDRAWAL",
      "outputs": [
        {
          "internalType": "uint256",
          "name": "",
          "type": "uint256"
        }
      ],
      "stateMutability": "view",
      "type": "function"
    },
    {
      "inputs": [],
      "name": "WITHDRAW_COOLDOWN",
      "outputs": [
        {
          "internalType": "uint256",
          "name": "",
          "type": "uint256"
        }
      ],
      "stateMutability": "view",
      "type": "function"
    },
    {
      "inputs": [],
      "name": "equiXtate",
      "outputs": [
        {
          "internalType": "contract EquiXtate",
          "name": "",
          "type": "address"
        }
      ],
      "stateMutability": "view",
      "type": "function"
    },
    {
      "inputs": [],
      "name": "isPaused",
      "outputs": [
        {
          "internalType": "bool",
          "name": "",
          "type": "bool"
        }
      ],
      "stateMutability": "view",
      "type": "function"
    },
    {
      "inputs": [],
      "name": "lastWithdrawalTime",
      "outputs": [
        {
          "internalType": "uint256",
          "name": "",
          "type": "uint256"
        }
      ],
      "stateMutability": "view",
      "type": "function"
    },
    {
      "inputs": [],
      "name": "owner",
      "outputs": [
        {
          "internalType": "address",
          "name": "",
          "type": "address"
        }
      ],
      "stateMutability": "view",
      "type": "function"
    },
    {
      "inputs": [],
      "name": "pauseContract",
      "outputs": [],
      "stateMutability": "nonpayable",
      "type": "function"
    },
    {
      "inputs": [],
      "name": "renounceOwnership",
      "outputs": [],
      "stateMutability": "nonpayable",
      "type": "function"
    },
    {
      "inputs": [
        {
          "internalType": "uint256",
          "name": "_rate",
          "type": "uint256"
        }
      ],
      "name": "setSwapRate",
      "outputs": [],
      "stateMutability": "nonpayable",
      "type": "function"
    },
    {
      "inputs": [],
      "name": "sonicToken",
      "outputs": [
        {
          "internalType": "contract IERC20",
          "name": "",
          "type": "address"
        }
      ],
      "stateMutability": "view",
      "type": "function"
    },
    {
      "inputs": [
        {
          "internalType": "uint256",
          "name": "_etxAmount",
          "type": "uint256"
        }
      ],
      "name": "swapEXTForSonic",
      "outputs": [],
      "stateMutability": "nonpayable",
      "type": "function"
    },
    {
      "inputs": [],
      "name": "swapRate",
      "outputs": [
        {
          "internalType": "uint256",
          "name": "",
          "type": "uint256"
        }
      ],
      "stateMutability": "view",
      "type": "function"
    },
    {
      "inputs": [
        {
          "internalType": "uint256",
          "name": "_sonicAmount",
          "type": "uint256"
        }
      ],
      "name": "swapSonicForETX",
      "outputs": [],
      "stateMutability": "nonpayable",
      "type": "function"
    },
    {
      "inputs": [
        {
          "internalType": "address",
          "name": "newOwner",
          "type": "address"
        }
      ],
      "name": "transferOwnership",
      "outputs": [],
      "stateMutability": "nonpayable",
      "type": "function"
    },
    {
      "inputs": [],
      "name": "unpauseContract",
      "outputs": [],
      "stateMutability": "nonpayable",
      "type": "function"
    },
    {
      "inputs": [
        {
          "internalType": "address",
          "name": "tokenAddress",
          "type": "address"
        },
        {
          "internalType": "uint256",
          "name": "amount",
          "type": "uint256"
        }
      ],
      "name": "withdrawTokens",
      "outputs": [],
      "stateMutability": "nonpayable",
      "type": "function"
    }
  ],
  "bytecode": "0x6080604052670de0b6b3a76400006004556000600660006101000a81548160ff0219169083151502179055503480156200003857600080fd5b50604051620022143803806200221483398181016040528101906200005e919062000303565b6200007e62000072620001cd60201b60201c565b620001d560201b60201c565b60018081905550600073ffffffffffffffffffffffffffffffffffffffff168273ffffffffffffffffffffffffffffffffffffffff1614158015620000f05750600073ffffffffffffffffffffffffffffffffffffffff168173ffffffffffffffffffffffffffffffffffffffff1614155b62000132576040517f08c379a00000000000000000000000000000000000000000000000000000000081526004016200012990620003ab565b60405180910390fd5b81600260006101000a81548173ffffffffffffffffffffffffffffffffffffffff021916908373ffffffffffffffffffffffffffffffffffffffff16021790555080600360006101000a81548173ffffffffffffffffffffffffffffffffffffffff021916908373ffffffffffffffffffffffffffffffffffffffff160217905550620001c533620001d560201b60201c565b5050620003cd565b600033905090565b60008060009054906101000a900473ffffffffffffffffffffffffffffffffffffffff169050816000806101000a81548173ffffffffffffffffffffffffffffffffffffffff021916908373ffffffffffffffffffffffffffffffffffffffff1602179055508173ffffffffffffffffffffffffffffffffffffffff168173ffffffffffffffffffffffffffffffffffffffff167f8be0079c531659141344cd1fd0a4f28419497f9722a3daafe3b4186f6b6457e060405160405180910390a35050565b600080fd5b600073ffffffffffffffffffffffffffffffffffffffff82169050919050565b6000620002cb826200029e565b9050919050565b620002dd81620002be565b8114620002e957600080fd5b50565b600081519050620002fd81620002d2565b92915050565b600080604083850312156200031d576200031c62000299565b5b60006200032d85828601620002ec565b92505060206200034085828601620002ec565b9150509250929050565b600082825260208201905092915050565b7f5a65726f20616464726573730000000000000000000000000000000000000000600082015250565b600062000393600c836200034a565b9150620003a0826200035b565b602082019050919050565b60006020820190508181036000830152620003c68162000384565b9050919050565b611e3780620003dd6000396000f3fe608060405234801561001057600080fd5b506004361061010b5760003560e01c8063950d91e9116100a2578063c292044f11610071578063c292044f1461023a578063cfed802c14610256578063e282288714610274578063f2fde38b14610290578063f4cde469146102ac5761010b565b8063950d91e9146101d657806397ec642c146101f4578063b187bd2614610212578063b33712c5146102305761010b565b8063698518e5116100de578063698518e514610172578063715018a6146101905780637154344c1461019a5780638da5cb5b146101b85761010b565b806306b091f91461011057806334a014dc1461012c578063439766ce1461014a578063461a3a9514610154575b600080fd5b61012a600480360381019061012591906111c9565b6102c8565b005b610134610435565b6040516101419190611218565b60405180910390f35b61015261043b565b005b61015c61048c565b6040516101699190611292565b60405180910390f35b61017a6104b2565b6040516101879190611218565b60405180910390f35b6101986104b8565b005b6101a26104cc565b6040516101af91906112ce565b60405180910390f35b6101c06104f2565b6040516101cd91906112f8565b60405180910390f35b6101de61051b565b6040516101eb9190611218565b60405180910390f35b6101fc610521565b6040516102099190611218565b60405180910390f35b61021a61052f565b604051610227919061132e565b60405180910390f35b610238610542565b005b610254600480360381019061024f9190611349565b610593565b005b61025e610827565b60405161026b9190611218565b60405180910390f35b61028e60048036038101906102899190611349565b610833565b005b6102aa60048036038101906102a59190611376565b610ac7565b005b6102c660048036038101906102c19190611349565b610b4a565b005b6102d0610bea565b600660009054906101000a900460ff1615610320576040517f08c379a000000000000000000000000000000000000000000000000000000000815260040161031790611400565b60405180910390fd5b69021e19e0c9bab240000081111561036d576040517f08c379a00000000000000000000000000000000000000000000000000000000081526004016103649061146c565b60405180910390fd5b61546060055461037d91906114bb565b4210156103bf576040517f08c379a00000000000000000000000000000000000000000000000000000000081526004016103b69061153b565b60405180910390fd5b6103f16103ca6104f2565b828473ffffffffffffffffffffffffffffffffffffffff16610c689092919063ffffffff16565b426005819055507f6352c5382c4a4578e712449ca65e83cdb392d045dfcf1cad9615189db2da244b828260405161042992919061155b565b60405180910390a15050565b60055481565b610443610bea565b6001600660006101000a81548160ff0219169083151502179055507f9e87fac88ff661f02d44f95383c817fece4bce600a3dab7a54406878b965e75260405160405180910390a1565b600260009054906101000a900473ffffffffffffffffffffffffffffffffffffffff1681565b60045481565b6104c0610bea565b6104ca6000610cee565b565b600360009054906101000a900473ffffffffffffffffffffffffffffffffffffffff1681565b60008060009054906101000a900473ffffffffffffffffffffffffffffffffffffffff16905090565b61546081565b69021e19e0c9bab240000081565b600660009054906101000a900460ff1681565b61054a610bea565b6000600660006101000a81548160ff0219169083151502179055507fa45f47fdea8a1efdd9029a5691c7f759c32b7c698632b563573e155625d1693360405160405180910390a1565b61059b610db2565b600660009054906101000a900460ff16156105eb576040517f08c379a00000000000000000000000000000000000000000000000000000000081526004016105e2906115d0565b60405180910390fd5b6000811161062e576040517f08c379a00000000000000000000000000000000000000000000000000000000081526004016106259061163c565b60405180910390fd5b6000670de0b6b3a764000060045483610647919061165c565b61065191906116cd565b905080600360009054906101000a900473ffffffffffffffffffffffffffffffffffffffff1673ffffffffffffffffffffffffffffffffffffffff166370a08231306040518263ffffffff1660e01b81526004016106af91906112f8565b602060405180830381865afa1580156106cc573d6000803e3d6000fd5b505050506040513d601f19601f820116820180604052508101906106f09190611713565b1015610731576040517f08c379a00000000000000000000000000000000000000000000000000000000081526004016107289061178c565b60405180910390fd5b610780333084600260009054906101000a900473ffffffffffffffffffffffffffffffffffffffff1673ffffffffffffffffffffffffffffffffffffffff16610e01909392919063ffffffff16565b6107cd3382600360009054906101000a900473ffffffffffffffffffffffffffffffffffffffff1673ffffffffffffffffffffffffffffffffffffffff16610c689092919063ffffffff16565b3373ffffffffffffffffffffffffffffffffffffffff167f1d9ab28f8aa751c066344b257b2f52fe0c3701ee0dc836dc3e0fd2dd711940bd8360405161081391906117f8565b60405180910390a250610824610e8a565b50565b671bc16d674ec8000081565b61083b610db2565b600660009054906101000a900460ff161561088b576040517f08c379a0000000000000000000000000000000000000000000000000000000008152600401610882906115d0565b60405180910390fd5b600081116108ce576040517f08c379a00000000000000000000000000000000000000000000000000000000081526004016108c59061163c565b60405180910390fd5b6000600454670de0b6b3a7640000836108e7919061165c565b6108f191906116cd565b905080600260009054906101000a900473ffffffffffffffffffffffffffffffffffffffff1673ffffffffffffffffffffffffffffffffffffffff166370a08231306040518263ffffffff1660e01b815260040161094f91906112f8565b602060405180830381865afa15801561096c573d6000803e3d6000fd5b505050506040513d601f19601f820116820180604052508101906109909190611713565b10156109d1576040517f08c379a00000000000000000000000000000000000000000000000000000000081526004016109c890611872565b60405180910390fd5b610a20333084600360009054906101000a900473ffffffffffffffffffffffffffffffffffffffff1673ffffffffffffffffffffffffffffffffffffffff16610e01909392919063ffffffff16565b610a6d3382600260009054906101000a900473ffffffffffffffffffffffffffffffffffffffff1673ffffffffffffffffffffffffffffffffffffffff16610c689092919063ffffffff16565b3373ffffffffffffffffffffffffffffffffffffffff167f1d9ab28f8aa751c066344b257b2f52fe0c3701ee0dc836dc3e0fd2dd711940bd83604051610ab391906118de565b60405180910390a250610ac4610e8a565b50565b610acf610bea565b600073ffffffffffffffffffffffffffffffffffffffff168173ffffffffffffffffffffffffffffffffffffffff1603610b3e576040517f08c379a0000000000000000000000000000000000000000000000000000000008152600401610b359061197e565b60405180910390fd5b610b4781610cee565b50565b610b52610bea565b600081118015610b6a5750671bc16d674ec800008111155b610ba9576040517f08c379a0000000000000000000000000000000000000000000000000000000008152600401610ba0906119ea565b60405180910390fd5b806004819055507ff584b4d4eaa9e0a1cf7138a770082b7f4d5919d88744de231372f8751f957e7f81604051610bdf9190611218565b60405180910390a150565b610bf2610e93565b73ffffffffffffffffffffffffffffffffffffffff16610c106104f2565b73ffffffffffffffffffffffffffffffffffffffff1614610c66576040517f08c379a0000000000000000000000000000000000000000000000000000000008152600401610c5d90611a56565b60405180910390fd5b565b610ce98363a9059cbb60e01b8484604051602401610c8792919061155b565b604051602081830303815290604052907bffffffffffffffffffffffffffffffffffffffffffffffffffffffff19166020820180517bffffffffffffffffffffffffffffffffffffffffffffffffffffffff8381831617835250505050610e9b565b505050565b60008060009054906101000a900473ffffffffffffffffffffffffffffffffffffffff169050816000806101000a81548173ffffffffffffffffffffffffffffffffffffffff021916908373ffffffffffffffffffffffffffffffffffffffff1602179055508173ffffffffffffffffffffffffffffffffffffffff168173ffffffffffffffffffffffffffffffffffffffff167f8be0079c531659141344cd1fd0a4f28419497f9722a3daafe3b4186f6b6457e060405160405180910390a35050565b600260015403610df7576040517f08c379a0000000000000000000000000000000000000000000000000000000008152600401610dee90611ac2565b60405180910390fd5b6002600181905550565b610e84846323b872dd60e01b858585604051602401610e2293929190611ae2565b604051602081830303815290604052907bffffffffffffffffffffffffffffffffffffffffffffffffffffffff19166020820180517bffffffffffffffffffffffffffffffffffffffffffffffffffffffff8381831617835250505050610e9b565b50505050565b60018081905550565b600033905090565b6000610efd826040518060400160405280602081526020017f5361666545524332303a206c6f772d6c6576656c2063616c6c206661696c65648152508573ffffffffffffffffffffffffffffffffffffffff16610f639092919063ffffffff16565b9050600081511480610f1f575080806020019051810190610f1e9190611b45565b5b610f5e576040517f08c379a0000000000000000000000000000000000000000000000000000000008152600401610f5590611be4565b60405180910390fd5b505050565b6060610f728484600085610f7b565b90509392505050565b606082471015610fc0576040517f08c379a0000000000000000000000000000000000000000000000000000000008152600401610fb790611c76565b60405180910390fd5b6000808673ffffffffffffffffffffffffffffffffffffffff168587604051610fe99190611d07565b60006040518083038185875af1925050503d8060008114611026576040519150601f19603f3d011682016040523d82523d6000602084013e61102b565b606091505b509150915061103c87838387611048565b92505050949350505050565b606083156110aa5760008351036110a257611062856110bd565b6110a1576040517f08c379a000000000000000000000000000000000000000000000000000000000815260040161109890611d6a565b60405180910390fd5b5b8290506110b5565b6110b483836110e0565b5b949350505050565b6000808273ffffffffffffffffffffffffffffffffffffffff163b119050919050565b6000825111156110f35781518083602001fd5b806040517f08c379a00000000000000000000000000000000000000000000000000000000081526004016111279190611ddf565b60405180910390fd5b600080fd5b600073ffffffffffffffffffffffffffffffffffffffff82169050919050565b600061116082611135565b9050919050565b61117081611155565b811461117b57600080fd5b50565b60008135905061118d81611167565b92915050565b6000819050919050565b6111a681611193565b81146111b157600080fd5b50565b6000813590506111c38161119d565b92915050565b600080604083850312156111e0576111df611130565b5b60006111ee8582860161117e565b92505060206111ff858286016111b4565b9150509250929050565b61121281611193565b82525050565b600060208201905061122d6000830184611209565b92915050565b6000819050919050565b600061125861125361124e84611135565b611233565b611135565b9050919050565b600061126a8261123d565b9050919050565b600061127c8261125f565b9050919050565b61128c81611271565b82525050565b60006020820190506112a76000830184611283565b92915050565b60006112b88261125f565b9050919050565b6112c8816112ad565b82525050565b60006020820190506112e360008301846112bf565b92915050565b6112f281611155565b82525050565b600060208201905061130d60008301846112e9565b92915050565b60008115159050919050565b61132881611313565b82525050565b6000602082019050611343600083018461131f565b92915050565b60006020828403121561135f5761135e611130565b5b600061136d848285016111b4565b91505092915050565b60006020828403121561138c5761138b611130565b5b600061139a8482850161117e565b91505092915050565b600082825260208201905092915050565b7f5769746864726177616c73207061757365640000000000000000000000000000600082015250565b60006113ea6012836113a3565b91506113f5826113b4565b602082019050919050565b60006020820190508181036000830152611419816113dd565b9050919050565b7f45786365656473206d6178207769746864726177616c00000000000000000000600082015250565b60006114566016836113a3565b915061146182611420565b602082019050919050565b6000602082019050818103600083015261148581611449565b9050919050565b7f4e487b7100000000000000000000000000000000000000000000000000000000600052601160045260246000fd5b60006114c682611193565b91506114d183611193565b92508282019050808211156114e9576114e861148c565b5b92915050565b7f436f6f6c646f776e206e6f742070617373656400000000000000000000000000600082015250565b60006115256013836113a3565b9150611530826114ef565b602082019050919050565b6000602082019050818103600083015261155481611518565b9050919050565b600060408201905061157060008301856112e9565b61157d6020830184611209565b9392505050565b7f436f6e7472616374206973207061757365640000000000000000000000000000600082015250565b60006115ba6012836113a3565b91506115c582611584565b602082019050919050565b600060208201905081810360008301526115e9816115ad565b9050919050565b7f5a65726f20616d6f756e74000000000000000000000000000000000000000000600082015250565b6000611626600b836113a3565b9150611631826115f0565b602082019050919050565b6000602082019050818103600083015261165581611619565b9050919050565b600061166782611193565b915061167283611193565b925082820261168081611193565b915082820484148315176116975761169661148c565b5b5092915050565b7f4e487b7100000000000000000000000000000000000000000000000000000000600052601260045260246000fd5b60006116d882611193565b91506116e383611193565b9250826116f3576116f261169e565b5b828204905092915050565b60008151905061170d8161119d565b92915050565b60006020828403121561172957611728611130565b5b6000611737848285016116fe565b91505092915050565b7f4e6f7420656e6f75676820455854000000000000000000000000000000000000600082015250565b6000611776600e836113a3565b915061178182611740565b602082019050919050565b600060208201905081810360008301526117a581611769565b9050919050565b7f536f6e6963546f45585400000000000000000000000000000000000000000000600082015250565b60006117e2600a836113a3565b91506117ed826117ac565b602082019050919050565b60006040820190508181036000830152611811816117d5565b90506118206020830184611209565b92915050565b7f4e6f7420656e6f75676820536f6e696300000000000000000000000000000000600082015250565b600061185c6010836113a3565b915061186782611826565b602082019050919050565b6000602082019050818103600083015261188b8161184f565b9050919050565b7f455854546f536f6e696300000000000000000000000000000000000000000000600082015250565b60006118c8600a836113a3565b91506118d382611892565b602082019050919050565b600060408201905081810360008301526118f7816118bb565b90506119066020830184611209565b92915050565b7f4f776e61626c653a206e6577206f776e657220697320746865207a65726f206160008201527f6464726573730000000000000000000000000000000000000000000000000000602082015250565b60006119686026836113a3565b91506119738261190c565b604082019050919050565b600060208201905081810360008301526119978161195b565b9050919050565b7f496e76616c696420737761702072617465000000000000000000000000000000600082015250565b60006119d46011836113a3565b91506119df8261199e565b602082019050919050565b60006020820190508181036000830152611a03816119c7565b9050919050565b7f4f776e61626c653a2063616c6c6572206973206e6f7420746865206f776e6572600082015250565b6000611a406020836113a3565b9150611a4b82611a0a565b602082019050919050565b60006020820190508181036000830152611a6f81611a33565b9050919050565b7f5265656e7472616e637947756172643a207265656e7472616e742063616c6c00600082015250565b6000611aac601f836113a3565b9150611ab782611a76565b602082019050919050565b60006020820190508181036000830152611adb81611a9f565b9050919050565b6000606082019050611af760008301866112e9565b611b0460208301856112e9565b611b116040830184611209565b949350505050565b611b2281611313565b8114611b2d57600080fd5b50565b600081519050611b3f81611b19565b92915050565b600060208284031215611b5b57611b5a611130565b5b6000611b6984828501611b30565b91505092915050565b7f5361666545524332303a204552433230206f7065726174696f6e20646964206e60008201527f6f74207375636365656400000000000000000000000000000000000000000000602082015250565b6000611bce602a836113a3565b9150611bd982611b72565b604082019050919050565b60006020820190508181036000830152611bfd81611bc1565b9050919050565b7f416464726573733a20696e73756666696369656e742062616c616e636520666f60008201527f722063616c6c0000000000000000000000000000000000000000000000000000602082015250565b6000611c606026836113a3565b9150611c6b82611c04565b604082019050919050565b60006020820190508181036000830152611c8f81611c53565b9050919050565b600081519050919050565b600081905092915050565b60005b83811015611cca578082015181840152602081019050611caf565b60008484015250505050565b6000611ce182611c96565b611ceb8185611ca1565b9350611cfb818560208601611cac565b80840191505092915050565b6000611d138284611cd6565b915081905092915050565b7f416464726573733a2063616c6c20746f206e6f6e2d636f6e7472616374000000600082015250565b6000611d54601d836113a3565b9150611d5f82611d1e565b602082019050919050565b60006020820190508181036000830152611d8381611d47565b9050919050565b600081519050919050565b6000601f19601f8301169050919050565b6000611db182611d8a565b611dbb81856113a3565b9350611dcb818560208601611cac565b611dd481611d95565b840191505092915050565b60006020820190508181036000830152611df98184611da6565b90509291505056fea26469706673582212207378c62621b49cb4b423fd040d14470a99697063f23a6602283885bd39afbfc264736f6c63430008180033",
  "linkReferences": {},
  "deployedLinkReferences": {}
}