{
  "_format": "hh-sol-artifact-1",
  "contractName": "PropertyManager",
  "sourceName": "contracts/PropertyManager.sol",
  "abi": [
    {
      "inputs": [
        {
          "internalType": "address",
          "name": "initialAddress",
          "type": "address"
        }
      ],
      "stateMutability": "nonpayable",
      "type": "constructor"
    },
    {
      "anonymous": false,
      "inputs": [
        {
          "indexed": true,
          "internalType": "address",
          "name": "previousOwner",
          "type": "address"
        },
        {
          "indexed": true,
          "internalType": "address",
          "name": "newOwner",
          "type": "address"
        }
      ],
      "name": "OwnershipTransferred",
      "type": "event"
    },
    {
      "anonymous": false,
      "inputs": [
        {
          "indexed": true,
          "internalType": "string",
          "name": "id",
          "type": "string"
        },
        {
          "indexed": false,
          "internalType": "string",
          "name": "location",
          "type": "string"
        },
        {
          "indexed": false,
          "internalType": "string",
          "name": "propertyType",
          "type": "string"
        },
        {
          "indexed": false,
          "internalType": "uint256",
          "name": "valuationUSD",
          "type": "uint256"
        },
        {
          "indexed": false,
          "internalType": "uint256",
          "name": "tokenSupply",
          "type": "uint256"
        },
        {
          "indexed": false,
          "internalType": "uint256",
          "name": "timestamp",
          "type": "uint256"
        }
      ],
      "name": "PropertyRegistered",
      "type": "event"
    },
    {
      "inputs": [],
      "name": "COOLDOWN_PERIOD",
      "outputs": [
        {
          "internalType": "uint256",
          "name": "",
          "type": "uint256"
        }
      ],
      "stateMutability": "view",
      "type": "function"
    },
    {
      "inputs": [],
      "name": "equiXtate",
      "outputs": [
        {
          "internalType": "contract EquiXtate",
          "name": "",
          "type": "address"
        }
      ],
      "stateMutability": "view",
      "type": "function"
    },
    {
      "inputs": [
        {
          "internalType": "address",
          "name": "",
          "type": "address"
        }
      ],
      "name": "lastRegistrationTime",
      "outputs": [
        {
          "internalType": "uint256",
          "name": "",
          "type": "uint256"
        }
      ],
      "stateMutability": "view",
      "type": "function"
    },
    {
      "inputs": [],
      "name": "owner",
      "outputs": [
        {
          "internalType": "address",
          "name": "",
          "type": "address"
        }
      ],
      "stateMutability": "view",
      "type": "function"
    },
    {
      "inputs": [
        {
          "internalType": "string",
          "name": "",
          "type": "string"
        }
      ],
      "name": "properties",
      "outputs": [
        {
          "internalType": "string",
          "name": "id",
          "type": "string"
        },
        {
          "internalType": "string",
          "name": "location",
          "type": "string"
        },
        {
          "internalType": "string",
          "name": "propertyType",
          "type": "string"
        },
        {
          "internalType": "uint256",
          "name": "valuationUSD",
          "type": "uint256"
        },
        {
          "internalType": "uint256",
          "name": "tokenSupply",
          "type": "uint256"
        },
        {
          "internalType": "uint256",
          "name": "registeredAt",
          "type": "uint256"
        },
        {
          "internalType": "bool",
          "name": "exists",
          "type": "bool"
        }
      ],
      "stateMutability": "view",
      "type": "function"
    },
    {
      "inputs": [
        {
          "internalType": "string",
          "name": "propertyId",
          "type": "string"
        },
        {
          "internalType": "string",
          "name": "location",
          "type": "string"
        },
        {
          "internalType": "string",
          "name": "propertyType",
          "type": "string"
        },
        {
          "internalType": "uint256",
          "name": "valuationUSD",
          "type": "uint256"
        }
      ],
      "name": "registerProperty",
      "outputs": [],
      "stateMutability": "nonpayable",
      "type": "function"
    },
    {
      "inputs": [],
      "name": "renounceOwnership",
      "outputs": [],
      "stateMutability": "nonpayable",
      "type": "function"
    },
    {
      "inputs": [
        {
          "internalType": "address",
          "name": "newOwner",
          "type": "address"
        }
      ],
      "name": "transferOwnership",
      "outputs": [],
      "stateMutability": "nonpayable",
      "type": "function"
    }
  ],
  "bytecode": "0x60806040523480156200001157600080fd5b5060405162001a6538038062001a65833981810160405281019062000037919062000258565b620000576200004b6200012260201b60201c565b6200012a60201b60201c565b600073ffffffffffffffffffffffffffffffffffffffff168173ffffffffffffffffffffffffffffffffffffffff1603620000c9576040517f08c379a0000000000000000000000000000000000000000000000000000000008152600401620000c090620002eb565b60405180910390fd5b80600160006101000a81548173ffffffffffffffffffffffffffffffffffffffff021916908373ffffffffffffffffffffffffffffffffffffffff1602179055506200011b816200012a60201b60201c565b506200030d565b600033905090565b60008060009054906101000a900473ffffffffffffffffffffffffffffffffffffffff169050816000806101000a81548173ffffffffffffffffffffffffffffffffffffffff021916908373ffffffffffffffffffffffffffffffffffffffff1602179055508173ffffffffffffffffffffffffffffffffffffffff168173ffffffffffffffffffffffffffffffffffffffff167f8be0079c531659141344cd1fd0a4f28419497f9722a3daafe3b4186f6b6457e060405160405180910390a35050565b600080fd5b600073ffffffffffffffffffffffffffffffffffffffff82169050919050565b60006200022082620001f3565b9050919050565b620002328162000213565b81146200023e57600080fd5b50565b600081519050620002528162000227565b92915050565b600060208284031215620002715762000270620001ee565b5b6000620002818482850162000241565b91505092915050565b600082825260208201905092915050565b7f496e76616c696420746f6b656e20616464726573730000000000000000000000600082015250565b6000620002d36015836200028a565b9150620002e0826200029b565b602082019050919050565b600060208201905081810360008301526200030681620002c4565b9050919050565b611748806200031d6000396000f3fe608060405234801561001057600080fd5b50600436106100885760003560e01c80637f6e8cbf1161005b5780637f6e8cbf146100ef5780638da5cb5b1461011f5780639be8f2a61461013d578063f2fde38b1461017357610088565b80636d0b1e871461008d5780636e99d52f146100a9578063715018a6146100c75780637154344c146100d1575b600080fd5b6100a760048036038101906100a29190610bc7565b61018f565b005b6100b16105eb565b6040516100be9190610c91565b60405180910390f35b6100cf6105f2565b005b6100d9610606565b6040516100e69190610d2b565b60405180910390f35b61010960048036038101906101049190610d84565b61062c565b6040516101169190610c91565b60405180910390f35b610127610644565b6040516101349190610dc0565b60405180910390f35b61015760048036038101906101529190610ddb565b61066d565b60405161016a9796959493929190610ebe565b60405180910390f35b61018d60048036038101906101889190610d84565b61086a565b005b6101976108ed565b60008451116101db576040517f08c379a00000000000000000000000000000000000000000000000000000000081526004016101d290610f8e565b60405180910390fd5b6002846040516101eb9190610fea565b908152602001604051809103902060060160009054906101000a900460ff161561024a576040517f08c379a00000000000000000000000000000000000000000000000000000000081526004016102419061104d565b60405180910390fd5b6000811161028d576040517f08c379a0000000000000000000000000000000000000000000000000000000008152600401610284906110b9565b60405180910390fd5b62015180600460003373ffffffffffffffffffffffffffffffffffffffff1673ffffffffffffffffffffffffffffffffffffffff168152602001908152602001600020546102db9190611108565b421161031c576040517f08c379a0000000000000000000000000000000000000000000000000000000008152600401610313906111ae565b60405180910390fd5b6000838383604051602001610333939291906111ef565b6040516020818303038152906040528051906020012090506003600082815260200190815260200160002060009054906101000a900460ff16156103ac576040517f08c379a00000000000000000000000000000000000000000000000000000000081526004016103a390611296565b60405180910390fd5b60008290506040518060e00160405280878152602001868152602001858152602001848152602001828152602001428152602001600115158152506002876040516103f79190610fea565b9081526020016040518091039020600082015181600001908161041a91906114b8565b50602082015181600101908161043091906114b8565b50604082015181600201908161044691906114b8565b50606082015181600301556080820151816004015560a0820151816005015560c08201518160060160006101000a81548160ff02191690831515021790555090505060016003600084815260200190815260200160002060006101000a81548160ff02191690831515021790555042600460003373ffffffffffffffffffffffffffffffffffffffff1673ffffffffffffffffffffffffffffffffffffffff16815260200190815260200160002081905550600160009054906101000a900473ffffffffffffffffffffffffffffffffffffffff1673ffffffffffffffffffffffffffffffffffffffff166340c10f1961053e610644565b836040518363ffffffff1660e01b815260040161055c92919061158a565b600060405180830381600087803b15801561057657600080fd5b505af115801561058a573d6000803e3d6000fd5b505050508560405161059c9190610fea565b60405180910390207f1b8e723c34aa1e7f69e7d88f954b08d172267ff01918cbbe2d1d6f604847fe7186868685426040516105db9594939291906115b3565b60405180910390a2505050505050565b6201518081565b6105fa6108ed565b610604600061096b565b565b600160009054906101000a900473ffffffffffffffffffffffffffffffffffffffff1681565b60046020528060005260406000206000915090505481565b60008060009054906101000a900473ffffffffffffffffffffffffffffffffffffffff16905090565b6002818051602081018201805184825260208301602085012081835280955050505050506000915090508060000180546106a6906112e5565b80601f01602080910402602001604051908101604052809291908181526020018280546106d2906112e5565b801561071f5780601f106106f45761010080835404028352916020019161071f565b820191906000526020600020905b81548152906001019060200180831161070257829003601f168201915b505050505090806001018054610734906112e5565b80601f0160208091040260200160405190810160405280929190818152602001828054610760906112e5565b80156107ad5780601f10610782576101008083540402835291602001916107ad565b820191906000526020600020905b81548152906001019060200180831161079057829003601f168201915b5050505050908060020180546107c2906112e5565b80601f01602080910402602001604051908101604052809291908181526020018280546107ee906112e5565b801561083b5780601f106108105761010080835404028352916020019161083b565b820191906000526020600020905b81548152906001019060200180831161081e57829003601f168201915b5050505050908060030154908060040154908060050154908060060160009054906101000a900460ff16905087565b6108726108ed565b600073ffffffffffffffffffffffffffffffffffffffff168173ffffffffffffffffffffffffffffffffffffffff16036108e1576040517f08c379a00000000000000000000000000000000000000000000000000000000081526004016108d890611686565b60405180910390fd5b6108ea8161096b565b50565b6108f5610a2f565b73ffffffffffffffffffffffffffffffffffffffff16610913610644565b73ffffffffffffffffffffffffffffffffffffffff1614610969576040517f08c379a0000000000000000000000000000000000000000000000000000000008152600401610960906116f2565b60405180910390fd5b565b60008060009054906101000a900473ffffffffffffffffffffffffffffffffffffffff169050816000806101000a81548173ffffffffffffffffffffffffffffffffffffffff021916908373ffffffffffffffffffffffffffffffffffffffff1602179055508173ffffffffffffffffffffffffffffffffffffffff168173ffffffffffffffffffffffffffffffffffffffff167f8be0079c531659141344cd1fd0a4f28419497f9722a3daafe3b4186f6b6457e060405160405180910390a35050565b600033905090565b6000604051905090565b600080fd5b600080fd5b600080fd5b600080fd5b6000601f19601f8301169050919050565b7f4e487b7100000000000000000000000000000000000000000000000000000000600052604160045260246000fd5b610a9e82610a55565b810181811067ffffffffffffffff82111715610abd57610abc610a66565b5b80604052505050565b6000610ad0610a37565b9050610adc8282610a95565b919050565b600067ffffffffffffffff821115610afc57610afb610a66565b5b610b0582610a55565b9050602081019050919050565b82818337600083830152505050565b6000610b34610b2f84610ae1565b610ac6565b905082815260208101848484011115610b5057610b4f610a50565b5b610b5b848285610b12565b509392505050565b600082601f830112610b7857610b77610a4b565b5b8135610b88848260208601610b21565b91505092915050565b6000819050919050565b610ba481610b91565b8114610baf57600080fd5b50565b600081359050610bc181610b9b565b92915050565b60008060008060808587031215610be157610be0610a41565b5b600085013567ffffffffffffffff811115610bff57610bfe610a46565b5b610c0b87828801610b63565b945050602085013567ffffffffffffffff811115610c2c57610c2b610a46565b5b610c3887828801610b63565b935050604085013567ffffffffffffffff811115610c5957610c58610a46565b5b610c6587828801610b63565b9250506060610c7687828801610bb2565b91505092959194509250565b610c8b81610b91565b82525050565b6000602082019050610ca66000830184610c82565b92915050565b600073ffffffffffffffffffffffffffffffffffffffff82169050919050565b6000819050919050565b6000610cf1610cec610ce784610cac565b610ccc565b610cac565b9050919050565b6000610d0382610cd6565b9050919050565b6000610d1582610cf8565b9050919050565b610d2581610d0a565b82525050565b6000602082019050610d406000830184610d1c565b92915050565b6000610d5182610cac565b9050919050565b610d6181610d46565b8114610d6c57600080fd5b50565b600081359050610d7e81610d58565b92915050565b600060208284031215610d9a57610d99610a41565b5b6000610da884828501610d6f565b91505092915050565b610dba81610d46565b82525050565b6000602082019050610dd56000830184610db1565b92915050565b600060208284031215610df157610df0610a41565b5b600082013567ffffffffffffffff811115610e0f57610e0e610a46565b5b610e1b84828501610b63565b91505092915050565b600081519050919050565b600082825260208201905092915050565b60005b83811015610e5e578082015181840152602081019050610e43565b60008484015250505050565b6000610e7582610e24565b610e7f8185610e2f565b9350610e8f818560208601610e40565b610e9881610a55565b840191505092915050565b60008115159050919050565b610eb881610ea3565b82525050565b600060e0820190508181036000830152610ed8818a610e6a565b90508181036020830152610eec8189610e6a565b90508181036040830152610f008188610e6a565b9050610f0f6060830187610c82565b610f1c6080830186610c82565b610f2960a0830185610c82565b610f3660c0830184610eaf565b98975050505050505050565b7f50726f7065727479204944207265717569726564000000000000000000000000600082015250565b6000610f78601483610e2f565b9150610f8382610f42565b602082019050919050565b60006020820190508181036000830152610fa781610f6b565b9050919050565b600081905092915050565b6000610fc482610e24565b610fce8185610fae565b9350610fde818560208601610e40565b80840191505092915050565b6000610ff68284610fb9565b915081905092915050565b7f50726f706572747920494420616c726561647920726567697374657265640000600082015250565b6000611037601e83610e2f565b915061104282611001565b602082019050919050565b600060208201905081810360008301526110668161102a565b9050919050565b7f56616c756174696f6e206d757374206265203e20300000000000000000000000600082015250565b60006110a3601583610e2f565b91506110ae8261106d565b602082019050919050565b600060208201905081810360008301526110d281611096565b9050919050565b7f4e487b7100000000000000000000000000000000000000000000000000000000600052601160045260246000fd5b600061111382610b91565b915061111e83610b91565b9250828201905080821115611136576111356110d9565b5b92915050565b7f436f6f6c646f776e3a2077616974206265666f7265207265676973746572696e60008201527f6720616761696e00000000000000000000000000000000000000000000000000602082015250565b6000611198602783610e2f565b91506111a38261113c565b604082019050919050565b600060208201905081810360008301526111c78161118b565b9050919050565b6000819050919050565b6111e96111e482610b91565b6111ce565b82525050565b60006111fb8286610fb9565b91506112078285610fb9565b915061121382846111d8565b602082019150819050949350505050565b7f4475706c69636174652070726f706572747920616c726561647920657869737460008201527f7300000000000000000000000000000000000000000000000000000000000000602082015250565b6000611280602183610e2f565b915061128b82611224565b604082019050919050565b600060208201905081810360008301526112af81611273565b9050919050565b7f4e487b7100000000000000000000000000000000000000000000000000000000600052602260045260246000fd5b600060028204905060018216806112fd57607f821691505b6020821081036113105761130f6112b6565b5b50919050565b60008190508160005260206000209050919050565b60006020601f8301049050919050565b600082821b905092915050565b6000600883026113787fffffffffffffffffffffffffffffffffffffffffffffffffffffffffffffffff8261133b565b611382868361133b565b95508019841693508086168417925050509392505050565b60006113b56113b06113ab84610b91565b610ccc565b610b91565b9050919050565b6000819050919050565b6113cf8361139a565b6113e36113db826113bc565b848454611348565b825550505050565b600090565b6113f86113eb565b6114038184846113c6565b505050565b5b818110156114275761141c6000826113f0565b600181019050611409565b5050565b601f82111561146c5761143d81611316565b6114468461132b565b81016020851015611455578190505b6114696114618561132b565b830182611408565b50505b505050565b600082821c905092915050565b600061148f60001984600802611471565b1980831691505092915050565b60006114a8838361147e565b9150826002028217905092915050565b6114c182610e24565b67ffffffffffffffff8111156114da576114d9610a66565b5b6114e482546112e5565b6114ef82828561142b565b600060209050601f8311600181146115225760008415611510578287015190505b61151a858261149c565b865550611582565b601f19841661153086611316565b60005b8281101561155857848901518255600182019150602085019450602081019050611533565b868310156115755784890151611571601f89168261147e565b8355505b6001600288020188555050505b505050505050565b600060408201905061159f6000830185610db1565b6115ac6020830184610c82565b9392505050565b600060a08201905081810360008301526115cd8188610e6a565b905081810360208301526115e18187610e6a565b90506115f06040830186610c82565b6115fd6060830185610c82565b61160a6080830184610c82565b9695505050505050565b7f4f776e61626c653a206e6577206f776e657220697320746865207a65726f206160008201527f6464726573730000000000000000000000000000000000000000000000000000602082015250565b6000611670602683610e2f565b915061167b82611614565b604082019050919050565b6000602082019050818103600083015261169f81611663565b9050919050565b7f4f776e61626c653a2063616c6c6572206973206e6f7420746865206f776e6572600082015250565b60006116dc602083610e2f565b91506116e7826116a6565b602082019050919050565b6000602082019050818103600083015261170b816116cf565b905091905056fea26469706673582212203ea5f4556eb8f3e7184cb52c8007c16dd8d718460418ed7f60f13da4b5f5894864736f6c63430008180033",
  "linkReferences": {},
  "deployedLinkReferences": {}
}