{
  "_format": "hh-sol-artifact-1",
  "contractName": "PropertyToken",
  "sourceName": "contracts/PropertyToken.sol",
  "abi": [
    {
      "inputs": [
        {
          "internalType": "string",
          "name": "_name",
          "type": "string"
        },
        {
          "internalType": "string",
          "name": "_symbol",
          "type": "string"
        },
        {
          "internalType": "string",
          "name": "_propertyName",
          "type": "string"
        },
        {
          "internalType": "string",
          "name": "_propertyLocation",
          "type": "string"
        },
        {
          "internalType": "uint256",
          "name": "_propertyValue",
          "type": "uint256"
        },
        {
          "internalType": "address",
          "name": "_propertyManager",
          "type": "address"
        }
      ],
      "stateMutability": "nonpayable",
      "type": "constructor"
    },
    {
      "anonymous": false,
      "inputs": [
        {
          "indexed": true,
          "internalType": "address",
          "name": "owner",
          "type": "address"
        },
        {
          "indexed": true,
          "internalType": "address",
          "name": "spender",
          "type": "address"
        },
        {
          "indexed": false,
          "internalType": "uint256",
          "name": "value",
          "type": "uint256"
        }
      ],
      "name": "Approval",
      "type": "event"
    },
    {
      "anonymous": false,
      "inputs": [
        {
          "indexed": true,
          "internalType": "address",
          "name": "previousOwner",
          "type": "address"
        },
        {
          "indexed": true,
          "internalType": "address",
          "name": "newOwner",
          "type": "address"
        }
      ],
      "name": "OwnershipTransferred",
      "type": "event"
    },
    {
      "anonymous": false,
      "inputs": [
        {
          "indexed": false,
          "internalType": "uint256",
          "name": "amount",
          "type": "uint256"
        }
      ],
      "name": "RentalIncomeAdded",
      "type": "event"
    },
    {
      "anonymous": false,
      "inputs": [
        {
          "indexed": false,
          "internalType": "address",
          "name": "user",
          "type": "address"
        },
        {
          "indexed": false,
          "internalType": "uint256",
          "name": "amount",
          "type": "uint256"
        }
      ],
      "name": "RentalIncomeClaimed",
      "type": "event"
    },
    {
      "anonymous": false,
      "inputs": [
        {
          "indexed": false,
          "internalType": "address",
          "name": "buyer",
          "type": "address"
        },
        {
          "indexed": false,
          "internalType": "uint256",
          "name": "amount",
          "type": "uint256"
        },
        {
          "indexed": false,
          "internalType": "uint256",
          "name": "cost",
          "type": "uint256"
        }
      ],
      "name": "TokensPurchased",
      "type": "event"
    },
    {
      "anonymous": false,
      "inputs": [
        {
          "indexed": false,
          "internalType": "address",
          "name": "seller",
          "type": "address"
        },
        {
          "indexed": false,
          "internalType": "uint256",
          "name": "amount",
          "type": "uint256"
        },
        {
          "indexed": false,
          "internalType": "uint256",
          "name": "proceeds",
          "type": "uint256"
        }
      ],
      "name": "TokensSold",
      "type": "event"
    },
    {
      "anonymous": false,
      "inputs": [
        {
          "indexed": true,
          "internalType": "address",
          "name": "from",
          "type": "address"
        },
        {
          "indexed": true,
          "internalType": "address",
          "name": "to",
          "type": "address"
        },
        {
          "indexed": false,
          "internalType": "uint256",
          "name": "value",
          "type": "uint256"
        }
      ],
      "name": "Transfer",
      "type": "event"
    },
    {
      "inputs": [],
      "name": "PROPERTY_TOKENS",
      "outputs": [
        {
          "internalType": "uint256",
          "name": "",
          "type": "uint256"
        }
      ],
      "stateMutability": "view",
      "type": "function"
    },
    {
      "inputs": [],
      "name": "TOKENS_PER_USDC",
      "outputs": [
        {
          "internalType": "uint256",
          "name": "",
          "type": "uint256"
        }
      ],
      "stateMutability": "view",
      "type": "function"
    },
    {
      "inputs": [],
      "name": "TOKEN_DECIMALS",
      "outputs": [
        {
          "internalType": "uint256",
          "name": "",
          "type": "uint256"
        }
      ],
      "stateMutability": "view",
      "type": "function"
    },
    {
      "inputs": [
        {
          "internalType": "address",
          "name": "owner",
          "type": "address"
        },
        {
          "internalType": "address",
          "name": "spender",
          "type": "address"
        }
      ],
      "name": "allowance",
      "outputs": [
        {
          "internalType": "uint256",
          "name": "",
          "type": "uint256"
        }
      ],
      "stateMutability": "view",
      "type": "function"
    },
    {
      "inputs": [
        {
          "internalType": "address",
          "name": "spender",
          "type": "address"
        },
        {
          "internalType": "uint256",
          "name": "amount",
          "type": "uint256"
        }
      ],
      "name": "approve",
      "outputs": [
        {
          "internalType": "bool",
          "name": "",
          "type": "bool"
        }
      ],
      "stateMutability": "nonpayable",
      "type": "function"
    },
    {
      "inputs": [
        {
          "internalType": "address",
          "name": "account",
          "type": "address"
        }
      ],
      "name": "balanceOf",
      "outputs": [
        {
          "internalType": "uint256",
          "name": "",
          "type": "uint256"
        }
      ],
      "stateMutability": "view",
      "type": "function"
    },
    {
      "inputs": [
        {
          "internalType": "uint256",
          "name": "amount",
          "type": "uint256"
        }
      ],
      "name": "burn",
      "outputs": [],
      "stateMutability": "nonpayable",
      "type": "function"
    },
    {
      "inputs": [],
      "name": "claimRentalIncome",
      "outputs": [],
      "stateMutability": "nonpayable",
      "type": "function"
    },
    {
      "inputs": [],
      "name": "decimals",
      "outputs": [
        {
          "internalType": "uint8",
          "name": "",
          "type": "uint8"
        }
      ],
      "stateMutability": "view",
      "type": "function"
    },
    {
      "inputs": [
        {
          "internalType": "address",
          "name": "spender",
          "type": "address"
        },
        {
          "internalType": "uint256",
          "name": "subtractedValue",
          "type": "uint256"
        }
      ],
      "name": "decreaseAllowance",
      "outputs": [
        {
          "internalType": "bool",
          "name": "",
          "type": "bool"
        }
      ],
      "stateMutability": "nonpayable",
      "type": "function"
    },
    {
      "inputs": [
        {
          "internalType": "uint256",
          "name": "amount",
          "type": "uint256"
        }
      ],
      "name": "distributeRentalIncome",
      "outputs": [],
      "stateMutability": "nonpayable",
      "type": "function"
    },
    {
      "inputs": [
        {
          "internalType": "address",
          "name": "user",
          "type": "address"
        }
      ],
      "name": "getUnclaimedRentalIncome",
      "outputs": [
        {
          "internalType": "uint256",
          "name": "",
          "type": "uint256"
        }
      ],
      "stateMutability": "view",
      "type": "function"
    },
    {
      "inputs": [
        {
          "internalType": "address",
          "name": "spender",
          "type": "address"
        },
        {
          "internalType": "uint256",
          "name": "addedValue",
          "type": "uint256"
        }
      ],
      "name": "increaseAllowance",
      "outputs": [
        {
          "internalType": "bool",
          "name": "",
          "type": "bool"
        }
      ],
      "stateMutability": "nonpayable",
      "type": "function"
    },
    {
      "inputs": [
        {
          "internalType": "address",
          "name": "to",
          "type": "address"
        },
        {
          "internalType": "uint256",
          "name": "amount",
          "type": "uint256"
        }
      ],
      "name": "mint",
      "outputs": [],
      "stateMutability": "nonpayable",
      "type": "function"
    },
    {
      "inputs": [],
      "name": "name",
      "outputs": [
        {
          "internalType": "string",
          "name": "",
          "type": "string"
        }
      ],
      "stateMutability": "view",
      "type": "function"
    },
    {
      "inputs": [],
      "name": "owner",
      "outputs": [
        {
          "internalType": "address",
          "name": "",
          "type": "address"
        }
      ],
      "stateMutability": "view",
      "type": "function"
    },
    {
      "inputs": [],
      "name": "pricePerToken",
      "outputs": [
        {
          "internalType": "uint256",
          "name": "",
          "type": "uint256"
        }
      ],
      "stateMutability": "view",
      "type": "function"
    },
    {
      "inputs": [],
      "name": "propertyAddress",
      "outputs": [
        {
          "internalType": "address",
          "name": "",
          "type": "address"
        }
      ],
      "stateMutability": "view",
      "type": "function"
    },
    {
      "inputs": [],
      "name": "propertyLocation",
      "outputs": [
        {
          "internalType": "string",
          "name": "",
          "type": "string"
        }
      ],
      "stateMutability": "view",
      "type": "function"
    },
    {
      "inputs": [],
      "name": "propertyManager",
      "outputs": [
        {
          "internalType": "address",
          "name": "",
          "type": "address"
        }
      ],
      "stateMutability": "view",
      "type": "function"
    },
    {
      "inputs": [],
      "name": "propertyName",
      "outputs": [
        {
          "internalType": "string",
          "name": "",
          "type": "string"
        }
      ],
      "stateMutability": "view",
      "type": "function"
    },
    {
      "inputs": [],
      "name": "propertyValue",
      "outputs": [
        {
          "internalType": "uint256",
          "name": "",
          "type": "uint256"
        }
      ],
      "stateMutability": "view",
      "type": "function"
    },
    {
      "inputs": [
        {
          "internalType": "uint256",
          "name": "amount",
          "type": "uint256"
        },
        {
          "internalType": "uint256",
          "name": "usdcAmount",
          "type": "uint256"
        }
      ],
      "name": "purchaseTokens",
      "outputs": [],
      "stateMutability": "nonpayable",
      "type": "function"
    },
    {
      "inputs": [],
      "name": "renounceOwnership",
      "outputs": [],
      "stateMutability": "nonpayable",
      "type": "function"
    },
    {
      "inputs": [
        {
          "internalType": "address",
          "name": "",
          "type": "address"
        }
      ],
      "name": "rentalIncomeClaimed",
      "outputs": [
        {
          "internalType": "uint256",
          "name": "",
          "type": "uint256"
        }
      ],
      "stateMutability": "view",
      "type": "function"
    },
    {
      "inputs": [
        {
          "internalType": "address",
          "name": "",
          "type": "address"
        }
      ],
      "name": "rentalIncomeEntitled",
      "outputs": [
        {
          "internalType": "uint256",
          "name": "",
          "type": "uint256"
        }
      ],
      "stateMutability": "view",
      "type": "function"
    },
    {
      "inputs": [],
      "name": "symbol",
      "outputs": [
        {
          "internalType": "string",
          "name": "",
          "type": "string"
        }
      ],
      "stateMutability": "view",
      "type": "function"
    },
    {
      "inputs": [],
      "name": "tokensForSale",
      "outputs": [
        {
          "internalType": "uint256",
          "name": "",
          "type": "uint256"
        }
      ],
      "stateMutability": "view",
      "type": "function"
    },
    {
      "inputs": [],
      "name": "tokensSold",
      "outputs": [
        {
          "internalType": "uint256",
          "name": "",
          "type": "uint256"
        }
      ],
      "stateMutability": "view",
      "type": "function"
    },
    {
      "inputs": [],
      "name": "totalRentalIncome",
      "outputs": [
        {
          "internalType": "uint256",
          "name": "",
          "type": "uint256"
        }
      ],
      "stateMutability": "view",
      "type": "function"
    },
    {
      "inputs": [],
      "name": "totalSupply",
      "outputs": [
        {
          "internalType": "uint256",
          "name": "",
          "type": "uint256"
        }
      ],
      "stateMutability": "view",
      "type": "function"
    },
    {
      "inputs": [
        {
          "internalType": "address",
          "name": "to",
          "type": "address"
        },
        {
          "internalType": "uint256",
          "name": "amount",
          "type": "uint256"
        }
      ],
      "name": "transfer",
      "outputs": [
        {
          "internalType": "bool",
          "name": "",
          "type": "bool"
        }
      ],
      "stateMutability": "nonpayable",
      "type": "function"
    },
    {
      "inputs": [
        {
          "internalType": "address",
          "name": "from",
          "type": "address"
        },
        {
          "internalType": "address",
          "name": "to",
          "type": "address"
        },
        {
          "internalType": "uint256",
          "name": "amount",
          "type": "uint256"
        }
      ],
      "name": "transferFrom",
      "outputs": [
        {
          "internalType": "bool",
          "name": "",
          "type": "bool"
        }
      ],
      "stateMutability": "nonpayable",
      "type": "function"
    },
    {
      "inputs": [
        {
          "internalType": "address",
          "name": "newOwner",
          "type": "address"
        }
      ],
      "name": "transferOwnership",
      "outputs": [],
      "stateMutability": "nonpayable",
      "type": "function"
    },
    {
      "inputs": [
        {
          "internalType": "uint256",
          "name": "newValue",
          "type": "uint256"
        }
      ],
      "name": "updatePropertyValue",
      "outputs": [],
      "stateMutability": "nonpayable",
      "type": "function"
    }
  ],
  "bytecode": "0x60806040523480156200001157600080fd5b5060405162003563380380620035638339818101604052810190620000379190620005cd565b858581600390816200004a919062000926565b5080600490816200005c919062000926565b5050506200007f620000736200015560201b60201c565b6200015d60201b60201c565b600160068190555083600c908162000098919062000926565b5082600d9081620000aa919062000926565b5081600e8190555080600860006101000a81548173ffffffffffffffffffffffffffffffffffffffff021916908373ffffffffffffffffffffffffffffffffffffffff16021790555069021e19e0c9bab2400000600a819055506032620f424062000116919062000a6b565b600781905550620001383069021e19e0c9bab24000006200022360201b60201c565b62000149336200015d60201b60201c565b50505050505062000b8f565b600033905090565b6000600560009054906101000a900473ffffffffffffffffffffffffffffffffffffffff16905081600560006101000a81548173ffffffffffffffffffffffffffffffffffffffff021916908373ffffffffffffffffffffffffffffffffffffffff1602179055508173ffffffffffffffffffffffffffffffffffffffff168173ffffffffffffffffffffffffffffffffffffffff167f8be0079c531659141344cd1fd0a4f28419497f9722a3daafe3b4186f6b6457e060405160405180910390a35050565b600073ffffffffffffffffffffffffffffffffffffffff168273ffffffffffffffffffffffffffffffffffffffff160362000295576040517f08c379a00000000000000000000000000000000000000000000000000000000081526004016200028c9062000b04565b60405180910390fd5b620002a9600083836200039060201b60201c565b8060026000828254620002bd919062000b26565b92505081905550806000808473ffffffffffffffffffffffffffffffffffffffff1673ffffffffffffffffffffffffffffffffffffffff168152602001908152602001600020600082825401925050819055508173ffffffffffffffffffffffffffffffffffffffff16600073ffffffffffffffffffffffffffffffffffffffff167fddf252ad1be2c89b69c2b068fc378daa952ba7f163c4a11628f55a4df523b3ef8360405162000370919062000b72565b60405180910390a36200038c600083836200039560201b60201c565b5050565b505050565b505050565b6000604051905090565b600080fd5b600080fd5b600080fd5b600080fd5b6000601f19601f8301169050919050565b7f4e487b7100000000000000000000000000000000000000000000000000000000600052604160045260246000fd5b6200040382620003b8565b810181811067ffffffffffffffff82111715620004255762000424620003c9565b5b80604052505050565b60006200043a6200039a565b9050620004488282620003f8565b919050565b600067ffffffffffffffff8211156200046b576200046a620003c9565b5b6200047682620003b8565b9050602081019050919050565b60005b83811015620004a357808201518184015260208101905062000486565b60008484015250505050565b6000620004c6620004c0846200044d565b6200042e565b905082815260208101848484011115620004e557620004e4620003b3565b5b620004f284828562000483565b509392505050565b600082601f830112620005125762000511620003ae565b5b815162000524848260208601620004af565b91505092915050565b6000819050919050565b62000542816200052d565b81146200054e57600080fd5b50565b600081519050620005628162000537565b92915050565b600073ffffffffffffffffffffffffffffffffffffffff82169050919050565b6000620005958262000568565b9050919050565b620005a78162000588565b8114620005b357600080fd5b50565b600081519050620005c7816200059c565b92915050565b60008060008060008060c08789031215620005ed57620005ec620003a4565b5b600087015167ffffffffffffffff8111156200060e576200060d620003a9565b5b6200061c89828a01620004fa565b965050602087015167ffffffffffffffff81111562000640576200063f620003a9565b5b6200064e89828a01620004fa565b955050604087015167ffffffffffffffff811115620006725762000671620003a9565b5b6200068089828a01620004fa565b945050606087015167ffffffffffffffff811115620006a457620006a3620003a9565b5b620006b289828a01620004fa565b9350506080620006c589828a0162000551565b92505060a0620006d889828a01620005b6565b9150509295509295509295565b600081519050919050565b7f4e487b7100000000000000000000000000000000000000000000000000000000600052602260045260246000fd5b600060028204905060018216806200073857607f821691505b6020821081036200074e576200074d620006f0565b5b50919050565b60008190508160005260206000209050919050565b60006020601f8301049050919050565b600082821b905092915050565b600060088302620007b87fffffffffffffffffffffffffffffffffffffffffffffffffffffffffffffffff8262000779565b620007c4868362000779565b95508019841693508086168417925050509392505050565b6000819050919050565b60006200080762000801620007fb846200052d565b620007dc565b6200052d565b9050919050565b6000819050919050565b6200082383620007e6565b6200083b62000832826200080e565b84845462000786565b825550505050565b600090565b6200085262000843565b6200085f81848462000818565b505050565b5b8181101562000887576200087b60008262000848565b60018101905062000865565b5050565b601f821115620008d657620008a08162000754565b620008ab8462000769565b81016020851015620008bb578190505b620008d3620008ca8562000769565b83018262000864565b50505b505050565b600082821c905092915050565b6000620008fb60001984600802620008db565b1980831691505092915050565b6000620009168383620008e8565b9150826002028217905092915050565b6200093182620006e5565b67ffffffffffffffff8111156200094d576200094c620003c9565b5b6200095982546200071f565b620009668282856200088b565b600060209050601f8311600181146200099e576000841562000989578287015190505b62000995858262000908565b86555062000a05565b601f198416620009ae8662000754565b60005b82811015620009d857848901518255600182019150602085019450602081019050620009b1565b86831015620009f85784890151620009f4601f891682620008e8565b8355505b6001600288020188555050505b505050505050565b7f4e487b7100000000000000000000000000000000000000000000000000000000600052601260045260246000fd5b7f4e487b7100000000000000000000000000000000000000000000000000000000600052601160045260246000fd5b600062000a78826200052d565b915062000a85836200052d565b92508262000a985762000a9762000a0d565b5b828204905092915050565b600082825260208201905092915050565b7f45524332303a206d696e7420746f20746865207a65726f206164647265737300600082015250565b600062000aec601f8362000aa3565b915062000af98262000ab4565b602082019050919050565b6000602082019050818103600083015262000b1f8162000add565b9050919050565b600062000b33826200052d565b915062000b40836200052d565b925082820190508082111562000b5b5762000b5a62000a3c565b5b92915050565b62000b6c816200052d565b82525050565b600060208201905062000b89600083018462000b61565b92915050565b6129c48062000b9f6000396000f3fe608060405234801561001057600080fd5b50600436106102115760003560e01c806366440d7111610125578063a457c2d7116100ad578063db43919b1161007c578063db43919b1461060e578063dd62ed3e1461062a578063e20993bc1461065a578063e7356cb514610676578063f2fde38b1461069457610211565b8063a457c2d714610560578063a9059cbb14610590578063b5d2de5c146105c0578063ccd46068146105de57610211565b80637b1b1de6116100f45780637b1b1de6146104cc5780637c666bd0146104ea5780638bf0af3e146105085780638da5cb5b1461052457806395d89b411461054257610211565b806366440d71146104565780636bcc831c1461047457806370a0823114610492578063715018a6146104c257610211565b80632c35c08c116101a857806340c10f191161017757806340c10f19146103c457806342966c68146103e0578063518ab2a8146103fc5780635a382f051461041a5780635b7f415c1461043857610211565b80632c35c08c14610328578063313ce5671461034657806339509351146103645780633e96ecd21461039457610211565b806318160ddd116101e457806318160ddd146102a057806320153851146102be57806323b872dd146102c85780632923825f146102f857610211565b806306fdde0314610216578063095ea7b3146102345780631015c6821461026457806312aef8c314610282575b600080fd5b61021e6106b0565b60405161022b9190611b3f565b60405180910390f35b61024e60048036038101906102499190611bfa565b610742565b60405161025b9190611c55565b60405180910390f35b61026c610765565b6040516102799190611c7f565b60405180910390f35b61028a61076b565b6040516102979190611c7f565b60405180910390f35b6102a8610771565b6040516102b59190611c7f565b60405180910390f35b6102c661077b565b005b6102e260048036038101906102dd9190611c9a565b610924565b6040516102ef9190611c55565b60405180910390f35b610312600480360381019061030d9190611ced565b610953565b60405161031f9190611c7f565b60405180910390f35b6103306109ec565b60405161033d9190611b3f565b60405180910390f35b61034e610a7a565b60405161035b9190611d36565b60405180910390f35b61037e60048036038101906103799190611bfa565b610a83565b60405161038b9190611c55565b60405180910390f35b6103ae60048036038101906103a99190611ced565b610aba565b6040516103bb9190611c7f565b60405180910390f35b6103de60048036038101906103d99190611bfa565b610ad2565b005b6103fa60048036038101906103f59190611d51565b610ae8565b005b610404610af5565b6040516104119190611c7f565b60405180910390f35b610422610afb565b60405161042f9190611c7f565b60405180910390f35b610440610b00565b60405161044d9190611c7f565b60405180910390f35b61045e610b05565b60405161046b9190611d8d565b60405180910390f35b61047c610b2b565b6040516104899190611c7f565b60405180910390f35b6104ac60048036038101906104a79190611ced565b610b39565b6040516104b99190611c7f565b60405180910390f35b6104ca610b81565b005b6104d4610b95565b6040516104e19190611c7f565b60405180910390f35b6104f2610b9b565b6040516104ff9190611c7f565b60405180910390f35b610522600480360381019061051d9190611da8565b610ba1565b005b61052c610d79565b6040516105399190611d8d565b60405180910390f35b61054a610da3565b6040516105579190611b3f565b60405180910390f35b61057a60048036038101906105759190611bfa565b610e35565b6040516105879190611c55565b60405180910390f35b6105aa60048036038101906105a59190611bfa565b610eac565b6040516105b79190611c55565b60405180910390f35b6105c8610ecf565b6040516105d59190611b3f565b60405180910390f35b6105f860048036038101906105f39190611ced565b610f5d565b6040516106059190611c7f565b60405180910390f35b61062860048036038101906106239190611d51565b610f75565b005b610644600480360381019061063f9190611de8565b610fd0565b6040516106519190611c7f565b60405180910390f35b610674600480360381019061066f9190611d51565b611057565b005b61067e611069565b60405161068b9190611d8d565b60405180910390f35b6106ae60048036038101906106a99190611ced565b61108f565b005b6060600380546106bf90611e57565b80601f01602080910402602001604051908101604052809291908181526020018280546106eb90611e57565b80156107385780601f1061070d57610100808354040283529160200191610738565b820191906000526020600020905b81548152906001019060200180831161071b57829003601f168201915b5050505050905090565b60008061074d611112565b905061075a81858561111a565b600191505092915050565b600e5481565b600a5481565b6000600254905090565b6107836112e3565b600061078e33610b39565b9050600081116107d3576040517f08c379a00000000000000000000000000000000000000000000000000000000081526004016107ca90611ed4565b60405180910390fd5b60006107dd610771565b601154836107eb9190611f23565b6107f59190611f94565b90506000601060003373ffffffffffffffffffffffffffffffffffffffff1673ffffffffffffffffffffffffffffffffffffffff16815260200190815260200160002054826108449190611fc5565b905060008111610889576040517f08c379a000000000000000000000000000000000000000000000000000000000815260040161088090612045565b60405180910390fd5b80601060003373ffffffffffffffffffffffffffffffffffffffff1673ffffffffffffffffffffffffffffffffffffffff16815260200190815260200160002060008282546108d89190612065565b925050819055507e03d3947ede8e51ed02d0740ec185b5c1b63f4df43081eebe33b7fa2460f3bc338260405161090f929190612099565b60405180910390a1505050610922611332565b565b60008061092f611112565b905061093c85828561133c565b6109478585856113c8565b60019150509392505050565b60008061095f83610b39565b9050600081036109735760009150506109e7565b600061097d610771565b6011548361098b9190611f23565b6109959190611f94565b9050601060008573ffffffffffffffffffffffffffffffffffffffff1673ffffffffffffffffffffffffffffffffffffffff16815260200190815260200160002054816109e29190611fc5565b925050505b919050565b600c80546109f990611e57565b80601f0160208091040260200160405190810160405280929190818152602001828054610a2590611e57565b8015610a725780601f10610a4757610100808354040283529160200191610a72565b820191906000526020600020905b815481529060010190602001808311610a5557829003601f168201915b505050505081565b60006012905090565b600080610a8e611112565b9050610aaf818585610aa08589610fd0565b610aaa9190612065565b61111a565b600191505092915050565b600f6020528060005260406000206000915090505481565b610ada61163e565b610ae482826116bc565b5050565b610af23382611812565b50565b600b5481565b603281565b601281565b600960009054906101000a900473ffffffffffffffffffffffffffffffffffffffff1681565b69021e19e0c9bab240000081565b60008060008373ffffffffffffffffffffffffffffffffffffffff1673ffffffffffffffffffffffffffffffffffffffff168152602001908152602001600020549050919050565b610b8961163e565b610b9360006119df565b565b60075481565b60115481565b610ba96112e3565b600a54821115610bee576040517f08c379a0000000000000000000000000000000000000000000000000000000008152600401610be590612134565b60405180910390fd5b6000603283610bfd9190611f94565b905080821015610c42576040517f08c379a0000000000000000000000000000000000000000000000000000000008152600401610c39906121a0565b60405180910390fd5b3073ffffffffffffffffffffffffffffffffffffffff1663a9059cbb33856040518363ffffffff1660e01b8152600401610c7d929190612099565b6020604051808303816000875af1158015610c9c573d6000803e3d6000fd5b505050506040513d601f19601f82011682018060405250810190610cc091906121ec565b610cff576040517f08c379a0000000000000000000000000000000000000000000000000000000008152600401610cf690612265565b60405180910390fd5b82600a6000828254610d119190611fc5565b9250508190555082600b6000828254610d2a9190612065565b925050819055507f8fafebcaf9d154343dad25669bfa277f4fbacd7ac6b0c4fed522580e040a0f33338483604051610d6493929190612285565b60405180910390a150610d75611332565b5050565b6000600560009054906101000a900473ffffffffffffffffffffffffffffffffffffffff16905090565b606060048054610db290611e57565b80601f0160208091040260200160405190810160405280929190818152602001828054610dde90611e57565b8015610e2b5780601f10610e0057610100808354040283529160200191610e2b565b820191906000526020600020905b815481529060010190602001808311610e0e57829003601f168201915b5050505050905090565b600080610e40611112565b90506000610e4e8286610fd0565b905083811015610e93576040517f08c379a0000000000000000000000000000000000000000000000000000000008152600401610e8a9061232e565b60405180910390fd5b610ea0828686840361111a565b60019250505092915050565b600080610eb7611112565b9050610ec48185856113c8565b600191505092915050565b600d8054610edc90611e57565b80601f0160208091040260200160405190810160405280929190818152602001828054610f0890611e57565b8015610f555780601f10610f2a57610100808354040283529160200191610f55565b820191906000526020600020905b815481529060010190602001808311610f3857829003601f168201915b505050505081565b60106020528060005260406000206000915090505481565b610f7d61163e565b8060116000828254610f8f9190612065565b925050819055507f8d1cb9b91a35aea8764e1143529a92f4195095c45a48d24ea64f4d59a377768a81604051610fc59190611c7f565b60405180910390a150565b6000600160008473ffffffffffffffffffffffffffffffffffffffff1673ffffffffffffffffffffffffffffffffffffffff16815260200190815260200160002060008373ffffffffffffffffffffffffffffffffffffffff1673ffffffffffffffffffffffffffffffffffffffff16815260200190815260200160002054905092915050565b61105f61163e565b80600e8190555050565b600860009054906101000a900473ffffffffffffffffffffffffffffffffffffffff1681565b61109761163e565b600073ffffffffffffffffffffffffffffffffffffffff168173ffffffffffffffffffffffffffffffffffffffff1603611106576040517f08c379a00000000000000000000000000000000000000000000000000000000081526004016110fd906123c0565b60405180910390fd5b61110f816119df565b50565b600033905090565b600073ffffffffffffffffffffffffffffffffffffffff168373ffffffffffffffffffffffffffffffffffffffff1603611189576040517f08c379a000000000000000000000000000000000000000000000000000000000815260040161118090612452565b60405180910390fd5b600073ffffffffffffffffffffffffffffffffffffffff168273ffffffffffffffffffffffffffffffffffffffff16036111f8576040517f08c379a00000000000000000000000000000000000000000000000000000000081526004016111ef906124e4565b60405180910390fd5b80600160008573ffffffffffffffffffffffffffffffffffffffff1673ffffffffffffffffffffffffffffffffffffffff16815260200190815260200160002060008473ffffffffffffffffffffffffffffffffffffffff1673ffffffffffffffffffffffffffffffffffffffff168152602001908152602001600020819055508173ffffffffffffffffffffffffffffffffffffffff168373ffffffffffffffffffffffffffffffffffffffff167f8c5be1e5ebec7d5bd14f71427d1e84f3dd0314c0f7b2291e5b200ac8c7c3b925836040516112d69190611c7f565b60405180910390a3505050565b600260065403611328576040517f08c379a000000000000000000000000000000000000000000000000000000000815260040161131f90612550565b60405180910390fd5b6002600681905550565b6001600681905550565b60006113488484610fd0565b90507fffffffffffffffffffffffffffffffffffffffffffffffffffffffffffffffff81146113c257818110156113b4576040517f08c379a00000000000000000000000000000000000000000000000000000000081526004016113ab906125bc565b60405180910390fd5b6113c1848484840361111a565b5b50505050565b600073ffffffffffffffffffffffffffffffffffffffff168373ffffffffffffffffffffffffffffffffffffffff1603611437576040517f08c379a000000000000000000000000000000000000000000000000000000000815260040161142e9061264e565b60405180910390fd5b600073ffffffffffffffffffffffffffffffffffffffff168273ffffffffffffffffffffffffffffffffffffffff16036114a6576040517f08c379a000000000000000000000000000000000000000000000000000000000815260040161149d906126e0565b60405180910390fd5b6114b1838383611aa5565b60008060008573ffffffffffffffffffffffffffffffffffffffff1673ffffffffffffffffffffffffffffffffffffffff16815260200190815260200160002054905081811015611537576040517f08c379a000000000000000000000000000000000000000000000000000000000815260040161152e90612772565b60405180910390fd5b8181036000808673ffffffffffffffffffffffffffffffffffffffff1673ffffffffffffffffffffffffffffffffffffffff16815260200190815260200160002081905550816000808573ffffffffffffffffffffffffffffffffffffffff1673ffffffffffffffffffffffffffffffffffffffff168152602001908152602001600020600082825401925050819055508273ffffffffffffffffffffffffffffffffffffffff168473ffffffffffffffffffffffffffffffffffffffff167fddf252ad1be2c89b69c2b068fc378daa952ba7f163c4a11628f55a4df523b3ef846040516116259190611c7f565b60405180910390a3611638848484611aaa565b50505050565b611646611112565b73ffffffffffffffffffffffffffffffffffffffff16611664610d79565b73ffffffffffffffffffffffffffffffffffffffff16146116ba576040517f08c379a00000000000000000000000000000000000000000000000000000000081526004016116b1906127de565b60405180910390fd5b565b600073ffffffffffffffffffffffffffffffffffffffff168273ffffffffffffffffffffffffffffffffffffffff160361172b576040517f08c379a00000000000000000000000000000000000000000000000000000000081526004016117229061284a565b60405180910390fd5b61173760008383611aa5565b80600260008282546117499190612065565b92505081905550806000808473ffffffffffffffffffffffffffffffffffffffff1673ffffffffffffffffffffffffffffffffffffffff168152602001908152602001600020600082825401925050819055508173ffffffffffffffffffffffffffffffffffffffff16600073ffffffffffffffffffffffffffffffffffffffff167fddf252ad1be2c89b69c2b068fc378daa952ba7f163c4a11628f55a4df523b3ef836040516117fa9190611c7f565b60405180910390a361180e60008383611aaa565b5050565b600073ffffffffffffffffffffffffffffffffffffffff168273ffffffffffffffffffffffffffffffffffffffff1603611881576040517f08c379a0000000000000000000000000000000000000000000000000000000008152600401611878906128dc565b60405180910390fd5b61188d82600083611aa5565b60008060008473ffffffffffffffffffffffffffffffffffffffff1673ffffffffffffffffffffffffffffffffffffffff16815260200190815260200160002054905081811015611913576040517f08c379a000000000000000000000000000000000000000000000000000000000815260040161190a9061296e565b60405180910390fd5b8181036000808573ffffffffffffffffffffffffffffffffffffffff1673ffffffffffffffffffffffffffffffffffffffff1681526020019081526020016000208190555081600260008282540392505081905550600073ffffffffffffffffffffffffffffffffffffffff168373ffffffffffffffffffffffffffffffffffffffff167fddf252ad1be2c89b69c2b068fc378daa952ba7f163c4a11628f55a4df523b3ef846040516119c69190611c7f565b60405180910390a36119da83600084611aaa565b505050565b6000600560009054906101000a900473ffffffffffffffffffffffffffffffffffffffff16905081600560006101000a81548173ffffffffffffffffffffffffffffffffffffffff021916908373ffffffffffffffffffffffffffffffffffffffff1602179055508173ffffffffffffffffffffffffffffffffffffffff168173ffffffffffffffffffffffffffffffffffffffff167f8be0079c531659141344cd1fd0a4f28419497f9722a3daafe3b4186f6b6457e060405160405180910390a35050565b505050565b505050565b600081519050919050565b600082825260208201905092915050565b60005b83811015611ae9578082015181840152602081019050611ace565b60008484015250505050565b6000601f19601f8301169050919050565b6000611b1182611aaf565b611b1b8185611aba565b9350611b2b818560208601611acb565b611b3481611af5565b840191505092915050565b60006020820190508181036000830152611b598184611b06565b905092915050565b600080fd5b600073ffffffffffffffffffffffffffffffffffffffff82169050919050565b6000611b9182611b66565b9050919050565b611ba181611b86565b8114611bac57600080fd5b50565b600081359050611bbe81611b98565b92915050565b6000819050919050565b611bd781611bc4565b8114611be257600080fd5b50565b600081359050611bf481611bce565b92915050565b60008060408385031215611c1157611c10611b61565b5b6000611c1f85828601611baf565b9250506020611c3085828601611be5565b9150509250929050565b60008115159050919050565b611c4f81611c3a565b82525050565b6000602082019050611c6a6000830184611c46565b92915050565b611c7981611bc4565b82525050565b6000602082019050611c946000830184611c70565b92915050565b600080600060608486031215611cb357611cb2611b61565b5b6000611cc186828701611baf565b9350506020611cd286828701611baf565b9250506040611ce386828701611be5565b9150509250925092565b600060208284031215611d0357611d02611b61565b5b6000611d1184828501611baf565b91505092915050565b600060ff82169050919050565b611d3081611d1a565b82525050565b6000602082019050611d4b6000830184611d27565b92915050565b600060208284031215611d6757611d66611b61565b5b6000611d7584828501611be5565b91505092915050565b611d8781611b86565b82525050565b6000602082019050611da26000830184611d7e565b92915050565b60008060408385031215611dbf57611dbe611b61565b5b6000611dcd85828601611be5565b9250506020611dde85828601611be5565b9150509250929050565b60008060408385031215611dff57611dfe611b61565b5b6000611e0d85828601611baf565b9250506020611e1e85828601611baf565b9150509250929050565b7f4e487b7100000000000000000000000000000000000000000000000000000000600052602260045260246000fd5b60006002820490506001821680611e6f57607f821691505b602082108103611e8257611e81611e28565b5b50919050565b7f4e6f20746f6b656e73206f776e65640000000000000000000000000000000000600082015250565b6000611ebe600f83611aba565b9150611ec982611e88565b602082019050919050565b60006020820190508181036000830152611eed81611eb1565b9050919050565b7f4e487b7100000000000000000000000000000000000000000000000000000000600052601160045260246000fd5b6000611f2e82611bc4565b9150611f3983611bc4565b9250828202611f4781611bc4565b91508282048414831517611f5e57611f5d611ef4565b5b5092915050565b7f4e487b7100000000000000000000000000000000000000000000000000000000600052601260045260246000fd5b6000611f9f82611bc4565b9150611faa83611bc4565b925082611fba57611fb9611f65565b5b828204905092915050565b6000611fd082611bc4565b9150611fdb83611bc4565b9250828203905081811115611ff357611ff2611ef4565b5b92915050565b7f4e6f2072656e74616c20696e636f6d6520746f20636c61696d00000000000000600082015250565b600061202f601983611aba565b915061203a82611ff9565b602082019050919050565b6000602082019050818103600083015261205e81612022565b9050919050565b600061207082611bc4565b915061207b83611bc4565b925082820190508082111561209357612092611ef4565b5b92915050565b60006040820190506120ae6000830185611d7e565b6120bb6020830184611c70565b9392505050565b7f4e6f7420656e6f75676820746f6b656e7320617661696c61626c6520666f722060008201527f73616c6500000000000000000000000000000000000000000000000000000000602082015250565b600061211e602483611aba565b9150612129826120c2565b604082019050919050565b6000602082019050818103600083015261214d81612111565b9050919050565b7f496e73756666696369656e74205553444320616d6f756e740000000000000000600082015250565b600061218a601883611aba565b915061219582612154565b602082019050919050565b600060208201905081810360008301526121b98161217d565b9050919050565b6121c981611c3a565b81146121d457600080fd5b50565b6000815190506121e6816121c0565b92915050565b60006020828403121561220257612201611b61565b5b6000612210848285016121d7565b91505092915050565b7f546f6b656e207472616e73666572206661696c65640000000000000000000000600082015250565b600061224f601583611aba565b915061225a82612219565b602082019050919050565b6000602082019050818103600083015261227e81612242565b9050919050565b600060608201905061229a6000830186611d7e565b6122a76020830185611c70565b6122b46040830184611c70565b949350505050565b7f45524332303a2064656372656173656420616c6c6f77616e63652062656c6f7760008201527f207a65726f000000000000000000000000000000000000000000000000000000602082015250565b6000612318602583611aba565b9150612323826122bc565b604082019050919050565b600060208201905081810360008301526123478161230b565b9050919050565b7f4f776e61626c653a206e6577206f776e657220697320746865207a65726f206160008201527f6464726573730000000000000000000000000000000000000000000000000000602082015250565b60006123aa602683611aba565b91506123b58261234e565b604082019050919050565b600060208201905081810360008301526123d98161239d565b9050919050565b7f45524332303a20617070726f76652066726f6d20746865207a65726f2061646460008201527f7265737300000000000000000000000000000000000000000000000000000000602082015250565b600061243c602483611aba565b9150612447826123e0565b604082019050919050565b6000602082019050818103600083015261246b8161242f565b9050919050565b7f45524332303a20617070726f766520746f20746865207a65726f20616464726560008201527f7373000000000000000000000000000000000000000000000000000000000000602082015250565b60006124ce602283611aba565b91506124d982612472565b604082019050919050565b600060208201905081810360008301526124fd816124c1565b9050919050565b7f5265656e7472616e637947756172643a207265656e7472616e742063616c6c00600082015250565b600061253a601f83611aba565b915061254582612504565b602082019050919050565b600060208201905081810360008301526125698161252d565b9050919050565b7f45524332303a20696e73756666696369656e7420616c6c6f77616e6365000000600082015250565b60006125a6601d83611aba565b91506125b182612570565b602082019050919050565b600060208201905081810360008301526125d581612599565b9050919050565b7f45524332303a207472616e736665722066726f6d20746865207a65726f20616460008201527f6472657373000000000000000000000000000000000000000000000000000000602082015250565b6000612638602583611aba565b9150612643826125dc565b604082019050919050565b600060208201905081810360008301526126678161262b565b9050919050565b7f45524332303a207472616e7366657220746f20746865207a65726f206164647260008201527f6573730000000000000000000000000000000000000000000000000000000000602082015250565b60006126ca602383611aba565b91506126d58261266e565b604082019050919050565b600060208201905081810360008301526126f9816126bd565b9050919050565b7f45524332303a207472616e7366657220616d6f756e742065786365656473206260008201527f616c616e63650000000000000000000000000000000000000000000000000000602082015250565b600061275c602683611aba565b915061276782612700565b604082019050919050565b6000602082019050818103600083015261278b8161274f565b9050919050565b7f4f776e61626c653a2063616c6c6572206973206e6f7420746865206f776e6572600082015250565b60006127c8602083611aba565b91506127d382612792565b602082019050919050565b600060208201905081810360008301526127f7816127bb565b9050919050565b7f45524332303a206d696e7420746f20746865207a65726f206164647265737300600082015250565b6000612834601f83611aba565b915061283f826127fe565b602082019050919050565b6000602082019050818103600083015261286381612827565b9050919050565b7f45524332303a206275726e2066726f6d20746865207a65726f2061646472657360008201527f7300000000000000000000000000000000000000000000000000000000000000602082015250565b60006128c6602183611aba565b91506128d18261286a565b604082019050919050565b600060208201905081810360008301526128f5816128b9565b9050919050565b7f45524332303a206275726e20616d6f756e7420657863656564732062616c616e60008201527f6365000000000000000000000000000000000000000000000000000000000000602082015250565b6000612958602283611aba565b9150612963826128fc565b604082019050919050565b600060208201905081810360008301526129878161294b565b905091905056fea2646970667358221220f295840d47d321ef819263db5ec810baa593de3808ea3e0f314f9a474d334e1664736f6c63430008180033",
  "linkReferences": {},
  "deployedLinkReferences": {}
}